:020000040800F2
:10000000D88000208502000819490008A542000890
:1000100015490008C5080008F56C0008000000003C
:10002000000000000000000000000000714A00080D
:10003000450B000800000000314900080D4B000886
:100040009F0200089F0200089F0200089F0200080C
:100050009F0200089F0200089F0200089F020008FC
:100060009F0200089F0200089F0200089F020008EC
:10007000FD0A00089F020008090B00089F02000803
:100080009F0200089F0200089F0200089F020008CC
:10009000C9080008D50800089F0200089F02000850
:1000A0009F0200089F0200089F0200089F020008AC
:1000B0009F0200089F0200089F0200089F0200089C
:1000C0009F0200089F0200089F0200089F0200088C
:1000D0009F020008655000089F0200087150000848
:1000E0009F0200089F0200089F0200089F0200086C
:1000F0009F0200089F0200089F0200089F0200085C
:100100009F0200089F0200089F0200089F0200084B
:100110009F0200089F020008ED4B0008F94B000801
:100120009F020008150B0008210B00089F02000821
:100130009F0200089F0200089F0200089F0200081B
:10014000E1080008ED0800089F0200081D490008AA
:100150009F0200082D0B0008390B00087D50000895
:100160009F0200089F0200089F0200089F020008EB
:100170009F0200089F0200089F0200080000000084
:100180009F0200089F02000800F002F800F06BF8E0
:1001900014A696E8000CB244B344DA4501D100F04D
:1001A00062F8BAE80F000FA696E83000A5EB040548
:1001B00004EB0607AAEB0704A7F101074FEA1515A0
:1001C0004FEA3414A4F10104AC4201D300F04BF81F
:1001D00013F0010F18BFFB1A43F0010300F001F800
:1001E000DBE71847F4DE000014DF00000A4410F8D3
:1001F000014B14F00F0508BF10F8015B240908BF7C
:1002000010F8014B6D1E05D010F8013B6D1E01F872
:10021000013BF9D1641E03D0641E01F8015BFBD1E0
:100220009142E4D37047000070470000002300248F
:1002300000250026103A28BF78C1FBD8520728BFF6
:1002400030C148BF0B6070471FB50DF0BCFC9DE886
:10025000030000F00FFA00F05BF91FBD10B500209D
:1002600000F048FA10BD00F071FA1146FFF7ECFFFC
:100270000AF078FE00F0A9FA03B4FFF7EFFF03BC21
:1002800000F05AFA0948804709480047FEE7FEE7B0
:10029000FEE7FEE7FEE7FEE7FEE7FEE7FEE7FEE736
:1002A00004480549054A064B70470000D94B000831
:1002B00089010008D87A0020D8800020D87C00204E
:1002C000D87C002053EA020C00F069802DE9F04B45
:1002D0004FF00006002B1FBFB3FA83F503FA05F4B5
:1002E00024FA05F65E4012BF1643B2FA82F502FA0E
:1002F00005F4C5F120051EBF22FA05FC44EA0C04F2
:10030000203556EA044C4FEA144418BF641C4FF0E1
:1003100000084FF00009904271EB030C39D300291B
:1003200019BFB1FA81F701FA07F6B0FA80F700FABF
:1003300007F6C7F120071EBF20FA07FC46EA0C06A5
:100340002037B6FBF4FCA7EB0507103F07F01F0BA7
:10035000CBF120062CFA06F60CFA0BFB44BFB34691
:100360000026202FA4BF5E464FF0000B5BEA060C70
:1003700008BF4FF0010B19EB0B0948EB0608ABFB6C
:10038000027C06FB02CC0BFB03CCC01B71EB0C0107
:10039000C1E70B46024641464846BDE8F08B13B51F
:1003A000084318BF4FF0FF300146AFF30080BDE8AF
:1003B0001C4070470B460146184600F020B9032A3E
:1003C00040F2308010F0030C00F0158011F8013B72
:1003D000BCF1020F624498BF11F801CB00F8013B59
:1003E00038BF11F8013BA2F1040298BF00F801CB1D
:1003F00038BF00F8013B11F0030300F02580083AF4
:10040000C0F0088051F8043B083A51F804CBA0E84A
:100410000810F5E7121D5CBF51F8043B40F8043B9F
:10042000AFF30080D20724BF11F8013B11F801CBD4
:1004300048BF11F8012B24BF00F8013B00F801CBA5
:1004400048BF00F8012B704710B5203AC0F00B8070
:10045000B1E81850A0E81850B1E81850A0E81850BA
:10046000203ABFF4F5AF5FEA027C24BFB1E8185030
:10047000A0E8185044BF18C918C0BDE810405FEA92
:10048000827C24BF51F8043B40F8043B08BF70470E
:10049000D20728BF31F8023B48BF11F8012B28BF13
:1004A00020F8023B48BF00F8012B704702F0FF0321
:1004B00043EA032242EA024200F002B84FF000028F
:1004C00000B5134694469646203922BFA0E80C504A
:1004D000A0E80C50B1F12001BFF4F7AF090728BF25
:1004E000A0E80C5048BF0CC05DF804EB890028BFA1
:1004F00040F8042B08BF704748BF20F8022B11F0CA
:10050000804F18BF00F8012B704770477047704745
:1005100008487CB57844009007487844009C05461C
:10052000019004E02046016808448047241DAC4245
:10053000F8D17CBDE0DB0000FEDB000070B50646B4
:1005400000F074F8056806F10B0020F00704B442CF
:100550009CBF002070BD2B466A68BAB11068A042EB
:1005600010D304F1080188423CBF5068586007D39B
:100570005168101941601168091B016058601460CE
:10058000101D70BD13465268002AE7D12146284647
:1005900000F05CF80028DED170BD70B50446051F80
:1005A00000F044F80068002C14BF446870BD002CB3
:1005B00018BFAC423CBF20466468F8D301680A18F3
:1005C000AA4218BF456003D12A680546114401605C
:1005D00028684119A1421CBF6C6070BD61686960E8
:1005E00021680844286070BD10B500F027F8006845
:1005F00010BD10B5044600F021F8046010BD2DE9CF
:10060000F041074615460E461020FFF797FF0400FD
:100610000AD06760C4E9026500F00CF80168216047
:1006200004600020BDE8F0810120FBE7004870472E
:100630008001002000487047B0010020004870474A
:1006400078010020704770477047704738B50446FE
:100650000A4600206946AFF30080002808BF38BD75
:1006600002460099204600F096F8012038BD01208E
:1006700000F0BBB8F8B5AFF30080054600200C468B
:100680000C2000BF0646A819A0420DD93246694683
:100690000020AFF30080070008BF00F0A6F8009824
:1006A000A04218BF0546C419FFF7C0FF0560074602
:1006B000F01D20F007004619284600F00AF8B44261
:1006C00008BFF8BDA21B31463868BDE8F84000F00D
:1006D00062B800210160416070470C20704710B57E
:1006E000002000F07BF8FFF7B9FDBDE810400120C5
:1006F00000F022B82DE9F0410646FFF79BFF804647
:10070000454613E016B1E068B0420ED1206828607B
:10071000D4E90101D8F8007088472046FFF73DFF73
:10072000D8F80000B842EBD100E025462C68002C38
:10073000E8D1BDE8F081000001491820ABBEFEE71A
:100740002600020000487047780100207546FFF738
:10075000F9FFAE4605006946534620F0070085467E
:1007600018B020B5FFF79CFDBDE820404FF0000613
:100770004FF000074FF000084FF0000BAC46ACE81C
:10078000C009ACE8C009ACE8C009ACE8C00921F078
:1007900007018D467047034640688C46002818BF05
:1007A00088423CBF03464068F8D318681844884222
:1007B00007D00CF1030020F00700001D411A521A67
:1007C0000146081D0A60FFF7E8BE10B50446AFF306
:1007D00000802046BDE81040FFF74EBD10B500F088
:1007E00011F8BDE8104000F008B810B500F022F88C
:1007F000BDE8104000F001B87047002801D0FFF7B5
:100800009BBF704710B5002102A000F03BF801200B
:1008100010BD0000534947414252543A2041626E94
:100820006F726D616C207465726D696E6174696F51
:100830006E00000010B5012805D0002103A000F0D3
:1008400021F8012010BD09A1F8E7000053494752E3
:10085000544D454D3A204F7574206F662068656190
:1008600070206D656D6F7279000000003A20486558
:100870006170206D656D6F727920636F7272757033
:100880007465640070B505460C460A2000E06D1CD6
:1008900000F011F835B128780028F8D102E0641C86
:1008A00000F009F814B120780028F8D1BDE87040B4
:1008B0000A20AFF3008008B569468DF800000320D8
:1008C000ABBE08BDFEE7000042F23470C2F2000089
:1008D00000F0F4BA42F23470C2F2000000F0EEBA56
:1008E00042F26C70C2F2000000F0E8BA42F26C70A2
:1008F000C2F2000000F0E2BA00207047002070470A
:1009000010B542F25844C2F2000440F6B061C2F29F
:1009100000012046002204F07BFD40F2B061C2F2EB
:100920000001204604F066FD002010BD10B542F223
:100930005844C2F200040146204604F05BFD204604
:1009400004F032FD002010BD0020704742F25842F2
:10095000C2F20002D2F8BC22D2F81432002B1CBF23
:100960000120704710B542F25844C2F200040A4612
:100970000146204604F04CFD2046BDE8104004F03E
:10098000C5BD000040F21C0541F2DC649FED5A8AAF
:1009900041F23C7AC2F20005C2F2000445F21A2B81
:1009A0004FF0FF09C2F2000A05F11A060CE000BF81
:1009B00040F22810C2F2000090ED000ABCEEC00A1E
:1009C00010EE100A0AF0F0FA41F24870C2F200008C
:1009D00090ED2D0A41F60000C2F2000090ED021BDE
:1009E00020EE080A43F63917BDEEC00A51EC110B90
:1009F000278184ED040A10EE108A0CF00FFB00EE44
:100A0000100A20EE080ABDEEC00A10EE100A010E10
:100A100084F83310010C84F83410010A84F836008D
:100A20004FEA186084F837004FEA184084F838001D
:100A30004FEA182084F8351084F83900A07EDAF8DF
:100A4000001084F83D00481C216D84ED030A09BAAA
:100A500000EE101A01EE100ACAF800006061010EE3
:100A6000020C030A84F842002046B8EEC00AB8EE31
:100A7000411A20F8317F84ED0A0A31EE400A42F231
:100A80004C47BCEEC00AC2F2000784F83F101221A6
:100A9000A4F818B084F81B9084F83A80A4F83BB00E
:100AA00084F83E9087ED000A84F8402084F84130B5
:100AB000FFF74CFF204606F0DBFE284606F0AEFDB1
:100AC0000820687043F22410C2F200003146082268
:100AD00003F04AFBA87E21287FF46AAFE87E122843
:100AE0007FF466AFD5F81E00D5F81A10C5F83300AC
:100AF000C5F82F105CE700BF0000C84242F66C004A
:100B0000C2F2000000F09ABD42F6D000C2F200002E
:100B100000F094BD42F63410C2F2000000F08EBD29
:100B200042F2A470C2F2000000F088BD42F69810B4
:100B3000C2F2000000F082BD42F60800C2F20000DE
:100B400000F07CBD7047000072B600BFFEE70000F9
:100B50004FF4FA700AF028FA40F2402840F22424B8
:100B600041F6803541F6A82741F24876C2F20008E6
:100B7000C2F20004C2F20005C2F20007C2F200068F
:100B800098F800006075284608F01AF8207420468E
:100B900008F08AF900F0DCFF396D401AC0087C28A3
:100BA0004FF0000088BF012087F85800A07430463D
:100BB00007F0D4F92075304607F0C8F9206881683D
:100BC0002046884701200AF0EFF9D9E742F248149D
:100BD000C2F20004204609F0DBF805200AF0E4F92F
:100BE000F8E70000026B013A012A04D8006800F11E
:100BF0001402002004E000F1340201204FF48021AF
:100C0000136819431160704710B5D0F800C0D0F8D0
:100C100030E0AEF1010EBEF1010FDCF808E010D8B3
:100C20001EF0E05F13D0CEF3016E012000FA0EF04B
:100C300018608B688BB14868CC6844EAC0000343F5
:100C40000FE000F1340101204FF4802223E000F195
:100C5000340101204FF400121DE00868CB6843EA1C
:100C600040530CEB0E10C0F88031D1E90413012B76
:100C7000C0F8841105D100F5C2710B6843F480738C
:100C80000B605168C0F88C11126800F5C071C0F893
:100C90008821002001220B681A430A6010BD000061
:100CA000026B013A012A30D8B0B546F20060C4F2B6
:100CB0000000026842F001020260026822F47C52E5
:100CC0000260D1F814E0CC694A6A0368012C43EA57
:100CD000022202600EF01F024FF0010303FA02F23B
:100CE000C3696FEA020C23EA0203C36113D02CBB71
:100CF000C36803EA0C03C360CB688C8844EA0343EF
:100D000000EBCE0423640B4611E0416B41F48021DB
:100D1000416301207047C3681343C3600B688C882C
:100D200044EA034300EBCE04236401F10C038C6816
:100D30001B8843EA044300EBCE04636443688D6977
:100D400043EA0204D1F810E0096A002D08BF03EA63
:100D50000C0444604369BEF1000F43EA020408BF7B
:100D600003EA0C040129446102D1C1691143C16144
:100D7000016821F0010101600020B0BD7047000052
:100D800010B5046B013C012C75D8046800290CBF18
:100D9000E4682469A40774D0046804EB011CDCF83F
:100DA000B0410CF5D87E14F004049460DCF8B04136
:100DB00019BFE4085460640D1460DEF800400CF5BF
:100DC000DA7E04F00204D460DCF8B44124075ABF90
:100DD000DEF8004004F00F0408241461DEF800403F
:100DE0000029C4F307249461DEF800404FEA14445C
:100DF0005461DCF8B8211A70026802EB0112D2F8D3
:100E0000B8214FEA12225A70026802EB0112D2F89E
:100E1000B8214FEA12429A70026802EB0112D2F82E
:100E2000B8214FEA1262DA70026802EB0112D2F8BE
:100E3000BC211A71026802EB0112D2F8BC214FEA00
:100E400012225A71026802EB0112D2F8BC214FEA59
:100E500012429A71026802EB0112D2F8BC214FEAE9
:100E60001262DA7100680CBF00F10C0100F1100190
:100E7000002020220AE000F1340101204FF48022FA
:100E800004E000F1340101204FF400120B681A4312
:100E90000A6010BD016B0139012984BF0020704731
:100EA0000068816882688068C1F38061C2F3C062B3
:100EB0001144C0F300700844704700002DE9F04F62
:100EC00081B0044600684669D0F804908768D0F87D
:100ED0000CB0D0F810A0D0F81880F10703D100258D
:100EE00030071CD423E0F90710D00121BA07816034
:100EF00009D4780700F1AA80380700F1B0802046B5
:100F000000F042FB02E0204600F040FB0025F8051F
:100F100000F18480F80300F1AA80300707D51BF0A8
:100F2000100004D0206845F400751021C1607007DE
:100F300008D51BF0080005D020680821C1602046B4
:100F400000F0FCF9B00706D52068C068800702D021
:100F5000204600F0F5F9700607D51AF0100004D00D
:100F6000206845F4806510210161B00608D51AF0AB
:100F7000080005D0206808210161204600F082FAAF
:100F8000F00606D520680069800702D0204600F0F0
:100F90007BFAB00308D519F0100005D020681021A5
:100FA0004160204600F0C4FAF00308D519F00800AB
:100FB00005D0206808214160204600F0F1FA300495
:100FC00040F18F805FEA497040F1888006F48070BC
:100FD00008EA102028435FEA8871014648BF41F0C3
:100FE0000201B20558BF01465FEA48700D4648BF8E
:100FF00045F00405700558BF0D4630056ED518F054
:1010000070006BD010380009052862D8DFE800F0C6
:10101000035356595C5F45F008055AE020684FF4C9
:101020008071BA0581600AD4780512D4380519D4C4
:10103000204600F0ADFAF8037FF56FAF17E02046C9
:1010400000F0A8FAF8037FF568AF10E04FF40065F0
:101050005DE705F50055F8037FF55FAF07E04FF456
:10106000805554E705F58045F8037FF556AF2068B5
:101070004FF48031BA0381600AD478030FD4380367
:1010800013D4204600F088FA30073FF548AF4EE70A
:10109000204600F083FA30073FF541AF47E705F5FA
:1010A000004530073FF53BAF41E705F58035300798
:1010B0003FF535AF3BE745F010050AE045F0200568
:1010C00007E045F0400504E045F0800501E045F407
:1010D00080752068816921F0700181612068042198
:1010E00041604DB1606B40EA05012046616301B08B
:1010F000BDE8F04FFFF742BE01B0BDE8F08F000041
:10110000002804BF01207047B0B50446006B10B939
:10111000204600F06BF82068016841F00101016091
:1011200000F016FD054600BF20684168C90705D1DB
:1011300000F00EFD401B0B28F6D310E0016821F0F3
:101140000201016000F004FD054600BF206841680F
:1011500089070CD500F0FCFC401B0B28F6D3606B14
:10116000052140F40030606301202163B0BDA16916
:101170000268012922F0800208BF80320260E16922
:101180000268012922F0400208BF40320260216A51
:101190000268012922F0200208BF20320260616A41
:1011A0000268012922F0100218BF10320260A16A01
:1011B0000268012922F0080208BF08320260E16AD1
:1011C0000268012922F0040208BF04320260251DD2
:1011D0002ECD1A4363692A431A4301391143C16171
:1011E0000020012160632163B0BD0000B0B586B06E
:1011F000006846F60002C4F2000200219042CDE9E8
:101200000411CDE90211019144D046F20041C4F22B
:101210000001884240F08F8040F23C21C2F2000180
:101220000A6843F64000C4F20200531C0B6052B936
:1012300000210091016841F000710160016801F036
:101240000071009100990021009150F8102C42F09B
:10125000080240F8102C50F8100C022200F0080090
:10126000009000980320019004900920059040F21E
:101270000040C4F20200CDE9022100F5006001A99E
:1012800000F09AFB142000210022142500F01AFD22
:10129000152445E043F64000C4F2020000910168C5
:1012A00041F080610160016801F080610091009966
:1012B00040F23C21C2F200010A68531C0B6052B993
:1012C00000210091016841F000710160016801F0A6
:1012D0000071009100990021009150F8102C42F00B
:1012E000020240F8102C50F8100C00F002000090A0
:1012F0000098602001900220CDE9020103200490B3
:101300000920059040F20040C4F2020001A900F05B
:1013100053FB402005210022402500F0D3FC41244E
:10132000284600F0BFFC20460521002200F0CAFC40
:10133000204600F0B7FC06B0B0BD000070470000CA
:101340002DE9F04381B040F2DC1840F2F819C2F206
:101350000008C2F20009002142464B460646FFF74C
:101360000FFD42F23470C2F20000864202D001B09A
:10137000BDE8F08341F6A826C2F20006B6F95C008B
:1013800096F86810B8F80020084482421AD1D9E9CA
:101390000001C6E9180100BAB6F86210000CA6F800
:1013A000600008BAB6F86410000CA6F8620008BA2B
:1013B000000CA6F864003046002107F041F900F067
:1013C000C7FB3065B8F8005041F67817002698241E
:1013D000C2F2000705E000BF0136022E04F10C0442
:1013E00025D0B919B7F9B00091F8C8100844854262
:1013F000F2D1D9E9000107EBC602C2E92E0100BA19
:10140000B2F8BA10000CA2F8B80008BAB2F8BC10D2
:10141000000CA2F8BA0008BA000CA2F8BC003846CA
:10142000314607F039FA00F093FB3851D4E741F622
:10143000A806C2F20006B6F95C0096F86810B8F883
:1014400000200844824292D1D9E90001C6E918017E
:1014500000BAB6F86210000CA6F8600008BAB6F838
:101460006410000CA6F8620008BA000CA6F864002C
:101470003046002107F0E4F800F06AFB306501B067
:10148000BDE8F0837047000070B540F2002540F2DF
:101490001C24C2F20005C2F2000401212A462346A0
:1014A0000646FFF76DFC42F26C70C2F20000864205
:1014B00018BF70BD41F60000C2F20000B0F95C1028
:1014C00090F85E202B8811448B4230D194E84E0076
:1014D00000F1680C8CE84E002178E378090180F86F
:1014E0006810B4F80110267909BA090CA0F86A103E
:1014F000190141EA161102F4704211446279B0F800
:101500006E30A0F86C1006F00F0142EA012103F4DE
:1015100070421144A279A0F86E1080F87020E27930
:10152000002180F87120BDE8704006F069BF70BDF1
:1015300070470000B0B50446006B01281BD10220A3
:1015400020632068016821F00101016000F000FBC8
:10155000054600BF20684068C00712D000F0F8FAC6
:10156000401B0B28F6D3606B40F40030606305200D
:1015700020630120B0BD606B40F400206063012057
:10158000B0BD00206063B0BD704700007047000030
:10159000704700007047000070470000704700006F
:1015A0007047000070B5C66D044600F0D1FAA16B1B
:1015B000022923D105462068616C026822F01602D8
:1015C0000260426922F08002426109B9E16C19B1FE
:1015D000016821F008010160016821F0010101604A
:1015E00020680068C0070DD000F0B2FA401B062842
:1015F000F6D32020A0650320A0630BE08020A06527
:10160000012007E0206E3F2101FA00F0B0600120C8
:10161000A06300200021616370BD0000816B02297E
:1016200008D1052181630068016821F00101016092
:10163000002070478021816501207047F0B581B09E
:1016400004460020009040F25400C2F200000268FC
:10165000D4E9176048F2B51337680821C1F64E3354
:1016600081403942A2FB03250CD0226813685B0736
:1016700008D5136823F004031360B160A16D41F035
:101680000101A16501218140394208D022685269D7
:10169000120604D5B160A16D41F00201A1650421DB
:1016A0008140394208D022681268920704D5B1609F
:1016B000A16D41F00401A16510218140394215D08E
:1016C00020680268120711D5B160026801685203F0
:1016D00006D4C90506D4016821F00801016001E0C3
:1016E000080339D4616C09B120468847216E202057
:1016F00000FA01F23A423BD020680368DB0637D596
:10170000B260A36B0268052B18D122F016020260AA
:10171000426922F080024261626C0AB9E26C1AB13D
:10172000026822F0080202603F208840B060012079
:10173000A063616D00206063B1BB3AE001685203B1
:101740000ED4C90510D4016821F0100101600120F8
:10175000A0630020606307E0E16C0029C4D1C5E705
:10176000080301D4A16C00E0216C09B12046884730
:10177000A06DF0B1A06DC00714D00520A063206853
:10178000A90A026822F00102026000BF009A013239
:101790008A42009202D80268D207F7D10120A063E2
:1017A00000206063216D21B1204601B0BDE8F0400A
:1017B000084701B0F0BD00002DE9F041044600F0FB
:1017C000C7F9B4B105460220A06300202168606318
:1017D000086820F00100086020680168C9070BD084
:1017E00000F0B6F9401B0528F6D90321202203207A
:1017F0007AE00120BDE8F081016848F23F02CFF2B3
:101800001002D4E9013501EA020ED4E9032143EACA
:101810000E032B43D4E9056C1A43D4E9077811432E
:10182000314341EA0702616A42EA0802042942EAB6
:101830000C0303D1D4E90B273A43134303604269F5
:10184000042922F0070241EA02012DD1D4E90A530A
:1018500041EA050143B3BCF5005F08D0BCF1000FBD
:1018600012D1022D16D0012D07D09DB119E0032D04
:1018700017D8DFE805F00B0F0B02A3F1C072B2FA24
:1018800082F252094AB90FE0032D02D2012222B995
:101890000AE006D1C3F3006232B1012140220120E7
:1018A00022E00022002AF8D100F0F8024AF6AB2329
:1018B000103ACAF6AA23A2FB03374DF640734161E2
:1018C0003909C0F60003595C40F2FF3398435F2AA0
:1018D0004FF03F0288BF0430C4E9170102FA01F15A
:1018E0008160012100220020A265A163BDE8F08192
:1018F000D0F834C0BCF1010F04BF0220704770B5AE
:101900004FF0010CC0F834C0D0F85CE0D0F838C01B
:10191000BCF1010F37D14FF0020CC0F838C04FF0C6
:10192000000CC0F858C0D0F800C08468456C006E48
:10193000DCF80060402C26F48026CCF80060CCF85F
:1019400004300B4604BF13460A463F2101FA00F05B
:10195000CCF80830CCF80C20CEF80800DCF80000F9
:1019600040F01600CCF800002DB1DCF8000040F08B
:101970000800CCF80000DCF8000040F00100CCF8D2
:101980000000002070BD00214163022070BD0000F6
:10199000B0B5044600F0DCF8054640F26810C2F22B
:1019A00000000068611C18BF044400BF00F0D0F8BC
:1019B000401BA042FAD3B0BD2DE9F04F82B000F138
:1019C0003E4707F1FF77860546EA972741F600462E
:1019D000C4F202060822B04208BF0722072F38BF10
:1019E0003A46002400274FF00009009209E000BFAA
:1019F00009F101090237B9F1100F04F1040400F0F4
:101A0000A4800D68012202FA09FC15EA0C08EFD047
:101A1000D1F804B00BF0030AAAF10105012D12D888
:101A20000322856802FA07FECA6825EA0E05BA4055
:101A30002A4382604268CBF3001522EA0C0205FAC1
:101A400009F52A434260BAF1030F1CD0C268032390
:101A50008E6803FA07F5AA43BE403243BAF1020F7B
:101A6000C26010D16FF0030202EA59020244D2F8B8
:101A700020C004F01C050F230E69AB402CEA0303C1
:101A8000AE4033431362026803234E68BB409A435F
:101A900006F00303BB401A4316F4403F0260A7D090
:101AA000002243F644030192C4F202031A6843F68B
:101AB000004E42F480421A601A68C4F2010E02F429
:101AC00080420192019A29F003024FF6084C7244B9
:101AD000CFF6FF7C52F80C3004F00C060F25B54011
:101AE000AB43009D05FA06F6334342F80C30DEF8AE
:101AF00008204B6842EA080643F60C4CDD0258BF4A
:101B000022EA0806CEF80860C4F2010CDCF80020D6
:101B10009D0242EA080658BF22EA0806CCF8006097
:101B2000DEF804209D0342EA080658BF22EA0806B0
:101B3000CEF80460DEF80020DB0342EA080658BF56
:101B400022EA0806CEF8006052E702B0BDE8F08F46
:101B500047F2FC20C2F200000068704740F26810B3
:101B600047F2FC21C2F20000C2F2000100680A68DC
:101B7000104408607047000080B543F60040C4F28E
:101B80000200016841F400710160016841F4806164
:101B90000160016841F480710160032000F0BEF82B
:101BA0000F2000F005F800F05BF8002080BD000079
:101BB00070B586B0002543F640010195C4F20201DC
:101BC0000A68044642F010020A60096801A801F0A0
:101BD000100101910199694600F0CEFF049E002E8C
:101BE00018BF012600F0EEFF4DF68361B040C4F24D
:101BF0001B31A0FB01014FF0FF3000EB914142F699
:101C0000B47041F20002C2F20000C4F2000240F2DD
:101C1000E733C0E90021C0E902530561856101F0A5
:101C200035FA0546C8B942F6B470C2F2000001F0B8
:101C3000D5FA054688B9362000F034F80F2C0BD8B9
:101C4000362021460022002500F03CF840F26C10BE
:101C5000C2F20000046000E00125284606B070BD15
:101C600082B0002043F640010190C4F202014A68AC
:101C700042F480424A604A6802F480420192019A2A
:101C800000900868002240F08050086008680F212A
:101C900000F08050009000986FF0010002B000F05A
:101CA00011B80000002848BF704700F01F01012252
:101CB00002FA01F14EF200124009CEF2000242F89F
:101CC0002010704710B54EF60C5CCEF2000CDCF81C
:101CD0000030C3F3022E8EF00704042C28BF042426
:101CE000BEF103034FF0FF3E0EFA04F438BF0023A9
:101CF000A14399400EFA03F39A43114300F1604265
:101D000000F00F03090102F56442043B634400281C
:101D100048BF03F10C02117010BD00004EF60C51CB
:101D2000CEF200010A684FF6FF031A4060F30A2260
:101D300042F0806040F0FD7008607047704700001E
:101D40000268002051627047B0B5D0F800E0DEF8BC
:101D50002400D1B1DEF82830B1F1010C00EB1343BF
:101D60000BD05FFA8CF10EF58070002450F8045F00
:101D700001348C4203EB1543F8D343EA02400EEBE7
:101D80008C01C1F804010020B0BD40EA0240CEF849
:101D900028000020B0BD0000D0F8E40403F008BE25
:101DA00001EBC102D0F8E43400EB8200026A18466D
:101DB00003F066BD01EBC102D0F8E43400EB820011
:101DC000D0F86022184603F0B5BD0000D0F8E40456
:101DD00003F0F0BD10B5044648B2B0F1FF3F01F08A
:101DE0000F0000EBC00104EB810205DD02F5157167
:101DF000002382F8553203E0012302F114015375E8
:101E0000D4F894240870012A04BF022010BD206871
:101E10000122C4F8942404F0D9FA0020C4F89404F0
:101E200010BD0000B0B50279044601F00F009042E9
:101E300084BF0120B0BD49B2B1F1FF3F09DD00EB25
:101E4000C00104EB810202F51571002382F85532BE
:101E500007E000EBC00104EB8102012302F1140151
:101E60005375D4F894240025012A8D70087004BF9E
:101E70000220B0BD20680122C4F8942404F03CFC88
:101E80002846C4F89454B0BD01F00F0101EBC10124
:101E900000EB8100D0F868027047000070B506467C
:101EA00048B2B0F1FF3F01F00F0000EBC00107DDC9
:101EB00006EB810404F51571002584F8555206E0FF
:101EC00006EB810C01240CF114018CF815404D78BF
:101ED0006FF3DF22002D08708A600B7118BF4883F2
:101EE000022B04BF00204871D6F89404012804BFD7
:101EF000022070BD30680122C6F8942404F092F9E3
:101F00000020C6F8940470BD10B501F00F0404EB76
:101F1000C40100EB810E4FF0000CCEF868C28EF8C1
:101F200055C290F806C0CEF86022CEF86432BCF1FB
:101F3000010F8EF8544208BFCEF8702200680EF5EB
:101F40001571624604F01EFC002010BDB0B50446B9
:101F5000007901F00F05854284BF0120B0BD48B271
:101F6000B0F1FF3F09DD01EBC10004EB800000F59B
:101F70001571002280F8552207E005EBC50004EB3F
:101F80008000012200F114014275D4F8940401226A
:101F900001288A700D7004BF0220B0BD2068C4F80B
:101FA000942404F0D1FB2DB92068A17904F5946242
:101FB00004F074FB0020C4F89404B0BD80B501F0B7
:101FC0000F0C0CEBCC0100EB810E714601F814CF25
:101FD0004FF0000CC1F814C04FF0010C81F801C0A3
:101FE00090F806C0CA60BCF1010F0B6108BFCEF8C3
:101FF00030200068624604F0C5FB002080BD000070
:102000002DE9F04F89B005688246284604F030FD7E
:1020100010B109B0BDE8F08FDAF8000004F056FD09
:102020000028F6D0D5F80808C0F30D21DAF8000032
:10203000CAF8D81404F04AFD800705D5DAF8000084
:10204000416901F002014161DAF8000005F500661E
:1020500004F03CFDC00606953ED5DAF80000816923
:1020600021F0100181612C6AC4F34340062804F07A
:102070000F0519D0022828D147F6F07014EA00089D
:1020800023D005EBC5000AEB8007D7F860124FEAB2
:1020900018140698224604F01DFDD7F8600200EBE4
:1020A0001810C7F8600207E006980AF59461082244
:1020B00004F010FDC4F30A1405EBC5000AEB800020
:1020C000D0F868122144C0F86812DAF8000081697B
:1020D00041F010018161069DDAF80000039604F0DA
:1020E000F5FC000340F1F780DAF8000004F0CCFCC6
:1020F000002800F0F08006460AF594604FF430683E
:1021000000244FF0000B08901AE000BF05EB080018
:1021100002218160B80642BF05EB080020218160E2
:10212000B80442BF05EB08004FF4005181600BF189
:10213000010B760808F1200804F1240400F0CB809C
:10214000F007F4D0DAF800005FFA8BF9494604F0A2
:10215000B5FC0746C0076ED005EB08000121816081
:10216000DAF8000008EB000C036CDCF808209AF8A1
:102170000650012D28D115073AD4950654D4069D52
:1021800012F0280F57D143F20B01C4F654718B4261
:1021900002D312F4004235D10AEB0402D2F87432B1
:1021A000DCF810106FF3DF41A3EB0101C2F86812F5
:1021B000CCB9D2F86432002B00F08880D2F86002EB
:1021C0000844C2F860020EE043F20B05C4F65475F1
:1021D000FF35AB421BD1100428D4069D900644BFA6
:1021E0002020CCF8080050464946FFF7E3FD22E0E6
:1021F00043F20B00C4F65470069D83421BD312F4C5
:10220000004018D04FF40040CCF8080013E034B977
:10221000DAF8641219B9089A002104F03FFA50461E
:102220004946FFF7C7FD05E0202001E04FF40040DC
:10223000CCF80800069D380728D505EB08000821D2
:102240008160DAF8000043F20B02056C40448168BB
:10225000C4F65472954205D311F400411CBF4FF4EB
:1022600000418160504600F095FB43F20B00C4F63C
:1022700054708542069D09D39AF80600012805D1BD
:10228000DAF80000089A012104F008FAF80642BFC3
:1022900005EB080010218160B8077FF53BAF686946
:1022A000000604D50399486840F4806048600AEB52
:1022B000040090F8571201297FF428AF002180F81C
:1022C00057125046494600F083FA1FE7089A012149
:1022D00004F0E4F987E7DAF80000CDF820A004F074
:1022E000F5FBDDF80CB0400340F1D9800898006898
:1022F00004F0C2FB002800F0D2808246089805F561
:10230000106600F5946000270190029606E000BF79
:102310005FEA5A0A07F1010700F0C1805FEACA705C
:10232000F6D00898F9B20068079104F0B5FB0446AE
:10233000C00726D007F00F00DBF83410012202FAA4
:1023400000F021EA0000CBF8340006EB4710826071
:10235000089DA87901280FD107EBC70005EB800085
:10236000D0E907121144016237B9406A20B92868E0
:10237000019A012104F092F907992846FFF710FD10
:10238000069D200742BF06EB471008218160E0064A
:1023900042BF06EB471010218160600642BF06EB8A
:1023A000471040218160A00716D52846394604F021
:1023B0002DFB089907EBC70001EB800010F8171FF1
:1023C000012905D100210170DDE9071000F0FCF9B9
:1023D00006EB471002218160200699D5089907EB8A
:1023E000C70001EB8000814659F8241FC84658F801
:1023F000042F91428CD3089B83461E685BF81C3FD8
:10240000891A994238BF0B46059606EB4711D1F859
:102410001829033392B2B2EB930F29D301F510615F
:1024200000F12005049100BFD8F80000D9F8001091
:1024300081421DD9DBF80040089A081AA042296899
:10244000967938BF04460598079AA3B2009604F01F
:1024500033FC2868D8F80010204428600819C8F810
:1024600000000498E11C806980B2B0EB910FDBD2D0
:10247000D9F80000D8F80010069DDDE9026B88420B
:102480003FF646AF059B07F00F00D3F83418012242
:1024900002FA00F021EA0000C3F8340838E7DDF85A
:1024A0002080D8F8000004F011FBB0F1FF3F1ADCE7
:1024B000DBF8040020F00100CBF80400D8F8D004C9
:1024C000012807D10020C8F8D00440460021FFF7BA
:1024D00035FC02E0404600F041FAD8F800004169BE
:1024E00001F000414161D8F8000004F0EFFA000566
:1024F0000CD5DBF80800C00702D0404600F072FAA5
:10250000D8F80000416901F400614161D8F8000089
:1025100004F0DCFAC0045BD5DBF80400102120F0E5
:102520000100CBF80400D8F8000004F06FFA98F826
:102530000400D0B105F510614FF67F328A600B6858
:10254000013823F400130B60C1F80822D1F80032DF
:1025500023F40013C1F80032D1F8003243F00063D5
:10256000C1F8003201F12001E8D1DBF81C0040F095
:102570000110CBF81C0098F80F0040B1DBF8840084
:1025800040F00B00CBF884000BF1440008E0DBF8CE
:10259000140042F22B010843CBF814000BF1100099
:1025A000016808F5946241F00B010160DBF800005E
:1025B00020F4FE60CBF80000D8F8000098F8061070
:1025C00004F06CF8D8F80000416901F480514161D1
:1025D000D8F8000004F07AFA80041CD5D8F800007E
:1025E00003F060FED8F8000004F034FAD8F8004098
:1025F00088F8070000F0E0FA98F807200146204626
:1026000004F0D2FA404600F095F9D8F8000041698C
:1026100001F400514161D8F8000004F057FA0007B6
:1026200008D5404600F09EF9D8F80000416901F055
:1026300008014161D8F8000004F048FA000629D5E5
:102640000699886920F08000886198F804000228C3
:1026500020D3012440F27B2507E000BF98F8040056
:102660000134844205F1240514D218F8050001282C
:10267000F4D104F00F0000EBC00008EB800220064C
:10268000D8F8000002F1140158BF02F5157104F0EA
:102690006FF9E3E7D8F8000004F018FAC0022FD56C
:1026A00098F80400022825D3069808F13C0500F5A7
:1026B00012640126012706E098F8040001378742DA
:1026C00004F1200416D22846216815F8242B012A8B
:1026D000F2D1B1F1FF3FEFDC00F8016C07F00F0021
:1026E00000EBC00008EB8001D8F80000143104F0C2
:1026F0003FF9E1E7D8F80000416901F48011416138
:10270000D8F8000004F0E2F9800236D598F80410F9
:1027100002292CD30698013900F5326008F51F72A2
:10272000012303E0013900F1200020D0174606689C
:1027300012F8245B012DF5D1B6F1FF3FF2DCD8F899
:10274000D85406F4803605F00105AE42EAD1069E63
:1027500007F8013CB76947F08007B76177693F0622
:10276000E0D4DBF8040040F40070CBF80400D8F8A3
:102770000000416901F400114161D8F8000004F043
:10278000A5F9400008D54046FFF706FBD8F8000041
:10279000416901F080414161D8F8000004F096F9E8
:1027A00040077FF536ACD8F800004468600702D5D2
:1027B0004046FFF70BFBD8F8000041682143416019
:1027C00009B0BDE8F08F0000D0F8E40403F052B97E
:1027D000D0F8E40403F064B9B0B582B0002857D053
:1027E00004460568D0F8980428B90020C4F8940479
:1027F000204600F05BF80320B5F1A04FC4F8980420
:1028000004BF0020A071206803F040FF94E80F008F
:10281000257C009503F056FDB8BB2068002104F02C
:102820007FF990BB207948B300EBC0008000002105
:102830004FF0010C00230025E21824331575D585CF
:10284000984205F1010582F815C01176C2E9071119
:102850005162F1D100210022002300BFA5182432CB
:1028600085F85432904203F1010385F8551285F83A
:102870005812C5E99711C5F86412EFD194E80F001A
:10288000257C009503F006FE30B10220C4F89804C0
:102890000125284602B0B0BD002501206574C4F8AA
:1028A0009804206803F0E6FDF3E70000B0B586B0B9
:1028B00000680024B0F1A04F0594CDE903440294D0
:1028C000019401D006B0B0BD43F630050094C4F2C7
:1028D0000205286801A940F001002860286800F07E
:1028E0000100009000984FF4C05001900220CDE903
:1028F0000204032004900A2005900020C4F2020084
:10290000FFF75AF86868052140F08000686000947D
:102910006869002240F480406861686900F4804082
:10292000009000984320FFF7CDF94320FFF7BAF954
:1029300006B0B0BD10B5C179044621B1022901D05D
:10294000FEF702F90121D4F8E40403F02BF9D4F8DE
:10295000E404BDE8104003F0DBB80000D0F8E40464
:1029600003F006B9D0F8E40403F00CB910B504463E
:10297000D0F89404012804BF022010BD0120C4F83F
:1029800094046174206804F0FDF80020C4F89404F5
:1029900010BD0000D0F8E42400F59461104603F067
:1029A00015B9000010B50446D0F89404012804BFFE
:1029B000022010BD20680121C4F89414C1684906A2
:1029C00006D5617B012903D1816B41F4803181639C
:1029D00004F014F8206803F03DFD0020C4F89404CE
:1029E00010BD000010B50446D0F8E40403F03EF931
:1029F0002068D0F8001E41F00101C0F8001EE07A06
:102A0000002808BF10BD4EF61050CEF2000001683D
:102A100041F00601016010BD002804BF012070478D
:102A20002DE9F04143F60808C4F202080446D8F83C
:102A3000F8030D4600F00700884207D288F8F853E3
:102A4000D8F8F80300F00700A84276D12068810783
:102A500017D5410705D5D8F8001041F4E051C8F862
:102A60000010010705D5D8F8001041F46041C8F8FE
:102A70000010D8F80010A26821F0F0011143C8F846
:102A80000010C0073FD1D8F8F80300F00700A842B3
:102A900007D988F8F853D8F8F80300F00700A842DF
:102AA0004BD12068410707D5D8F80010E26821F41F
:102AB000E0511143C8F80010000708D5D8F800000D
:102AC000216920F4604040EAC100C8F8000000F02D
:102AD000A1F8D8F800104DF68852C1F30311C0F6E2
:102AE0000002515C40F2540220FA01F140F26C10F5
:102AF000C2F200000068C2F200021160FFF758F84D
:102B00000020BDE8F0816068811E022907D258F8D4
:102B1000081C89015CBF0120BDE8F08110E001289C
:102B200007D158F8081C89035CBF0120BDE8F0817B
:102B300006E058F8081C890702D40120BDE8F0819E
:102B4000D8F8001021F003010843C8F80000FEF790
:102B5000FFFF064641F28837D8F80000616800F0B0
:102B60000C00B0EB810F8ED0FEF7F2FF801BB84255
:102B7000F2D90320BDE8F0810F22026043F608027B
:102B8000C4F20202136803F003034360136803F006
:102B9000F0038360136803F4E053C360D2F800C00D
:102BA0004FF4E05303EADC030361D2F8F80300F0CA
:102BB000070008607047000040F25400C2F20000B5
:102BC0000068704740F2540043F60801C2F200006A
:102BD000C4F20201006809684DF69852C1F38221DF
:102BE000C0F60002515CC8407047000040F254003B
:102BF00043F60801C2F20000C4F20201006809684D
:102C00004DF69852C1F34231C0F60002515CC84003
:102C10007047000010B543F60404C4F20204606873
:102C200000F00C0008280AD0042819BF42F2004026
:102C3000C0F2F40041F60030C0F2B70010BD2068C9
:102C400021682368490241F60031C0F2B70100F063
:102C50003F02C3F388105CBF42F20041C0F2F401AE
:102C6000A1FB00010023FDF72DFB21680222C1F327
:102C7000014102EB4101B0FBF1F010BD002804BF9F
:102C8000012070472DE9F04182B00446007843F6F8
:102C90000006C007C4F2020647D0B06800F00C007E
:102CA000042808D1306880033FD56068E8BB012064
:102CB00002B0BDE8F081B06800F00C00082802D135
:102CC00070684002EED46568B5F5A02F0AD0B5F55E
:102CD000803F0BD0306820F480303060306820F4C2
:102CE000802006E0306840F480203060306840F496
:102CF00080303060FEF72CFF002D054612D000BF5B
:102D00003068800311D4FEF723FF401B6428F7D9F5
:102D100026E100BFFEF71CFF401B64284FF00300B4
:102D200000F2E28030688003F4D4207880071BD55D
:102D3000B06810F00C0F09D0B06800F00C00082843
:102D400040F087807068400200F18380306880071F
:102D500003D5E068012840F09E803068216920F0AA
:102D6000F80040EAC10030602078000735D42078B0
:102D7000400748D4A56965B3B06800F00C00082886
:102D800040F09E80012D00F086807068E16900F4BB
:102D900080028A4240F07F80216A00F03F028A422E
:102DA00079D147F6C071626A0140B1EB821F72D1DE
:102DB000A16A4FF6FF73C903994300F44032A1F5AD
:102DC00080318A4267D1E16A00F07060B0EB016F38
:102DD00061D1002002B0BDE8F0816069002840F2B6
:102DE0000000C4F247205AD00121C0F8801EFEF72F
:102DF000AFFE0546706F8007B9D4FEF7A9FE401BF1
:102E00000228F7D9ACE0306C5FEAC0080AD4002091
:102E10000190306C40F080503064306C00F0805095
:102E20000190019847F20007C4F200073868C00516
:102E300024D4386840F480703860FEF789FE054677
:102E40003868C0051AD4FEF783FE401B0228F7D964
:102E500086E0E068002857D00020C4F24720012116
:102E60000160FEF775FE0546306880073FF575AFD7
:102E7000FEF76EFE401B0228F6D971E0A568052D0D
:102E800056D0012D58D0306F20F001003067306FE0
:102E900020F0040053E0012002B0BDE8F0810021E1
:102EA000C0F8801EFEF754FE054600BF706F800715
:102EB0007FF55DAFFEF74CFE401B0228F6D94FE0D0
:102EC0000027C4F2472700203866FEF741FE022D96
:102ED00005460DD13068800159D5FEF739FE401BFB
:102EE00002284FF00300F5D902B0BDE8F08100BF21
:102EF000306880017FF56DAFFEF72AFE401B022887
:102F00004FF00300F4D9EFE70020C4F2472000217E
:102F10000160FEF71DFE0546306880077FF524AF8F
:102F2000FEF716FE401B02284FF00300F4D9DBE742
:102F3000306F40F004003067306F40F001003067C0
:102F4000FEF706FE002D054641F2883713D000BF7C
:102F5000306F800712D4FEF7FBFD401BB842F7D953
:102F6000032002B0BDE8F081FEF7F2FD401BB8423D
:102F70004FF00300B8D8306F8007F5D4B8F1000FD8
:102F80003FF5F8AE306C20F080503064F2E604F18A
:102F90001C052FCD084340EA8210D9034FF6FF727B
:102FA0009143A1F5803140EA05600843706001203B
:102FB0003866FEF7CDFD0446306880013FF509AF65
:102FC000FEF7C6FD001B02284FF00300F4D98BE783
:102FD0007047000070470000C26B012A4FF00202E8
:102FE00051D010B50123C36302640268D2F804E033
:102FF000D2F808C00C682EF07003234341F2FF742E
:10300000C4F20004A24253600DDC40F2FF73C4F22C
:1030100000039A4215DCB2F1804F29D040F2004300
:10302000C4F2000322E040F2FF33C4F201039A42EB
:1030300012DC41F60003C4F200039A4218D00023C8
:1030400012E040F60003C4F200039A4210D040F6AA
:103050000043C4F2000309E044F20003C4F2010398
:103060009A4205D040F20043C4F201039A4204D1CF
:1030700049682CF08003194391600121002201640A
:10308000C263BDE81040104670470000002804BF2E
:103090000120704710B50446006C20B90020E063A1
:1030A000204600F013F8022020642068211D01F062
:1030B000A9FD012060666064A064E064206560652D
:1030C000A065E06520662064002010BD80B582B058
:1030D000006841F20041C4F20001884216D040F677
:1030E0000041C4F2000188420ED10020019043F655
:1030F0004000C4F20200016841F00801016000686C
:1031000000F008000190019802B080BD00200090FE
:1031100043F64000C4F202000168002241F02001A1
:1031200001600068052100F0200000900098372021
:10313000FEF7C8FD372002B0BDE88040FEF7B2BD03
:10314000016C01291CBF0120704702210164006845
:1031500041F2FF71C4F2000188420DDC40F2FF71C0
:10316000C4F20001884215DCB0F1804F29D040F252
:103170000041C4F2000122E040F2FF31C4F201013B
:10318000884212DC41F60001C4F20001884218D0E6
:10319000002112E040F60001C4F20001884210D084
:1031A00040F60041C4F2000109E044F20001C4F21B
:1031B0000101884205D040F20041C4F20101884279
:1031C00006D1816801F00701062904BF002070477D
:1031D000016841F00101016000207047016C012984
:1031E0001CBF0120704702210164006841F2FF7298
:1031F000C168C4F20002904241F00101C1600DDCDF
:1032000040F2FF71C4F20001884215DCB0F1804F3A
:1032100029D040F20041C4F2000122E040F2FF3127
:10322000C4F20101884212DC41F60001C4F200013F
:10323000884218D0002112E040F60001C4F20001DB
:10324000884210D040F60041C4F2000109E044F287
:103250000001C4F20101884205D040F20041C4F2ED
:103260000101884206D1816801F00701062904BFE7
:1032700000207047016841F00101016000207047A3
:10328000C26B012A4FF0020200F0C18080B5012319
:10329000C3630264D0F800C04FF67772DCF80830E0
:1032A00023EA0202CCF808200B684F2B28DC1F2BE6
:1032B00043DD202B44D0302B42D0402B40F0A9805E
:1032C000D1F804E0C968DCF82030DCF8202022F0D6
:1032D0000102CCF82020DCF8182022F0F00242EAAB
:1032E000011123F00A0242EA0E02CCF81810CCF8C1
:1032F0002020DCF8081041F0470121F030017DE08A
:103300006F2B25DDB3F5005F46D0B3F5805F77D036
:10331000702B7ED1D1E901E3C968DCF8082043EACB
:103320000E0322F47F4243EA01211143CCF8081036
:10333000DCF8081041F0770160E00BB1102B68D188
:10334000DCF8081021F07001194341F0070155E045
:10335000502B34D0602B5CD1D1F804E0C968DCF884
:103360002030DCF8202022F01002CCF82020DCF8FD
:10337000182022F4704242EA013123F0A00242EA0E
:103380000E12CCF81810CCF82020DCF8081041F010
:10339000670121F0100131E0D1E901E3C968DCF8EF
:1033A000082043EA0E0322F47F4243EA012111433D
:1033B000CCF80810DCF8081041F480411EE0D1F888
:1033C00004E0C968DCF82030DCF8202022F001029B
:1033D000CCF82020DCF8182022F0F00242EA01119B
:1033E00023F00A0242EA0E02CCF81810CCF8202092
:1033F000DCF8081041F0570121F02001CCF808104A
:103400000022012101640021C163BDE88040104613
:1034100070470122F5E700007047000070B50446D0
:103420000068C5680669B10716D515F0020113D00A
:103430006FF0020101610121E1618069800703D021
:103440002046FFF7E9FF05E0204600F0DDF82046C2
:1034500000F01EFA0020E061700718D515F0040096
:1034600015D020686FF0040101610221E1618069DB
:1034700010F4407F03D02046FFF7CEFF05E0204642
:1034800000F0C2F8204600F003FA0020E0613007A7
:1034900017D515F0080014D020686FF008010161FD
:1034A0000421E161C069800703D02046FFF7B4FF23
:1034B00005E0204600F0A8F8204600F0E9F90020D9
:1034C000E061F00618D515F0100015D020686FF0F7
:1034D000100101610821E161C06910F4407F03D04F
:1034E0002046FFF799FF05E0204600F08DF82046C2
:1034F00000F0CEF90020E061F00718BF15F00100E0
:1035000002D1300609D412E020686FF00101016198
:10351000204600F051FA300609D515F0800006D09B
:1035200020686FF0800101612046FFF751FD7006B1
:1035300009D515F0400006D020686FF04001016108
:10354000204600F043FAB00658BF70BD15F02000C9
:1035500008D021686FF0200220460A61BDE8704063
:10356000FFF738BD70BD000080B586B0006840F63A
:103570000042C4F2000200219042CDE90411CDE9DD
:10358000021101911DD040F60001C4F200018842F1
:1035900037D10020009043F63000C4F202000168E9
:1035A000032241F0080101600068012100F00800D9
:1035B0000090009840F600404FF48043C4F20200AF
:1035C00016E043F630000091C4F2020002684FF4A6
:1035D000E05342F0800202600068002200F08000A8
:1035E0000090009840F60040C4F2020000F58050C0
:1035F00001930223CDE9023101A9CDE90423FEF7AD
:10360000DBF906B080BD000070470000C36B012BE2
:1036100004BF022070474FEAB2020123032AC363AA
:1036200000F2F8802DE9F043DFE802F0023D7CBCB7
:10363000036840F200461C6A1A6A24F0020422F071
:1036400001021A621A46D3F804C052F818EF8F68C4
:1036500043F48065C4F20106B54244EA070405D18B
:10366000CF6824F00C0427F004073C430F68B542F0
:1036700006D1D1E905582CF440762E4346EA080CD1
:103680002EF073063743C3F804C09F614F68096981
:103690005F631C629F6947F008079F619F6927F07D
:1036A00004079F61B0E0036840F200481C6A1A6A90
:1036B00024F0200422F010021A621A46D3F804C043
:1036C00052F818EF8F6843F48065C4F2010845454D
:1036D00044EA071407D1CF686FF0400624F0C00415
:1036E00006EA07163443D1F80090454506D1D1E9E2
:1036F00005562CF440672E4347EA860C2EF4E64725
:1037000047EA0927C3F804C09F614F6809699F63AE
:103710001C629F6947F400679F619F6927F4806777
:103720009F6170E0036840F200481C6A1A6A24F442
:10373000007422F480721A621A46D3F804C052F858
:103740001CEF8F6843F48065C4F20108454544EAE4
:10375000072408D1CF6840F2FF463F0224F44064BA
:1037600027EA06063443D1F80090454506D1D1E951
:1037700005562CF440572E4347EA061C2EF07307DB
:1037800047EA0907C3F804C0DF614F680969DF63CE
:103790001C62DF6947F00807DF61DF6927F0040773
:1037A000DF6131E0036840F20045D3F820C01A6AB7
:1037B00043F4806722F480521A621A465C6852F819
:1037C0001CEFD1F800808E68C4F20105AF4204D12D
:1037D0004D6924F4804444EA85142CF4005747EAE8
:1037E00006372EF4E64646EA08265C60DE614E683F
:1037F00009691E641F62DF6947F40067DF61DF69E2
:1038000027F48067DF610902136819430023116000
:10381000BDE8F0430021C16318467047002804BF8B
:103820000120704710B50446006C20B90020E06309
:10383000204600F013F8022020642068211D01F0CA
:10384000E1F9012060666064A064E0642065606561
:10385000A065E06520662064002010BD006840F689
:103860000001C4F20001884218BF704781B00020F7
:10387000009043F64000C4F20200016841F00401E8
:103880000160006800F004000090009801B07047EB
:103890007047000041B1082909D0042914BF00F184
:1038A000500200F1480204E000F1440201E000F19E
:1038B0004C021268012A1CBF0120704741B108293F
:1038C00009D0042914BF00F1500200F1480204E0BD
:1038D00000F1440201E000F14C0202231360006891
:1038E00001F01F010122036A02FA01F123EA010239
:1038F0000262026A0A4341F2FF71C4F20001884287
:1039000002620BDC40F2FF71C4F20001884213DC5A
:10391000B0F1804F45D040F2004115E040F2FF3257
:10392000C4F20102904214DC41F60003C4F2000329
:10393000984236D0002314E040F60001C4F20001A2
:1039400088422ED040F60041C4F20001884228D0BF
:103950002CE044F20003C4F20103984221D040F26B
:103960000043C4F20103984220D1436C884243F4DF
:1039700000434364C6DD904207DC41F60001C4F217
:10398000000188420DD0002107E044F20001C4F29A
:103990000101884205D040F20041C4F20101884291
:1039A00004D1816801F00701062903D0016841F0C4
:1039B0000101016000207047006841F20001C4F27B
:1039C0000001884218BF7047FEF7C8B87047000072
:1039D00070B582B00446806C202809D113460A468F
:1039E00000294FF0010018BF002B04D102B070BDB8
:1039F000022002B070BD2063002622206663A2620E
:103A0000A385E664A064E06B44F6E15C44F661657E
:103A10002168C0F6000CC0F60005C0E910C544F6E8
:103A20004555C0F600050431C0E91456FDF760FFA6
:103A30000196206801680191406801900198206911
:103A400050B100BF206850E8030F216840F4807037
:103A500041E80302002AF5D1206850E8050F2168EB
:103A600040F0010041E80502002AF5D1206850E845
:103A7000050F216840F0400041E80502002AF5D119
:103A8000206B012815D1002000902068016800916A
:103A900040680090009800BF206850E8030F21683C
:103AA00040F0100041E80302002AF5D1002002B0E6
:103AB00070BD012002B070BDF0B581B041F678371D
:103AC000C2F200073A680C4605466AB9782006F04B
:103AD000E9FF78210646FCF7F1FC042086F8730024
:103AE0004FF0023070673E6041F68030C2F2000055
:103AF0002946224605F01CF941F24870C2F2000046
:103B00002946224601B0BDE8F04004F051BA000059
:103B100070470000B0B582B0044600680168C36811
:103B2000426901F02F05202D03F0200506D12DB1AB
:103B3000204602B0BDE8B04001F0C2B95FEA017CA6
:103B40001EBF02F0010E03F4907212EB0E023FD181
:103B5000226BCD0618D5012A16D113F0100213D00E
:103B60000021019101680191416801910199406929
:103B7000400635D4A08DE18DE28D002A18BF884221
:103B800040F0088102B0B0BD0A066ED513F0800285
:103B90006BD0616C2129F5D1A168B1F5805F03D1AB
:103BA0002169002900F02981216A4A1C22620978D2
:103BB0004160E18C01390A04E184E3D1C16821F05C
:103BC0008001C160C16841F04001C16002B0B0BD78
:103BD000C80718BF13F480705AD148075ED464E058
:103BE000E06B016849688AB2002ACBD0A38D9A4263
:103BF000C8D2E185C069B0F5807F2ED0206850E83A
:103C0000030F216820F4807041E80302002AF5D1F7
:103C1000206850E8050F216820F0010041E8050206
:103C2000002AF5D1206850E8050F216820F04000F7
:103C300041E80502002AF5D12020A064002020637D
:103C4000206850E8030F216820F0100041E80302CB
:103C5000002AF5D1E06BFDF7A5FC02206063A08D82
:103C6000E18D401A81B22046BCE049067FF58AAF5B
:103C700013F040013FF486AFC16821F04001C160FC
:103C800020212046616402B0BDE8B04000F006BBD0
:103C9000E06C40F00100E064480706D5BEF1000F7B
:103CA00003D0E06C40F00200E064880706D5BEF166
:103CB000000F03D0E06C40F00400E064BCF1000FA2
:103CC00006D55EEA050003D0E06C40F00800E06431
:103CD000E06C00283FF456AF880603D515B12046A6
:103CE00001F0EEF820684069E16C00F0400001F05E
:103CF0000801401847D000BF206850E8030F216832
:103D000020F4907041E80302002AF5D1206850E8C1
:103D1000050F216820F0010041E80502002AF5D1D5
:103D2000206B01280AD100BF206850E8030F2168EA
:103D300020F0100041E80302002AF5D12020A06401
:103D40000020206320684069400650D5206850E874
:103D5000050F216820F0400041E80502002AF5D156
:103D6000E06B002843D044F63951C0F600014165AC
:103D7000FDF754FC00283FF405AFE06B416D02B045
:103D8000BDE8B04008472046FFF7C2FE0020E064CF
:103D900002B0B0BD401A00BF216851E8031F22687D
:103DA00021F4907142E80313002BF5D1216851E80A
:103DB000051F226821F0010142E80513002BF5D10F
:103DC0002021A16400212163216851E8031F22689A
:103DD00021F0100142E80313002BF5D1022281B239
:103DE0002046626302B0BDE8B040FFF765BE2046E2
:103DF00002B0BDE8B040FFF78BBE216A31F8022B5C
:103E00006FF35F2242602162D3E60000002804BF06
:103E10000120704710B50446406C20B90020206492
:103E2000204600F01FF8242060642068C16821F457
:103E30000051C160204601F0A1F82068016921F419
:103E400090410161416921F02A014161C16841F459
:103E50000051C16000202021E0646164A1646063BE
:103E600010BD00002DE9F04F87B00446006844F60D
:103E70000001C4F2000100268842CDE90566CDE9C3
:103E80000366029600F0938041F20041C4F2010102
:103E9000884200F0F68041F20001C4F2010188423C
:103EA00040F05E81002743F630000197C4F2020023
:103EB0004169002541F0100141614169C4F20205E8
:103EC00001F01001019101990197016802AE41F0E2
:103ED00002010160016846F2280801F00201019127
:103EE0000199019701684FF0020941F00101016059
:103EF00000684FF0030A00F0010001900198802053
:103F000002904FF0070B05F580603146C4F20208BD
:103F1000CDE90397CDF814A0CDF818B0FDF74CFD0E
:103F20004FF40070CDE9020904A880E8800C28460F
:103F30003146FDF741FD42F6080508F59260C2F2F0
:103F400000054FF000664021C5E9000605F10800B4
:103F50004FF4806980E882022846C5E90577C5E903
:103F600007776F62FDF728FC002818BFFCF7ECFD0F
:103F7000A563EC6342F2A47508F58360C2F2000504
:103F800085E8C1002846C5E90379C5E90577C5E993
:103F900007776F62FDF710FC002818BFFCF7D4FD0F
:103FA000E563EC632520052100222524D3E043F6B8
:103FB00030000196C4F20200016946F2280841F47B
:103FC000802101610169C4F2020801F4802101919C
:103FD00001990196016841F004010160006802A99D
:103FE00000F00400019001984FF44060029002201C
:103FF000CDE9030603200590072006900020C4F2B7
:10400000020000F50060FDF7D7FC42F66C05C2F235
:1040100000054FF000674FF480692846C5E9008726
:10402000C5E90266C5E90496C5E90666C5E90866FC
:10403000FDF7C2FB002818BFFCF786FDE563EC63C3
:1040400042F6D00508F13000C2F200054021C5E972
:10405000000705F10800002280E806022846C5E9AD
:104060000522C5E907226A62FDF7A6FB002818BFF2
:10407000FCF76AFDA563EC632720042100222724B6
:1040800069E043F630000196C4F20200416946F24D
:10409000280841F0200141614169C4F2020801F0A1
:1040A0002001019101990196016841F040010160F0
:1040B000006802A900F04000019001984FF484408C
:1040C00002900220CDE90306032005900820069007
:1040D0000020C4F2020000F5C050FDF76DFC42F66E
:1040E000981508F58F60C2F200054FF02067402157
:1040F000C5E9000705F108004FF4806980E8420235
:104100002846C5E90566C5E907666E62FDF754FBFA
:10411000002818BFFCF718FDA563EC6342F63415C0
:1041200008F58060C2F20005C5E900072846C5E928
:104130000266C5E90496C5E90666C5E90866FDF7A5
:104140003BFB002818BFFCF7FFFCE563EC6347204E
:10415000002100224724FDF7B5FD2046FDF7A2FD12
:1041600007B0BDE8F08F000070B582B00446806CE7
:10417000202809D113460A4600294FF0010018BF34
:10418000002B04D102B070BD022002B070BD002629
:1041900022202663A262A385E664A064E06B44F655
:1041A000E15C44F661652168C0F6000CC0F60005CC
:1041B000C0E910C544F64555C0F600050431C0E914
:1041C0001456FDF795FB019620680168019140683F
:1041D00001900198206948B1206850E8030F2168D8
:1041E00040F4807041E80302002AF5D1206850E8CD
:1041F000050F216840F0010041E80502002AF5D1D1
:10420000206850E8050F216840F0400041E80502B1
:10421000002AF5D1002002B070BD000070470000F8
:1042200070470000B0B50446406C20281CBF022037
:10423000B0BD4FF0010081B3002A134608BFB0BDE6
:104240004FF0000C21202162A384E384C4F84CC009
:104250006064A06B44F6796E44F6B9652268C0F6D6
:10426000000EC0F60005C0E910E544F64555C0F65D
:1042700000050432C0E9145CFDF73AFB20686FF0DA
:1042800040010160206850E8050F216840F080007F
:1042900041E80502002AF5D10020B0BD70470000BA
:1042A00070470000FEE70000F0B58BB041F68030AB
:1042B000C2F2000004F07CFC42F23474C2F200044A
:1042C000012600250E2701A920460996CDE90155B2
:1042D000CDE90355CDE90555CDE907560A97FCF719
:1042E000DFFCCDE90155CDE90355CDE9075642F292
:1042F0006C75C2F2000501A92846CDE90567CDE934
:104300000967FCF7CDFC2046FDF714F92046022191
:10431000FCF768FC2846FDF70DF928461021FCF74C
:1043200061FC41F24870C2F2000003F00FFE43F25C
:104330001C00C2F20000FEF751FF42F6E464C2F234
:1043400000042046FEF7FCFE20460821FFF7A2FAF3
:1043500042F64C74C2F2000420460021FFF79AFA9C
:1043600020460421FFF796FA20460821FFF792FA2B
:1043700040F24020C2F2000006700BB0F0BD000019
:1043800080B542F2347046F20041C2F20000C4F23D
:1043900000010622002380E80E0000F10C014FF41A
:1043A000403C4FF4801E81E80850C0E90633C0E964
:1043B0000833C0E90A33FCF7A3FE002808BF80BD1C
:1043C000BDE88040FCF7C0BB80B542F26C7046F699
:1043D0000001C2F20000C4F200010622002380E8BE
:1043E0000E0000F10C014FF4403C4FF4801E81E8B8
:1043F0000850C0E90633C0E90833C0E90A33FCF7C6
:104400007FFE002808BF80BDBDE88040FCF79CBB54
:1044100080B582B0002043F630010190C4F2020161
:104420000A6842F480020A600A6802F4800201927B
:10443000019A00900868002240F4001008600868A3
:10444000052100F40010009000980C20FDF73AFCC4
:104450000C20FDF727FC0E2005210022FDF732FC81
:104460000E20FDF71FFC392005210022FDF72AFC54
:104470003920FDF717FC3A2005210022FDF722FC28
:104480003A20FDF70FFC452005210022FDF71AFC1C
:104490004520FDF707FC462005210022FDF712FC10
:1044A000462002B0BDE88040FDF7FCBB80B544F675
:1044B00001304DF64872C0F60000C0F6000200213F
:1044C00006F0B4FD42F24841C2F20001086040F635
:1044D000CD304DF69072C0F60000C0F6000200210B
:1044E00006F0A4FD42F25441C2F20001086040F619
:1044F00085104DF60C72C0F60000C0F600020021D7
:1045000006F094FD42F24441C2F20001086040F618
:1045100051304DF66C72C0F60000C0F6000200216A
:1045200006F084FD42F25041C2F20001086044F6F8
:1045300099204DF6D872C0F60000C0F600020021A6
:1045400006F074FD43F2EC61C2F20001086044F62B
:1045500095104DF6B472C0F60000C0F600020021BE
:1045600006F064FD43F2E461C2F20001086080BD20
:1045700081B0002143F630000091C4F202000268CD
:1045800042F002020260026802F002020092009A07
:104590000091026842F040020260026802F04002AC
:1045A0000092009A0091026842F0010202600268E3
:1045B00002F001020092009A0091026842F00802A3
:1045C0000260026802F008020092009A00910268FC
:1045D00042F004020260026802F004020092009AB3
:1045E0000091016841F080010160006800F08000E6
:1045F0000090009801B0704710B58AB042F6E460B0
:1046000040F600010024C2F20000C4F200014FF69F
:10461000FF730994CDE90744CDE90544CDE903448E
:10462000CDE90144A72280E81600C0E90334846183
:10463000FFF7F4F8002818BFFCF786FA42F6E460AA
:10464000C2F2000008A9CDE90844FEF7C5FC002825
:1046500018BFFCF779FA602001900020CDE9020034
:10466000059042F6E460C2F2000001A90822FEF7BC
:10467000CDFF002818BFFCF767FA42F6E460C2F2EB
:104680000000FEF771FF0AB010BD000010B58EB03B
:1046900042F64C7040F600420021C2F20000C4F223
:1046A00000024FF6FF730D91CDE90B11CDE9091111
:1046B000CDE90711CDE90511CDE90311CDE90111CE
:1046C000C0E90021C0E9021301618161FEF7DEFC4F
:1046D000002818BFFCF738FA4FF480500A9042F6D1
:1046E0004C70C2F200000AA9FEF7CAFD002818BFEC
:1046F000FCF72AFA42F64C70C2F20000FFF78EF87F
:10470000002818BFFCF720FA42F64C700024C2F2D1
:10471000000008A9CDE90844FEF75EFC002818BF98
:10472000FCF712FA6020019042F21070CDE9020409
:1047300042F64C70C2F2000001A900220594FEF777
:1047400065FF002818BFFCF7FFF942F64C70C2F273
:10475000000001A90422FEF759FF002818BFFCF74A
:10476000F3F942F64C70C2F2000001A90822FEF7EC
:104770004DFF002818BFFCF7E7F942F64C70C2F273
:104780000000FEF7F1FE0EB010BD000010B582B0C3
:1047900043F21C0041F200410024C2F20000C4F2C6
:1047A000000141F28733CDE90044532280E816002E
:1047B000C3608461FEF76AFC002818BFFCF7C4F9E7
:1047C00043F21C00C2F200006946CDE90044FEF746
:1047D00003FC002818BFFCF7B7F902B010BD0000B9
:1047E00080B543F2840041F20001C2F20000C4F23D
:1047F000010100234FF00C0C4FF4E12280E80E0081
:10480000C0E90333C0E905C3C361FFF7FFFA00281D
:1048100008BF80BDBDE88040FCF796B910B543F2F3
:10482000D40044F6000C48F2A062C2F20000C4F2C8
:10483000000CC0F201024FF4805300214FF4806E4F
:104840000C24C0E900C2C0E90231C0E904E4C0E9B7
:104850000611FFF7DBFA002808BF10BDBDE81040C5
:10486000FCF772B980B543F2241041F20041C2F264
:104870000000C4F2010100234FF00C0C4FF4E132B0
:1048800080E80E00C0E90333C0E905C3C361FFF748
:10489000BDFA002808BF80BDBDE88040FCF754B9D0
:1048A00080B542F2584040F20001C2F20000C2F26C
:1048B0000001002200F0AEFF002818BFFCF744F909
:1048C00042F2584040F25801C2F20000C2F2000128
:1048D00001F0F6F9002818BFFCF736F942F258400B
:1048E00040F2F401C2F20000C2F2000100F076FDD5
:1048F000002818BFFCF728F942F25840C2F2000025
:1049000001F00AFA002808BF80BDBDE88040FCF72E
:104910001BB90000FEE70000FEE7000042F6FC10B5
:10492000C2F20000FDF76CBB0000000000000000B8
:10493000EFF30980BFF36F8F154B1A681EF0100F4D
:1049400008BF20ED108A20E9F04F10602DE9090022
:104950004FF0500080F31188BFF34F8FBFF36F8F7C
:1049600007F0BEFA4FF0000080F31188BDE809009F
:1049700019680868B0E8F04F1EF0100F08BFB0ECDF
:10498000108A80F30988BFF36F8F704700BF00BFA4
:104990006C32002082B04DF64C60C0F6000000F191
:1049A00008084DF6AC60C0F6000041F2D06A42F251
:1049B000EC2500F1080900244FF0010BC2F2000AB7
:1049C000C2F200050DF1060604F0A0FC0746007BCC
:1049D000C0B9042006F066F8C0F8008038603820BE
:1049E00006F060F8C0F80090C0E90244C0E906444F
:1049F000C0E90A4480F834408480848284847860EA
:104A000087F80CB0BF683868416D384688479AF817
:104A10000000BFF35F8FC00713D03868416C384681
:104A20008847ADF806002846314603F065F902F0E4
:104A300005FB02F03FFA02F0CDF9052006F0B4FACA
:104A4000C2E7504606F0C6FF0028E6D0002029182D
:104A50002C521030B0F5807F4C608C60F7D15046FE
:104A600006F0CEFFD9E700000000000000000000C3
:104A7000074B19680868B0E8F04F80F30988BFF366
:104A80006F8F4FF0000080F31188704700BF00BFA8
:104A90006C320020000000009FED170B43F27418E9
:104AA00041F2DC6641F60047C2F2000855EC104BBB
:104AB000C2F20006C2F20007D8F8000008F0B8FF02
:104AC00022462B4608F0DCFA08F0A8FAC8F80000E5
:104AD000304602F073FF96F82D00002818BF012021
:104AE00087F8CC00384604F063FD012006F05CFA3C
:104AF000E2E700BF00BF00BFFCA9F1D24D62503F0A
:104B0000FFF7CEFE012006F04FFAFBE780B54EF22C
:104B10001000CEF20000006807F056FE012808BF22
:104B200080BDBDE8804007F0C3BA000070B592B008
:104B300006AC20463021FBF7C1FC002543F64000BF
:104B40000595CDE90355CDE901550095C4F2020064
:104B50000168022641F080510160006800F0805039
:104B60000090009847F200000095C4F20000016830
:104B700041F480410160006800F48040009000989A
:104B8000012006904FF4803007904FF480000D9084
:104B900006200E90A820CDE90F0607201190204690
:104BA0000C96FEF76BF810B172B600BFFEE70F204F
:104BB000CDE901064FF4A05004904FF480500590C9
:104BC00001A805210395FDF727FF10B172B600BFBC
:104BD000FEE712B070BD00004EF68850CEF2000025
:104BE000016841F4700101607047000042F6B47042
:104BF000C2F20000FEF712BC43F21C00C2F2000039
:104C0000FEF70CBC10B540F6FF3E0368C4F2000E80
:104C100040F2004C7045C4F2010C0FDCB0F1804F43
:104C200019D040F20042C4F20002904213D040F684
:104C30000002C4F2000290420DD010E040F60042A3
:104C4000C4F20002904206D0604504D00022C4F2B3
:104C50000102904203D14A6823F07003134341F6E6
:104C6000FF72C4F2000290420DDC70451FDCB0F10F
:104C7000804F41D040F20042C4F2000290423BD04B
:104C800040F6000221E043F6FF72C4F201029042B6
:104C900020DC42F20002C4F2000290422CD000223A
:104CA000C4F20102904227D0604525D028E040F6AA
:104CB0000042C4F2000290421ED041F60002C4F24B
:104CC0000002904218D041F60042C4F20002904225
:104CD00012D015E044F20002C4F2010290420BD05F
:104CE00044F60002C4F20102904205D044F20042B0
:104CF000C4F20102904203D1CA6823F44073134303
:104D000023F080024B69D1F800E08C681A430260FE
:104D1000C46240F48062C0F828E0624504BF0969BB
:104D20000163012141610169C90708BF10BD016923
:104D300021F00101016110BDC06B0021C185C1845A
:104D4000FEF7E6BEC06B01684969426C212A11D1A9
:104D500011F080010ED00021C18400BF016851E82C
:104D6000031F026821F0C00142E80313002BF5D1B4
:104D70002021416401684969826C222A2AD111F0FC
:104D8000400127D00021C185016851E8031F026856
:104D900021F4907142E80313002BF5D1016851E82A
:104DA000051F026821F0010142E80513002BF5D12F
:104DB000016B01290AD100BF016851E8031F026895
:104DC00021F0100142E80313002BF5D1202181646A
:104DD00000210163C16C41F01001C164FEF798BE6F
:104DE0000168C06B0968C90530D40021C18500BFC6
:104DF000016851E8031F026821F4807142E803133F
:104E0000002BF5D1016851E8051F026821F001016E
:104E100042E80513002BF5D1016851E8051F02682F
:104E200021F0400142E80513002BF5D120218164D7
:104E3000016B01290AD100BF016851E8031F026814
:104E400021F0100142E80313002BF5D1002141634A
:104E5000016B012918BFFFF7E1B9818DFEF72CBE68
:104E6000C06B01214163016B012918BFFFF7D8B95D
:104E7000818D4908FEF720BE0168C06B0968C9052D
:104E800048BFFFF70BBA0021C18400BF016851E899
:104E9000051F026821F0800142E80513002BF5D1BF
:104EA000016851E8031F026841F0400142E8031322
:104EB000002BF5D170470000C06BFFF7F1B900007F
:104EC000816C222918BF70478268B2F5805F01D1DA
:104ED000016991B1816AB2F5805F07D00AB90269B0
:104EE00022B10268526802F07F0201E00268526853
:104EF0000A70816A0131816207E00168826A49684B
:104F00006FF35F2122F8021B8262C18D01390A040E
:104F1000C18500D070470168CA6822F02002CA60CB
:104F2000CA6822F48072CA604A6922F001024A61AA
:104F30002021816400214163026B012A18BFFFF721
:104F40006DB981B0016300BF016851E8031F0268B9
:104F500021F0100142E80313002BF5D101680A6823
:104F6000D20606D5002200920A6800924968009194
:104F70000099818D01B0FEF79FBD000010B5044679
:104F80000068D4E902C22369016921F44051114348
:104F90000161626943EA0C01E3691143C268194384
:104FA00049F20C639A431143C1604169A26921F43B
:104FB000407141F20043114340F48062C4F20103A6
:104FC0009A42416102D1FDF711FE01E0FDF7FAFDC1
:104FD000E16963681922B1F5004FA0FB020120D1FD
:104FE0005A00DB0FFBF76EF948F21F51C5F2EB11C7
:104FF000A0FB01235A094FF69C73C0F6FF7303F11F
:10500000805302FB0300322303EBC000A0FB01012D
:105010004FF4F87000EA111000EB0210C1F34211D6
:105020001CE09A009B0FFBF74DF948F21F51C5F2A7
:10503000EB11A0FB01235A094FF69C73C0F6FF73D6
:1050400002FB0300322303EB0010A0FB0101F02060
:1050500000EA511000EB0210C1F34311084421682B
:10506000886010BD43F28400C2F20000FEF752BD1A
:1050700043F2D400C2F20000FEF74CBD43F224100C
:10508000C2F20000FEF746BD70B5D0F8D42200EBA6
:105090008202D2F8C03243B301F00F0E8C460EEB01
:1050A0008E0100EB810151F8184F5CB1D0F8C86255
:1050B0000EEBCE0506EB8506F669B4FBF6F505FBAF
:1050C0001646A6B10024C3F81442D2F8C402D0F8A0
:1050D00010E0BEF1000F06D0D3F8080203F504710A
:1050E0006246F0470024204670BD032070BD0024B6
:1050F0000C6061460022002300F0C6FD204670BD12
:10510000B0B50446D0F8D40204EB8000D0F8C05209
:1051100095B1204600F060FCD4F8D412C5F80C021A
:1051200004EB8101D1F8C412D5F80402CA6805F570
:10513000037190470020B0BD0320B0BD70B5812140
:10514000044600F08DFB002520460121258700F054
:1051500087FB20468221A4F8785100F081FBD4F827
:10516000D402E56404EB8000D0F8C01289B1D0F815
:10517000C40240688047D4F8D40204F5307656F86B
:10518000200001F047F8D4F8D40246F82050C4F8C3
:10519000BC52002070BD000010B5D0F8D41200EB56
:1051A0008100D0F8C04284B1D0F8C41259B194F84B
:1051B0000002FF2807D08B6894F801222146984707
:1051C000FF2084F80002002010BD032010BD000065
:1051D000014640F2D4000A22C2F200000A80704761
:1051E000F0B581B040F29007C2F20007044638469D
:1051F000822100F0B3FA06463846012100F0AEFAEB
:1052000005463846812100F0A9FA002E1CBF102166
:10521000B171002D1CBF4021A98000281CBF402176
:105220008180432140F29000C2F20000218001B051
:10523000F0BD0000F0B581B040F29007C2F2000767
:1052400004463846822100F089FA06463846012194
:1052500000F084FA05463846812100F07FFA002EDE
:105260001CBF1021B171002D1CBF4FF40071A9802B
:1052700000281CBF4FF400718180432140F2900050
:10528000C2F20000218001B0F0BD0000F0B581B095
:1052900040F29007C2F2000704463846822100F02F
:1052A0005DFA06463846012100F058FA05463846B0
:1052B000812100F053FA002E1CBF1021B171002D86
:1052C0001CBF4021A98000281CBF402181804321B0
:1052D00040F29000C2F20000218001B0F0BD000059
:1052E0002DE9F04104464FF4077000F095FF0028C7
:1052F00050D04FF407710546FBF7E0F8D4F8D4021C
:10530000402704EB8000C0F8C0522069C4F8BC52AA
:10531000002808BF4FF400772046812102223B4637
:10532000022600F0D3FB4FF00108204601210222A3
:105330003B46A4F8388000F0C9FB1020A4F84E00CA
:105340002046822103220823A4F8788100F0BEFBC6
:10535000D4F8D4020027C5F8047204EB8000D0F81A
:10536000C402A4F84C8000688047C5F81472C5F8E0
:105370001872D5F8042252B1206901210028204674
:1053800014BF40234FF4007300F0B2FB00263046F8
:10539000BDE8F081D4F8D402002104EB8000C0F80D
:1053A000C0120220BDE8F081D0F8D41200EB8101D8
:1053B000D1F8C012002904BF0320704780B5D0F88F
:1053C00010C0D1F8042240230121BCF1000F08BF16
:1053D0004FF4007300F08CFB002080BD00290FBF4C
:1053E0000320D0F8D42200EB8200C0F8C41218BF0A
:1053F00000207047D0F8D42200EB8200D0F8C00221
:1054000000280EBF0320C0F80412002070470000DF
:10541000D0F8D43200EB8300D0F8C00200280FBFD0
:105420000320C0F80812C0F81022002070470000C6
:1054300070B582B00446D0F8D4020D4604EB80006B
:10544000D0F8C0620021002E8DF80710ADF80410CE
:1054500057D0297811F0600215D0202A4DD1EA8862
:105460002AB349B2B1F1FF3F2ADD6878314686F8A8
:1054700000022046402A28BF402286F8012200F080
:1054800091F800263EE068780B2836D80026DFE841
:1054900000F006393434343434343434243094F85D
:1054A0009C02032829D101A9204602221DE0D0F840
:1054B000C40229468368687800220026984721E0C4
:1054C000D0F8C4023146836868789847EA88204655
:1054D000072A28BF0722314607E094F89C020328D8
:1054E0000BD10DF107012046012200F075F80026CE
:1054F00008E094F89C02032804D02046294600F0D6
:1055000045F80326304602B070BD0000D0F8D41232
:1055100000EB8101D1F8C022002A04BF03207047AC
:10552000D2F8141200294FF0010101D0084670474B
:1055300080B5C2F81412D2F81032D2F808228121B4
:10554000C36200F0A1FB0021BDE88040084670471F
:1055500080B5D0F8B82252689047002818BF0320C1
:1055600080BD0000002070470020704780B51346C2
:105570000A46002100F0BCFA002080BD80B5134629
:105580000A46002100F080FB002080BD10B580217C
:10559000044600F04BFB20460021BDE8104000F01F
:1055A00045BB000080B513460A460321C0F894129B
:1055B0000021C0E9563300F09BFA002080BD0000B6
:1055C00080B50521C0F8941200210022002300F0CC
:1055D0008FFA002080BD000080B513460A460221E4
:1055E000C0F894120021C0E9063300F04DFB002002
:1055F00080BD000080B50421C0F894120021002273
:10560000002300F041FB002080BD000010B540F2F7
:105610009024C2F200040A4602A0214600F0BAF823
:10562000204610BD43444320436F6E666967000007
:1056300040F2E0001222C2F200000A80704700002F
:1056400010B540F29024C2F200040A4602A021469E
:1056500000F0A0F8204610BD43444320496E746515
:10566000726661636500000040F208100422C2F215
:1056700000000A807047000010B540F29024C2F28A
:1056800000040A4602A0214600F084F8204610BD1E
:1056900053544D6963726F656C656374726F6E69A4
:1056A0006373000010B540F29024C2F200040A4671
:1056B00002A0214600F06EF8204610BD53544D3331
:1056C00032205669727475616C20436F6D506F7231
:1056D0007400000070B547F61020C1F6FF70026834
:1056E00083684FF01A0CD218A1F800C031D040687E
:1056F00040F20C1C6FF00101C2F2000C4FF0370EAB
:10570000002300BF0CEB01050EEB1276B2F1204F27
:1057100001F102014FEA127438BF04F130061201A0
:105720000E292E716B71EDD10CF1100104224FF096
:10573000370C00230CEB1075B0F1204F4FEA1076B8
:1057400038BF06F1300501F8025F0001013A4B70E5
:10575000F0D140F20C10C2F2000070BDB0F802C0EF
:1057600003789C459CBF0020704780B508E000BFCF
:1057700082788A4208BF80BD73449AB2624506D2DD
:1057800090F800E070444278052AF1D0F4E7002058
:1057900080BD0000002808BF704710B590F800C019
:1057A000BCF1000F15D0A0F1010E73469C780133B7
:1057B000002CFBD1BCF1000F0BD04FF0000C00BF50
:1057C0009EF802300CF1010C002B0EF1010EF7D106
:1057D00001E04FF0000C5FFA8CF3022404EB43036A
:1057E000138003220B704A7002787AB101380223C9
:1057F0004FF0000CDCB20A5544F0010201F802C07F
:1058000082780233002A00F10100F3D1BDE8104094
:1058100070470000002804BF032070470023C0F831
:10582000B832C0F8C4320029C0F8D03218BFC0F86E
:10583000B412012180F89C12027000F0D1B800006F
:1058400080B5D0F8C802FCF7EDFA03288FBF03201B
:105850004DF63071C0F6000151F8200080BD000007
:1058600080B5D0F8C802FCF7B5FA03288FBF032033
:105870004DF63071C0F6000151F8200080BD0000E7
:10588000B0B5044689B194F89C0203281CBF0020DF
:10589000B0BDD4F8B80242690020002A08BFB0BDEC
:1058A000C4F8D40220469047B0BDD4F89402022830
:1058B00036D1D4E9071081420DD90B1A2046114682
:1058C0001A46E361FFF75AFE20460021002200231A
:1058D00000F00EF924E00FD1A16981420CD3D4F875
:1058E0009802814208D22046002100220025FFF7BD
:1058F00045FEC4F89852E7E794F89C02032808D1C3
:10590000D4F8B802C16821B10020C4F8D4022046FE
:1059100088472046802100F089F92046FFF750FE95
:1059200094F8A00200284FF000001CBF84F8A002E9
:10593000B0BDB9E710B5044669B194F89C020328DC
:105940001ED1D4F8B80282690020D2B1C4F8D402C2
:105950002046904715E0D4F89402032825D1D4E9D5
:105960005703984211D9C01AC4F85C01984238BF55
:105970000346204611461A46FFF7F8FD002010BDE9
:105980000020002808BF002010BD94F89C020328C6
:1059900008D1D4F8B802016921B10020C4F8D402BA
:1059A000204688472046FFF725FE002010BD000056
:1059B00000207047012180F89C12D0F8B81200290D
:1059C00004BF0020704780B54A68017990470028DD
:1059D00018BF032080BD0000D0F8C802FCF754BAFD
:1059E000017809B10020704710B542F6FC11C2F2EF
:1059F0000001C1F8E404C0F8C8124FF0A0400860EC
:105A0000042008714FF40070C8800220C1F809001A
:105A10000020C8810846FCF7DFFE002818BFFBF70E
:105A200093F842F6FC14C2F2000420468021FCF7F1
:105A300087F9204600214022FCF786F92046012103
:105A40008022FCF781F9BDE810400020704700007B
:105A50004AB2D0F8C80201F07F0101EBC10100EBAE
:105A6000810000F25621002A48BF00F11601087893
:105A700070470000D0F8D42200EB8202D2F8B8229E
:105A8000002A04BF0320704790F89C32032B05D1F5
:105A9000126A1AB180B59047002080BD002070477F
:105AA000D0F8D42200EB8202D2F8B822002A04BF38
:105AB0000320704790F89C32032B05D1526A1AB12B
:105AC00080B59047002080BD0020704780B5944687
:105AD000D0F8C8021A466346FCF7E0F903288FBFE6
