:020000040800F2
:100000004073002045020008C1560008B1500008A6
:10001000BD560008AD0C0008D568000800000000BF
:10002000000000000000000000000000B1580008BF
:10003000490F00080000000041570008F958000867
:100040005F0200085F0200085F0200085F0200080C
:100050005F0200085F0200085F0200085F020008FC
:100060005F0200085F0200085F0200085F020008EC
:10007000490D00085F020008590D00085F020008E2
:100080005F0200085F0200085F0200085F020008CC
:10009000B10C0008C10C00085F0200085F020008F4
:1000A0005F0200085F0200085F0200085F020008AC
:1000B0005F0200085F0200085F0200085F0200089C
:1000C0005F0200085F0200085F0200085F0200088C
:1000D0005F020008A56800085F020008B568000814
:1000E0005F0200085F0200085F0200085F0200086C
:1000F0005F0200085F0200085F0200085F0200085C
:100100005F0200085F0200085F0200085F0200084B
:100110005F0200085F020008F1590008015A000858
:100120005F020008690D0008790D00085F020008F1
:100130005F0200085F0200085F0200085F0200081B
:10014000D10C0008E10C00085F0200085F02000803
:100150005F020008890D0008990D0008C5680008B5
:100160005F0200085F0200085F0200085F020008EB
:100170005F0200085F0200085F0200080000000044
:100180005F0200085F02000800F002F800F049F882
:100190000AA090E8000C82448344AAF10107DA45E2
:1001A00001D100F03EF8AFF2090EBAE80F0013F0EB
:1001B000010F18BFFB1A43F0010318477CAD010083
:1001C0009CAD0100103A24BF78C878C1FAD8520714
:1001D00024BF30C830C144BF04680C6070470000C1
:1001E0000023002400250026103A28BF78C1FBD840
:1001F000520728BF30C148BF0B6070471FB519F0C8
:1002000088FA9DE8030000F093FB00F019F88DE8F0
:100210000F0000F0AFF91FBD10B5002000F0BEFBCD
:1002200010BD00F08CFC1146FFF7E8FF15F03AF91D
:1002300000F0C6FC03B4FFF7EFFF03BC00F04EFB79
:1002400000F0D4BB0948804709480047FEE7FEE7B5
:10025000FEE7FEE7FEE7FEE7FEE7FEE7FEE7FEE776
:1002600004480549054A064B70470000DD5900085F
:1002700089010008406D002040730020406F00207D
:10028000406F002053EA020C00F069802DE9F04B2A
:100290004FF00006002B1FBFB3FA83F503FA05F4F5
:1002A00024FA05F65E4012BF1643B2FA82F502FA4E
:1002B00005F4C5F120051EBF22FA05FC44EA0C0432
:1002C000203556EA044C4FEA144418BF641C4FF022
:1002D00000084FF00009904271EB030C39D300295C
:1002E00019BFB1FA81F701FA07F6B0FA80F700FA00
:1002F00007F6C7F120071EBF20FA07FC46EA0C06E6
:100300002037B6FBF4FCA7EB0507103F07F01F0BE7
:10031000CBF120062CFA06F60CFA0BFB44BFB346D1
:100320000026202FA4BF5E464FF0000B5BEA060CB0
:1003300008BF4FF0010B19EB0B0948EB0608ABFBAC
:10034000027C06FB02CC0BFB03CCC01B71EB0C0147
:10035000C1E70B46024641464846BDE8F08B13B55F
:10036000084318BF4FF0FF300146AFF30080BDE8EF
:100370001C4070470B460146184600F0D3B910B533
:10038000431C02E010F8011B71B18107FAD14FF054
:10039000013202C88C1A8C4314EAC211F9D0C01A77
:1003A0000A0603D0C01E10BDC01A10BD0A0401D039
:1003B000801E10BD0902FCD0401E10BD032A40F271
:1003C000308010F0030C00F0158011F8013BBCF1F7
:1003D000020F624498BF11F801CB00F8013B38BF0F
:1003E00011F8013BA2F1040298BF00F801CB38BF1D
:1003F00000F8013B11F0030300F0AB81083AC0F0B4
:10040000088051F8043B083A51F804CBA0E80810E2
:10041000F5E7121D5CBF51F8043B40F8043BAFF315
:100420000080D20724BF11F8013B11F801CB48BF6F
:1004300011F8012B24BF00F8013B00F801CB48BFA5
:1004400000F8012B7047431A28BF9A427FF6B6AFD7
:1004500010441144032A40F2268010F0030F1EBFFF
:1004600011F8013D521E00F8013D10F0030F7FF41A
:10047000F6AF11F0030300F0B181083AC0F00B8031
:1004800051F8043D083A51F804CD40F8043D40F8D5
:1004900004CDFFF7F3BF121D5CBF51F8043D40F8D7
:1004A000043DAFF30080D20724BF11F8013D11F8DD
:1004B00001CD48BF11F8012C24BF00F8013D00F820
:1004C00001CD48BF00F8012C704702F0FF0343EA5A
:1004D000032242EA024200F024B84FF0000204294D
:1004E000C0F0128010F0030C00F01B80CCF1040C63
:1004F000BCF1020F18BF00F8012BA8BF20F8022B97
:10050000A1EB0C0100F00DB85FEAC17C24BF00F83C
:10051000012B00F8012B48BF00F8012B70474FF06A
:10052000000200B5134694469646203922BFA0E843
:100530000C50A0E80C50B1F12001BFF4F7AF09074F
:1005400028BFA0E80C5048BF0CC05DF804EB890040
:1005500028BF40F8042B08BF704748BF20F8022B83
:1005600011F0804F18BF00F8012B7047704770479B
:100570007047000070B5064C7C44064D7D4404E095
:100580002046016808448047241DAC42F8D170BD64
:10059000DCA90100FCA9010070B5064600F0A4F931
:1005A000056806F10B0020F00704B4429CBF002050
:1005B00070BD2B466A68BAB11068A04210D304F12E
:1005C000080188423CBF5068586007D35168101931
:1005D00041601168091B016058601460101D70BDF6
:1005E00013465268002AE7D12146284600F08CF9CC
:1005F0000028DED170BD70B50446051F00F074F907
:100600000068002C14BF446870BD002C18BFAC42B9
:100610003CBF20466468F8D301680A18AA4218BF94
:10062000456003D12A6805461144016028684119D4
:10063000A1421CBF6C6070BD61686960216808449C
:10064000286070BD2DE9F04791460C46804600F0C9
:100650004BF90768604234EA000001D1042C02D251
:100660000520BDE8F087601E40F0070609F10B0089
:1006700020F007054D459CBF0020BDE8F0873B46B4
:100680007A6882B31468101D404206EA000C644583
:1006900025D9A4EB0C00854221D8BCF1000F0BD06A
:1006A000104601686244A1EB0C0111604168516081
:1006B000C0F800C058600346116805F10800814287
:1006C00005D35019491B016015605860034652F864
:1006D000040F58600020C8F80020BDE8F0871346DA
:1006E0005268002ACED12946384600F00DF900287C
:1006F000C5D10620BDE8F08710B500F0FDF8006810
:1007000010BD10B5044600F0F7F8046010BD10B538
:10071000002000F064F9FFF77FFDBDE810400120E4
:1007200000F0DCB82DE9F041074615460E461020D2
:10073000FFF732FF04000AD06760C4E9026500F0E9
:10074000D7F80168216004600020BDE8F081012035
:10075000FBE710B5203AC0F00B80B1E81850A0E8D4
:100760001850B1E81850A0E81850203ABFF4F5AF7F
:100770005FEA027C24BFB1E81850A0E8185044BFDB
:1007800018C918C0BDE810405FEA827C24BF51F848
:10079000043B40F8043B08BF7047D20728BF31F83C
:1007A000023B48BF11F8012B28BF20F8023B48BF8D
:1007B00000F8012B7047431A28BF9A427FF6C9AF51
:1007C0001044114410F0030F1EBF11F8013D521EDA
:1007D00000F8013D10F0030F7FF4F6AF103AC0F0BF
:1007E0000A8010B531E9185020E91850103ABFF4CA
:1007F000F9AFBDE81040530724BF31E9081020E9E4
:10080000081044BF51F8043D40F8043D12F0030FB6
:1008100008BF7047D20728BF31F8023D48BF11F822
:10082000012C28BF20F8023D48BF00F8012C70477A
:1008300030B44FF0013C50F8042B51F8043BCCFA93
:1008400052F4D51A20D1FCB950F8042B51F8043BCE
:10085000CCFA52F4D51A17D1B4B950F8042B51F888
:10086000043BCCFA52F4D51A0ED16CB950F8042BD3
:1008700051F8043BCCFA52F4D51A05D1002CDAD049
:1008800030BC4FF00000704729BAB1FA81F111F085
:100890001801D1F120008440F2D1CA40CB4012F0BF
:1008A000FF0213F0FF0330BCD01A704780E8FF1F2F
:1008B000C0F834D0C0F838E0C0F83CE04FF0000099
:1008C000704700BF80EC200B704700BF80EC200B0E
:1008D000704700BFC0EC200B704700000149182092
:1008E000ABBEFEE72600020000487047480000202B
:1008F0000048704778000020004870474000002002
:10090000704770477047704738B504460A46002064
:100910006946AFF30080002808BF38BD0246009941
:10092000204600F033F9012038BD012000F06EB9F7
:10093000F8B5AFF30080054600200C46102000BF3C
:100940000646A819A0420DD9324669460020AFF3E9
:100950000080070008BF00F059F90098A04218BFB6
:100960000546C419FFF7C0FF05600746F01D20F0DB
:1009700007004619284600F00AF8B44208BFF8BD3F
:10098000A21B31463868BDE8F84000F0FFB80021EE
:100990000160C0E901107047102070472DE9F04157
:1009A0000646FFF7A5FF8046454613E016B1E0680E
:1009B000B0420ED120682860D4E90101D8F8007057
:1009C00088472046FFF717FED8F80000B842EBD161
:1009D00000E025462C68002CE8D1BDE8F08110B578
:1009E00000F0FCF8BDE8104000F0F3B82DE9FE4F30
:1009F00000274FF48074BA4620468DF80070FFF748
:100A0000CBFD5FEA000801D100F000F92146404625
:100A100000F083F8060009D04FF0010B4546C146AF
:100A200016F8014B8FB15C2C16D01CE008F10800C1
:100A30004146C8F800000020C8F80400D8F800407B
:100A40002070012003B0BDE8F08F222C01D0272CAC
:100A50000FD12746BA462CE03078222807D05C28F0
:100A600005D0272803D0BC4203D1002721E0761C03
:100A700004464CB12FB9202C06D0A4F1090004285B
:100A800002D905F8014BCBE74D4502D1BAF1000F71
:100A90000FD052464946002005F8010B6846AFF3D7
:100AA00000809DF8000068B14D464FF0000A0BF140
:100AB000010B002CB4D14FEA8B00FFF76DFD040051
:100AC00002D004E0A946F0E7002000F09FF80026DD
:100AD0004046C4F8008005E010F8011B11B9761CEF
:100AE00044F82600A842F7D32146002044F8260007
:100AF0003046A7E786469EE8FF1FDEF834D0DEF8D2
:100B00003CE0704790EC200B704700BF90EC200B4E
:100B1000704700BFD0EC200B70471CB50446CDE9F0
:100B2000000169461520ABBE08B100201CBD20465F
:100B30001CBD00000048704740000020704775460B
:100B4000FFF7F8FFAE4605006946534620F0070060
:100B5000854618B020B5FFF783FBBDE820404FF075
:100B600000064FF000074FF000084FF0000BAC46B6
:100B7000ACE8C009ACE8C009ACE8C009ACE8C00901
:100B800021F007018D467047704770470346406863
:100B90008C46002818BF88423CBF03464068F8D303
:100BA00018681844884207D00CF1030020F00700B1
:100BB000001D411A521A0146081D0A60FFF71BBDAD
:100BC00010B50446AFF300802046BDE81040FFF7A3
:100BD00031BB002801D0FFF781BE704710B500215E
:100BE00002A000F01AF8012010BD0000534947414F
:100BF0004252543A2041626E6F726D616C2074658E
:100C0000726D696E6174696F6E00000010B500F05E
:100C10001DF8BDE81040FFF7DCBF70B505460C4677
:100C20000A2000E06D1C00F039F835B12878002862
:100C3000F8D102E0641C00F031F814B120780028EB
:100C4000F8D1BDE870400A2000F028B810B501289E
:100C500005D0002103A0FFF7E0FF012010BD09A18E
:100C6000F8E7000053494752544D454D3A204F751F
:100C700074206F662068656170206D656D6F727994
:100C8000000000003A2048656170206D656D6F724C
:100C90007920636F727275707465640008B5694677
:100CA0008DF800000320ABBE08BD0000FFE7FEE7A3
:100CB00080B541F24840C2F2000000F063FC80BD04
:100CC00080B541F24840C2F2000000F05BFC80BDFC
:100CD00080B541F27040C2F2000000F053FC80BDCC
:100CE00080B541F27040C2F2000000F04BFC80BDC4
:100CF00080B584B003904FF4FA7014F003FC42F214
:100D00007461C2F200010290084607F001F9FFE7A2
:100D100042F27460C2F2000007F024FB022014F0DB
:100D2000F1FB0190F4E7000080B582B00190FFE78D
:100D300040F25410C2F2000006F0AEFA0A2014F09D
:100D4000E1FB0090F4E7000080B541F25850C2F298
:100D5000000001F0D3F980BD80B541F2B850C2F275
:100D6000000001F0CBF980BD80B541F21860C2F2FD
:100D7000000001F0C3F980BD80B541F29840C2F295
:100D8000000001F0BBF980BD80B541F27860C2F28D
:100D9000000001F0B3F980BD80B541F2F840C2F225
:100DA000000001F0ABF980BD82B00190019800789D
:100DB00010384AF6AB21CAF6AA21A0FB01010909A5
:100DC0000091009949F6FC52C0F60102515C019A6B
:100DD000D1650099042907D3FFE70198016804222F
:100DE00062F30901816506E00198016840F2FF3273
:100DF00091438165FFE70198806D02B07047000064
:100E000086B0059000208DF813000598806A039045
:100E100005988069002823D1FFE7039803280290F2
:100E20001CD80299DFE801F0020E0219059890F82B
:100E30002F00C007002804D0FFE701208DF8130021
:100E4000FFE70CE00598C06AB0F1C07F04D1FFE76E
:100E500001208DF81300FFE701E000E0FFE747E025
:100E600005988069B0F5005F26D1FFE70398032855
:100E700001901FD80199DFE801F00206021201205B
:100E80008DF8130017E0059890F82F00C007002890
:100E900004D0FFE701208DF81300FFE70BE0059871
:100EA000C06AB0F1C07F04D1FFE701208DF81300C4
:100EB000FFE700E0FFE71AE003980328009004D35F
:100EC000FFE70098032804D00FE001208DF81300FD
:100ED0000CE0059890F82F00C007002804D0FFE729
:100EE00001208DF81300FFE700E0FFE7FFE7FFE7D1
:100EF0009DF8130006B0704784B0039002910192F0
:100F0000009303980068016821F480210160009833
:100F100003990968486003988068402809D1FFE771
:100F20000198039909688860029803990968C86064
:100F300008E0029803990968886001980399096894
:100F4000C860FFE704B070477047000080B540F20A
:100F50003410C2F200000DF0F9FF80BD72B6FFE759
:100F6000FEE7000080B582B001904FF4FA7014F0F3
:100F7000C9FAFFE740F23410C2F200000DF08AFF18
:100F8000012014F0BFFA0090F4E7000084B0029052
:100F90000191029890F820008DF803009DF803005D
:100FA000012805D0FFE79DF8030002280AD1FFE7DA
:100FB0000198029909684A691043486100208DF838
:100FC0000F0008E00298416A41F48021416201204B
:100FD0008DF80F00FFE79DF80F0004B07047000088
:100FE00088B00690059104920393069890F820002B
:100FF0008DF8070006980068806800900598806862
:10100000002801D1FFE700E0FFE79DF80700012875
:1010100006D0FFE79DF80700022840F08280FFE736
:101020009DF80300400700280CD4FFE79DF803005B
:101030000007002806D4FFE79DF80300C00600283B
:1010400066D5FFE70098C0F3016002900298012185
:1010500001FA00F0039908600598806800280DD116
:10106000FFE705980168C06840EA415006990968A1
:10107000029A01EB0211C1F880010EE00598416867
:101080008268C06842EAC101084306990968029A69
:1010900001EB0211C1F88001FFE70598006906998C
:1010A0000968029A01EB0211C1F884010598007DDC
:1010B00001280CD1FFE706980068029900EB0110A7
:1010C000D0F8841141F48071C0F88411FFE70498CE
:1010D000406806990968029A01EB0211C1F88C0177
:1010E0000498006806990968029A01EB0211C1F898
:1010F000880106980068029900EB0110D0F8801171
:1011000041F00101C0F8801100208DF81F0011E0AE
:101110000698416A41F40011416201208DF81F00D8
:1011200008E00698416A41F48021416201208DF86F
:101130001F00FFE79DF81F0008B0704786B00490BD
:101140000391049800680190049890F820008DF8AD
:1011500003009DF80300012806D0FFE79DF8030077
:10116000022840F0B880FFE746F20040C4F20000D9
:1011700001900198D0F8001241F00101C0F800126E
:101180000198D0F8001221F47C51C0F800120398A5
:10119000406A0199D1F8002242EA0020C1F8000219
:1011A0000398406900F01F00012101FA00F002904D
:1011B00002980199D1F81C2222EA0000C1F81C0211
:1011C0000398C06900281FD1FFE702980199D1F860
:1011D0000C2222EA0000C1F80C0203988188C26840
:1011E000406941EA0241019A02EBC000C0F8401296
:1011F000039801888268406941EA0241019A02EB42
:10120000C000C0F84412FFE70398C06901281ED14E
:10121000FFE702980199D1F80C221043C1F80C02A3
:10122000039881880268406941EA0241019A02EB11
:10123000C000C0F84012039881898268406941EA81
:101240000241019A02EBC000C0F84412FFE7039884
:101250008069002809D1FFE702980199D1F804229A
:1012600022EA0000C1F8040207E002980199D1F8CF
:1012700004221043C1F80402FFE703980069002824
:1012800009D1FFE702980199D1F8142222EA00005F
:10129000C1F8140207E002980199D1F81422104312
:1012A000C1F81402FFE70398006A012808D1FFE79C
:1012B00002980199D1F81C221043C1F81C02FFE7E3
:1012C0000198D0F8001221F00101C0F800120020AE
:1012D0008DF8170008E00498416A41F480214162CA
:1012E00001208DF81700FFE79DF8170006B0704742
:1012F00081B0009001B0704786B0049003910292D3
:101300000193049890F820008DF803009DF80300E5
:10131000012806D0FFE79DF80300022840F0ED8089
:10132000FFE70398002811D1FFE704980068C06820
:101330008007002809D1FFE70498416A41F40011B1
:10134000416201208DF81700E0E010E00498006889
:1013500000698007002809D1FFE70498416A41F439
:101360000011416201208DF81700CFE0FFE70498DB
:101370000068039900EB0110D0F8B00100F0040000
:10138000029988600298806800280BD1FFE70498D2
:101390000068039900EB0110D0F8B001400D0299EC
:1013A00008600AE004980068039900EB0110D0F887
:1013B000B001C00802994860FFE7049800680399EB
:1013C00000EB0110D0F8B00100F002000299C860F3
:1013D00004980068039900EB0110D0F8B40100F004
:1013E0000F00082804D3FFE70298082101610BE0F1
:1013F00004980068039900EB0110D0F8B40100F0E4
:101400000F0002990861FFE704980068039900EB58
:101410000110D0F8B40180B2000A029988610498E2
:101420000068039900EB0110D0F8B401000C029998
:10143000486104980068039900EB0110D0F8B801E6
:101440000199087004980068039900EB0110D0F826
:10145000B801000A0199487004980068039900EBEC
:101460000110D0F8B801000C019988700498006848
:10147000039900EB0110D0F8B801000E0199C87073
:1014800004980068039900EB0110D0F8BC010199A1
:10149000087104980068039900EB0110D0F8BC01B2
:1014A000000A0199487104980068039900EB011043
:1014B000D0F8BC01000C0199887104980068039968
:1014C00000EB0110D0F8BC01000E0199C87103981F
:1014D000002807D1FFE704980068C16841F02001A7
:1014E000C16006E004980068016941F020010161D3
:1014F000FFE700208DF8170008E00498416A41F4E6
:101500008021416201208DF81700FFE79DF8170048
:1015100006B0704783B0029000200190029890F8C6
:1015200020008DF803009DF80300012805D0FFE797
:101530009DF80300022822D1FFE702980068806826
:101540004001002804D5FFE7019801300190FFE732
:101550000298006880680001002804D5FFE7019820
:1015600001300190FFE7029800688068C000002801
:1015700004D5FFE7019801300190FFE7FFE70198EC
:1015800003B0704780B58AB0099000200890099890
:1015900000684069079009980068406806900998BB
:1015A00000688068059009980068C06804900998F0
:1015B00000680069039009980068806902909DF8AE
:1015C0001C00C007002800F09780FFE79DF814007A
:1015D000C00700282BD0FFE709980068012181602F
:1015E0009DF814008007002804D5FFE7099800F053
:1015F000D1FC1BE09DF814004007002805D5FFE74B
:10160000089840F4006008900FE09DF8140000076F
:10161000002805D5FFE7089840F48050089003E0C3
:10162000099800F0B3FCFFE7FFE7FFE7FFE79DF84D
:101630001500C00700282CD0FFE7099800684FF478
:10164000807181609DF815008007002804D5FFE7B0
:10165000099800F0A7FC1BE09DF815004007002842
:1016600005D5FFE7089840F4005008900FE09DF87A
:1016700015000007002805D5FFE7089840F48040D2
:10168000089003E0099800F089FCFFE7FFE7FFE717
:10169000FFE79DF81600C00700282CD0FFE7099847
:1016A00000684FF4803181609DF8160080070028A3
:1016B00004D5FFE7099800F07DFC1BE09DF81600BB
:1016C0004007002805D5FFE7089840F4004008903F
:1016D0000FE09DF816000007002805D5FFE70898E1
:1016E00040F48030089003E0099800F05FFCFFE7C9
:1016F000FFE7FFE7FFE7FFE79DF81C000007002872
:1017000010D5FFE79DF81000C006002809D5FFE7B7
:10171000089840F400700890099800681021C16092
:10172000FFE7FFE79DF81C00400700280FD5FFE703
:101730009DF810000007002808D5FFE70998006809
:101740000821C160099800F0E9FAFFE7FFE79DF87A
:101750001C00800700280CD5FFE709980068C068C6
:101760008007002804D0FFE7099800F0DBFAFFE7C4
:10177000FFE79DF81C004006002810D5FFE79DF804
:101780000C00C006002809D5FFE7089840F48060E7
:1017900008900998006810210161FFE7FFE79DF8B4
:1017A0001C00800600280FD5FFE79DF80C000007FD
:1017B000002808D5FFE70998006808210161099809
:1017C00000F092FBFFE7FFE79DF81C00C006002831
:1017D0000CD5FFE70998006800698007002804D04D
:1017E000FFE7099800F084FBFFE7FFE79DF81E0084
:1017F000800700280FD5FFE79DF81800C0060028D5
:1018000008D5FFE70998006810214160099800F0A9
:1018100073FBFFE7FFE79DF81E00C00700280FD00D
:10182000FFE79DF818000007002808D5FFE7099892
:10183000006808214160099800F0C0FBFFE7FFE75E
:101840009DF81D000006002840F18F80FFE79DF8FD
:1018500018004007002840F18380FFE79DF81D0035
:10186000C00700280BD0FFE79DF80800C00700283C
:1018700005D0FFE7089840F001000890FFE79DF8C9
:101880001D00800700280BD5FFE79DF808008007A2
:10189000002805D5FFE7089840F002000890FFE710
:1018A0009DF81D00400700280BD5FFE79DF80800B4
:1018B0004007002805D5FFE7089840F0040008908D
:1018C000FFE79DF81D000007002848D5FFE79DF8B9
:1018D000080010F0700F42D0FFE7029800F070008F
:1018E00001461028019114D0FFE70198202815D057
:1018F000FFE70198302816D0FFE70198402817D05D
:10190000FFE70198502818D0FFE70198602819D008
:101910001DE0089840F00800089019E0089840F091
:101920001000089014E0089840F0200008900FE0A4
:10193000089840F0400008900AE0089840F08000C5
:10194000089005E0089840F48070089000E0FFE7F8
:1019500009980068816921F070018161FFE7FFE764
:101960000998006804214160FFE70898002809D021
:10197000FFE7089809994A6A104348620998FFF7F7
:10198000B7FCFFE70AB080BD80B584B00290029832
:10199000002804D1FFE701208DF80F00E2E0029853
:1019A00090F82000002804D1FFE7029800F0DEF84C
:1019B000FFE702980068016841F00101016001F051
:1019C00041F80190FFE7029800684068C0070028CE
:1019D00015D1FFE701F036F80199401A0B280DD315
:1019E000FFE70298416A41F4003141620298052103
:1019F00080F8201001208DF80F00B3E0E3E7029893
:101A00000068016821F00201016001F01BF80190FB
:101A1000FFE70298006840688007002815D5FFE7B7
:101A200001F010F80199401A0B280DD3FFE7029836
:101A3000416A41F4003141620298052180F820108A
:101A400001208DF80F008DE0E3E70298007E012869
:101A500007D1FFE702980068016841F0800101604A
:101A600006E002980068016821F080010160FFE74C
:101A70000298407E012807D1FFE7029800680168BC
:101A800041F04001016006E002980068016821F021
:101A900040010160FFE70298807E012807D1FFE73F
:101AA00002980068016841F02001016006E0029898
:101AB0000068016821F020010160FFE70298C07E04
:101AC000012807D1FFE702980068016821F01001A2
:101AD000016006E002980068016841F010010160B1
:101AE000FFE70298007F012807D1FFE7029800680E
:101AF000016841F00801016006E002980068016891
:101B000021F008010160FFE70298407F012807D11A
:101B1000FFE702980068016841F00401016006E0F7
:101B200002980068016821F004010160FFE7029853
:101B3000016842688368D0F80CC043EA0C03D0F80F
:101B400010C043EA0C0340691843013A1043C861CE
:101B50000298002141620298012280F820208DF82D
:101B60000F10FFE79DF80F0004B080BD80B592B064
:101B70001190002010900F900E900D900C901198E5
:101B8000006846F20041C4F20001884253D1FFE7E9
:101B900040F28C10C2F2000001680131016000685F
:101BA000012812D1FFE7FFE700200B9043F6400029
:101BB000C4F20200016841F000710160006800F0A9
:101BC00000700B900B98FFE7FFE7FFE700200A90FB
:101BD00043F63000C4F20200016841F008010160E0
:101BE000006800F008000A900A98FFE703200C90B4
:101BF00002210D9100210E910F900920109040F6C6
:101C00000040C4F202000CAA0691114600F038FD13
:101C1000142005900699069A00F0FCFF059800F044
:101C2000EDFF152005210490069A00F0F3FF0498BB
:101C300000F0E4FF70E01198006846F60001C4F27D
:101C40000001884267D1FFE7FFE70020099043F6D3
:101C50004000C4F20200016841F080610160006848
:101C600000F0806009900998FFE740F28C10C2F202
:101C700000000168013101600068012812D1FFE70E
:101C8000FFE70020089043F64000C4F2020001681C
:101C900041F000710160006800F000700890089841
:101CA000FFE7FFE7FFE70020079043F63000C4F2AC
:101CB0000200016841F002010160006800F00200CA
:101CC00007900798FFE760200C9002200D900020FD
:101CD0000E9003210F910921109140F20041C4F2AE
:101CE00002010CAA03900846114600F0C9FC4020EE
:101CF000052102900191039A00F08CFF029800F0F8
:101D00007DFF412000900199039A00F083FF009825
:101D100000F074FFFFE7FFE712B080BD81B00090D4
:101D200001B07047F0B5A7B02690269840F28C52CB
:101D3000C2F2000240F2A853C2F200030021FFF7F2
:101D4000DBFA269941F24842C2F20002914260D188
:101D5000FFE740F28C50C2F20000016842688368DD
:101D6000D0F80CC0D0F810E044692494CDF88CE091
:101D7000CDF888C0219320921F91816925911F99E8
:101D8000209A219BDDF888C0DDF88CE0249C259DFD
:101D900040F2A856C2F200066F463E61FD60BC608C
:101DA000C7F804E0C7F800C040F2502CC2F2000CA3
:101DB0000990604608960FF0BDFA099801684268DC
:101DC0008368D0F80CC0D0F810E044691D94CDF8B9
:101DD00070E0CDF86CC01A931992189181691E9128
:101DE0001899199A1A9BDDF86CC0DDF870E01D9CFB
:101DF0001E9D6E46089F3761F560B460C6F804E02A
:101E0000C6F800C040F28820C2F200000FF092FA3B
:101E1000FFE7269841F27041C2F20001884260D18A
:101E2000FFE740F28C50C2F200000168426883680C
:101E3000D0F80CC0D0F810E044691694CDF854E006
:101E4000CDF850C013931292119181691791119995
:101E5000129A139BDDF850C0DDF854E0169C179DD4
:101E600040F2A856C2F200066F463E61FD60BC60BB
:101E7000C7F804E0C7F800C041F2E40CC2F2000C5D
:101E80000790604606960CF093FA0798016842683E
:101E90008368D0F80CC0D0F810E044690F94CDF8F6
:101EA00038E0CDF834C00C930B920A9181691091FF
:101EB0000A990B9A0C9BDDF834C0DDF838E00F9CD2
:101EC000109D6E46069F3761F560B460C6F804E069
:101ED000C6F800C041F2C010C2F200000CF040FE93
:101EE000FFE727B0F0BD000081B0009001B070475F
:101EF00081B0009001B0704781B0009001B0704790
:101F000080B584B00290029890F82000012830D16A
:101F1000FFE70298022180F820100298006801680B
:101F200021F00101016000F08DFD0190FFE70298B2
:101F300000684068C007002815D0FFE700F082FD68
:101F40000199401A0B280DD3FFE70298416A41F42A
:101F5000003141620298052180F8201001208DF89F
:101F60000F000FE0E3E70298002141628DF80F10A7
:101F700008E00298416A41F40021416201208DF895
:101F80000F00FFE79DF80F0004B080BD81B0009006
:101F900001B0704781B0009001B0704781B00090EF
:101FA00001B0704781B0009001B0704781B00090DF
:101FB00001B0704781B0009001B0704781B00090CF
:101FC00001B0704780B584B002900298806D019096
:101FD00000F038FD0090029890F8350002280DD0EE
:101FE000FFE7029880214165FFE70298002180F811
:101FF0003410FFE701208DF80F0059E002980068C7
:10200000016821F01601016002980068416921F021
:10201000800141610298006C002805D1FFE7029819
:10202000806C002807D0FFE702980068016821F063
:1020300008010160FFE702980068016821F00101D2
:102040000160FFE7029800680068C007002819D007
:10205000FFE700F0F7FC0099401A062811D3FFE7CC
:102060000298202141650298032180F83510FFE78E
:102070000298002180F83410FFE703208DF80F004C
:1020800016E0DFE70298C06D3F2101FA00F00199E8
:1020900088600298012180F83510FFE7029800213E
:1020A00080F83410FFE7FFE700208DF80F00FFE70E
:1020B0009DF80F0004B080BD82B00090009890F8A9
:1020C0003500022807D0FFE70098802141650120F4
:1020D0008DF807000EE00098052180F83510009873
:1020E0000068016821F001010160FFE700208DF820
:1020F0000700FFE79DF8070002B0704780B586B083
:1021000005900020039040F21400C2F20000006825
:1021100048F2B511C1F64E31A0FB0101890A0291C6
:102120000599896D01910199096804910499059AAD
:10213000D26DD140090700291BD5FFE7059800683B
:1021400000684007002813D5FFE70598006801687C
:1021500021F0040101600598C06D082101FA00F02A
:10216000019988600598416D41F001014165FFE7E3
:10217000FFE704980599C96DC840C007002815D02D
:10218000FFE7059800684069000600280DD5FFE7C5
:102190000598C06D012101FA00F001998860059849
:1021A000416D41F002014165FFE7FFE704980599A1
:1021B000C96DC8404007002815D5FFE7059800689D
:1021C0000068800700280DD5FFE70598C06D042141
:1021D00001FA00F0019988600598416D41F0040111
:1021E0004165FFE7FFE704980599C96DC840C0063F
:1021F00000284BD5FFE70598006800680007002815
:1022000043D5FFE70598C06D102101FA00F0019950
:102210008860059800680068400300281CD5FFE727
:10222000059800680068000300280AD4FFE70598B5
:10223000006C002804D0FFE70598016C8847FFE791
:1022400009E00598806C002804D0FFE70598816CB0
:102250008847FFE7FFE717E0059800680068C005BA
:10226000002807D4FFE705980068016821F00801FD
:102270000160FFE70598006C002804D0FFE705988F
:10228000016C8847FFE7FFE7FFE7FFE70498059940
:10229000C96DC8408006002840F19580FFE7059889
:1022A00000680068C006002840F18C80FFE70598B0
:1022B000C06D202101FA00F001998860059890F81E
:1022C0003500052838D1FFE705980068016821F03E
:1022D0001601016005980068416921F080014161A3
:1022E0000598006C002805D1FFE70598806C002850
:1022F00007D0FFE705980068016821F00801016038
:10230000FFE70598C06D3F2101FA00F00199886050
:102310000598012180F83510FFE70598002180F825
:102320003410FFE70598006D002804D0FFE70598FA
:10233000016D8847FFE781E0059800680068400369
:1023400000281CD5FFE705980068006800030028F6
:102350000AD4FFE70598406C002804D0FFE70598F1
:10236000416C8847FFE709E00598C06B002804D05E
:10237000FFE70598C16B8847FFE7FFE721E0059875
:1023800000680068C005002811D4FFE705980068C0
:10239000016821F0100101600598012180F83510D5
:1023A000FFE70598002180F83410FFE7FFE7059864
:1023B000C06B002804D0FFE70598C16B8847FFE792
:1023C000FFE7FFE7FFE70598406D002836D0FFE7FD
:1023D0000598406DC007002826D0FFE70598052125
:1023E00080F8351005980068016821F0010101604E
:1023F000FFE70398013003900299884201D9FFE773
:1024000007E0FFE7059800680068C0070028F0D1E2
:10241000FFE70598012180F83510FFE705980021B6
:1024200080F83410FFE7FFE70598C06C002804D05F
:10243000FFE70598C16C8847FFE7FFE706B080BD5E
:1024400080B586B004900020039000F0FBFA029063
:102450000498002804D1FFE701208DF81700A7E0B9
:102460000498406A002801D0FFE7FFE704980221A2
:1024700080F83510FFE70498002180F83410FFE75A
:1024800004980068016821F001010160FFE70498E9
:1024900000680068C007002812D0FFE700F0D2FAF9
:1024A0000299401A06280AD3FFE7049820214165C3
:1024B0000498032180F835108DF8171078E0E6E7CE
:1024C0000498006800680390039848F23F01CFF237
:1024D000100108400390049841688268C368D0F8EE
:1024E00010C01143194341EA0C014269114382694A
:1024F0001143C2691143006A0843039908430390DA
:102500000498406A042808D1FFE70498C16A006B68
:102510000843039908430390FFE703980499096867
:1025200008600498006840690390039820F0070051
:1025300003900498406A0399084303900498406A02
:1025400004281CD1FFE70498806A0399084303908C
:102550000498C06A002811D0FFE70498FEF750FCE9
:1025600000280AD0FFE70498402141650498012122
:1025700080F835108DF817101AE0FFE7FFE7039891
:102580000499096848610498FEF70EFC01900498CC
:10259000C06D3F2101FA00F0019988600498002184
:1025A00041650498012280F835208DF81710FFE767
:1025B0009DF8170006B080BD80B588B006900591E3
:1025C0000492039300208DF80B000698806D019013
:1025D000FFE7069890F83400012804D1FFE70220B5
:1025E0008DF81F0047E00698012180F83410FFE7BE
:1025F000FFE7069890F8350001282DD1FFE70698EF
:10260000022180F835100698002141650698059949
:10261000049A039BFEF770FC0698C06D3F2101FAF7
:1026200000F00199886006980068016841F0160181
:1026300001600698006C002807D0FFE70698006844
:10264000016841F008010160FFE706980068016831
:1026500041F00101016009E0FFE70698002180F8E0
:102660003410FFE702208DF80B00FFE79DF80B0008
:102670008DF81F00FFE79DF81F0008B080BD000027
:102680008EB00D900C9100200A90099008900B904C
:10269000FFE70B980F2800F2D281FFE70B9801218A
:1026A00001FA00F00A900C9800680A990840099015
:1026B00009980A99884240F0BD81FFE70C9840686C
:1026C00000F00300012807D0FFE70C98406800F0F5
:1026D000030002282FD1FFE70D98806808900B981F
:1026E0004000032101FA00F0089921EA0000089057
:1026F0000C98C0680B9949008840089908430890D5
:1027000008980D9988600D98406808900B980121F1
:1027100001FA00F0089921EA000008900C9840683E
:10272000C0F300100B998840089908430890089856
:102730000D994860FFE70C98406800F003000328FB
:1027400018D0FFE70D98C06808900B98400003214F
:1027500001FA00F0089921EA000008900C988068BE
:102760000B994900884008990843089008980D99EA
:10277000C860FFE70C98406800F00300022826D1EB
:10278000FFE70D980B996FF0030202EA510108442C
:10279000006A08900B9800F0070080000F2101FAF2
:1027A00000F0089921EA000008900C9800690B9944
:1027B00001F00701890088400899084308900898AB
:1027C0000D990B9B02EA530211440862FFE70D9832
:1027D000006808900B984000032101FA00F0089966
:1027E00021EA000008900C98406800F003000B9963
:1027F0004900884008990843089008980D99086096
:102800000C9880798007002800F01381FFE7FFE72C
:102810000020079043F64400C4F20200016841F42E
:1028200080410160006800F4804007900798FFE74E
:102830000B9820F0030043F60801C4F20101405850
:1028400008900B9800F0030080000F2101FA00F0BF
:10285000089921EA000008900D980021C4F20201B5
:10286000884203D1FFE7002006905EE00D9840F219
:102870000041C4F20201884203D1FFE70120059024
:1028800050E00D9840F60001C4F20201884203D1E5
:10289000FFE70220049042E00D9840F60041C4F2A8
:1028A0000201884203D1FFE70320039034E00D9832
:1028B00041F20001C4F20201884203D1FFE7042083
:1028C000029026E00D9841F20041C4F202018842D4
:1028D00003D1FFE70520019018E00D9841F60001B3
:1028E000C4F20201884203D1FFE7062000900AE00B
:1028F0000D9841F60041C4F202010822884208BF47
:1029000007220092FFE700980190FFE701980290EC
:10291000FFE702980390FFE703980490FFE704980D
:102920000590FFE705980690FFE70698C0B20B995F
:1029300001F003018900884008990843089008982D
:102940000B9921F0030143F60802C4F201028850FA
:1029500043F60840C4F201000068089009980899FD
:1029600021EA000008900C988079C006002805D55F
:10297000FFE70998089908430890FFE7089843F68D
:102980000841C4F20101086043F60C40C4F20100A2
:10299000006808900998089921EA000008900C98AE
:1029A00080798006002805D5FFE709980899084333
:1029B0000890FFE7089843F60C41C4F20101086053
:1029C00043F60440C4F20100006808900998089991
:1029D00021EA000008900C9880798007002805D52E
:1029E000FFE70998089908430890FFE7089843F61D
:1029F0000441C4F20101086043F60040C4F2010042
:102A0000006808900998089921EA000008900C983D
:102A10008079C007002805D0FFE709980899084386
:102A20000890FFE7089843F60041C4F201010860EE
:102A3000FFE7FFE7FFE70B9801300B9029E60EB0A8
:102A40007047000046F25C50C2F200000068704718
:102A500040F23000C2F20000007846F25C51C2F24F
:102A600000010A68104408607047000080B582B019
:102A700043F60040C4F20200016841F400710160B5
:102A8000016841F480610160016841F48071016076
:102A9000032000F0DFF80F2000F006F8019000F0AE
:102AA00081F8002002B080BD80B58EB00D9000206E
:102AB00006900590FFE70020029043F64000C4F224
:102AC0000200016841F010010160006800F0100090
:102AD00002900298FFE708A804A900F0F5F90B9806
:102AE00006900698002804D1FFE700F01DFA079031
:102AF00004E000F019FA40000790FFE707984DF650
:102B00008361C4F21B31A0FB01014FF0FF3202EBE5
:102B10009141059141F26871C2F2000141F2000257
:102B2000C4F200020A6040F2E732CA60059A4A60C5
:102B300000220A618A608A610190084600F08CFEDA
:102B40008DF80F009DF80F00002826D1FFE741F215
:102B50006870C2F2000000F08FFF8DF80F009DF842
:102B60000F00002818D1FFE7362000F047F80D9835
:102B70000F280CD8FFE70D993620002200F04AF804
:102B80000D9840F23401C2F20001086003E0012018
:102B90008DF80F00FFE7FFE7FFE79DF80F000EB08D
:102BA00080BD000080B582B0FFE70020019043F6B1
:102BB0004400C4F20200016841F4804101600068F1
:102BC00000F4804001900198FFE7FFE700200090AB
:102BD00043F64000C4F20200016841F080510160F8
:102BE000006800F0805000900098FFE76FF001004F
:102BF0000F21002200F00EF802B080BD80B582B037
:102C000001468DF807009DF90700009111F040F88A
:102C100002B080BD80B588B003468DF81F000691D4
:102C2000059200200490039311F04CF804909DF954
:102C30001F000499069A059B0290084611461A4601
:102C400002F040FD029901900846019911F042F806
:102C500008B080BD80B582B00190019811F07EF877
:102C600002B080BD80B584B0029001910298002826
:102C700004D1FFE701208DF80F0021E1019843F610
:102C80000041C4F20201096801F00701884212D92B
:102C9000FFE7019843F60041C4F20201087008689A
:102CA00000F007000199884204D0FFE701208DF869
:102CB0000F0005E1FFE702980078800700282AD579
:102CC000FFE7029800784007002809D5FFE743F6A0
:102CD0000800C4F20200016841F4E0510160FFE71E
:102CE000029800780007002809D5FFE743F608009E
:102CF000C4F20200016841F460410160FFE743F65D
:102D00000800C4F20200016821F0F001029A926802
:102D100011430160FFE702980078C00700286ED0D9
:102D2000FFE702984068012811D1FFE743F6000051
:102D3000C4F20200006800F400300021B1EB504FF3
:102D400004D1FFE701208DF80F00B9E02CE00298D4
:102D50004068022805D0FFE702984068032811D197
:102D6000FFE743F60000C4F20200006800F00070C4
:102D70000021B1EB506F04D1FFE701208DF80F0067
:102D80009EE010E043F60000C4F20200006800F08C
:102D900002000021B1EB500F04D1FFE701208DF8B4
:102DA0000F008DE0FFE7FFE743F60800C4F20200E2
:102DB000016821F00301029A526811430160FFF794
:102DC00041FE0090FFE743F60800C4F202000068ED
:102DD00000F00C0002994968B0EB810F0ED0FFE7BC
:102DE000FFF730FE0099401A41F28931884204D33E
:102DF000FFE703208DF80F0062E0E4E7FFE70198AA
:102E000043F60041C4F20201096801F0070188425B
:102E100012D2FFE7019843F60041C4F202010870A4
:102E2000086800F007000199884204D0FFE70120FC
:102E30008DF80F0044E0FFE7029800784007002873
:102E40000CD5FFE743F60800C4F20200016821F444
:102E5000E051029AD26811430160FFE702980078BE
:102E6000000700280DD5FFE743F60800C4F2020072
:102E7000016821F46041029A126941EAC2010160CD
:102E8000FFE700F075F843F60801C4F20201096893
:102E9000C9B2090949F6E452C0F60102515CC840C2
:102EA00040F21401C2F20001086040F23400C2F2A4
:102EB00000000068FFF7F8FD00218DF80F10FFE714
:102EC0009DF80F0004B080BD82B001900091019880
:102ED0000F21016043F60800C4F20200016801F00E
:102EE0000301019A5160016801F0F001019A9160BB
:102EF000016801F4E051019AD160006800F460407B
:102F0000C0080199086143F60040C4F2020000685D
:102F100000F007000099086002B0704740F214000A
:102F2000C2F200000068704780B5FFF7F7FF43F674
:102F30000801C4F202010968C1F3822149F6F45282
:102F4000C0F60102515CC84080BD000080B5FFF7AB
:102F5000E5FF43F60801C4F20201096889B2490B92
:102F600049F6F452C0F60102515CC84080BD000031
:102F700080B586B00020059004900390029043F63F
:102F80000800C4F20200006800F00C0001460028AE
:102F9000019108D0FFE7019804280AD0FFE70198C3
:102FA00008280CD04FE042F20040C0F2F40002903A
:102FB0004FE041F60030C0F2B700029049E043F61E
:102FC0000400C4F20200016801F03F0105910068AD
:102FD0004002002813D5FFE743F60400C4F20200C4
:102FE0000068C0F3881041F60031C0F2B701A0FBC1
:102FF0000101059A0023FDF745F9049012E043F61C
:103000000400C4F202000068C0F3881042F20041DC
:10301000C0F2F401A0FB0101059A0023FDF732F98B
:103020000490FFE743F60400C4F20200006800F4D5
:103030004030022101EBD030039004980399B0FB9B
:10304000F1F0029005E042F20040C0F2F40002907C
:10305000FFE7029806B080BD80B586B00490049862
:10306000002804D1FFE701208DF8170055E30498EC
:103070000078C007002800F0A780FFE743F60800AB
:10308000C4F20200006800F00C00042813D0FFE72F
:1030900043F60800C4F20200006800F00C000828A3
:1030A0001FD1FFE743F60400C4F2020000684002AB
:1030B000002816D5FFE743F60000C4F202000068BE
:1030C00000F400300021B1EB504F09D0FFE7049825
:1030D0004068002804D1FFE701208DF817001CE3A9
:1030E00071E0FFE704984068B0F5803F09D1FFE741
:1030F00043F60000C4F20200016841F4803101602F
:1031000020E004984068B0F5A02F0DD1FFE743F60A
:103110000000C4F20200016841F4802101600168EE
:1031200041F4803101600CE043F60000C4F202007B
:10313000016821F480310160016821F4802101607F
:10314000FFE7FFE7FFE70498406800281DD0FFE78E
:10315000FFF778FC0390FFE743F60000C4F202009B
:10316000006800F400300021B1EB504F0CD1FFE7B4
:10317000FFF768FC0399401A652804D3FFE7032092
:103180008DF81700C9E2E7E71CE0FFF75BFC03904E
:10319000FFE743F60000C4F20200006800F40030CC
:1031A0000021B1EB504F0CD0FFE7FFF74BFC039928
:1031B000401A652804D3FFE703208DF81700ACE21E
:1031C000E7E7FFE7FFE7FFE70498007880070028BC
:1031D00040F19780FFE743F60800C4F20200006860
:1031E00010F00C0F13D0FFE743F60800C4F2020002
:1031F000006800F00C0008282CD1FFE743F604001B
:10320000C4F2020000684002002823D4FFE743F61E
:103210000000C4F20200006800F002000021B1EBDF
:10322000500F09D0FFE70498C068012804D0FFE7D9
:1032300001208DF8170070E243F60000C4F202008E
:10324000016821F0F801049A126941EAC2010160A3
:10325000FFE755E00498C06800282ED0FFE7002063
:10326000C4F2472001210160FFF7ECFB0390FFE768
:1032700043F60000C4F20200006800F002000021E2
:10328000B1EB500F0CD1FFE7FFF7DCFB0399401ABD
:10329000032804D3FFE703208DF817003DE2E7E79A
:1032A00043F60000C4F20200016821F0F801049A1C
:1032B000126941EAC201016021E00020C4F2472006
:1032C00000210160FFF7BEFB0390FFE743F600001B
:1032D000C4F20200006800F002000021B1EB500FC0
:1032E0000CD0FFE7FFF7AEFB0399401A032804D385
:1032F000FFE703208DF817000FE2E7E7FFE7FFE79E
:10330000FFE704980078000700284CD5FFE70498F1
:103310004069002823D0FFE740F68060C4F24720D0
:1033200001210160FFF78EFB0390FFE743F6740075
:10333000C4F20200006800F002000021B1EB500F5F
:103340000CD1FFE7FFF77EFB0399401A032804D353
:10335000FFE703208DF81700DFE1E7E722E040F602
:103360008060C4F2472000210160FFF76BFB0390EF
:10337000FFE743F67400C4F20200006800F00200A8
:103380000021B1EB500F0CD0FFE7FFF75BFB039977
:10339000401A032804D3FFE703208DF81700BCE18F
:1033A000E7E7FFE7FFE7049800784007002840F1CF
:1033B000CF80FFE700208DF8070043F64000C4F2FD
:1033C00002000068C000002815D4FFE7FFE70020D6
:1033D000009043F64000C4F20200016841F08051C1
:1033E0000160006800F0805000900098FFE7012025
:1033F0008DF80700FFE747F20000C4F20000006804
:10340000C005002822D4FFE747F20000C4F2000004
:10341000016841F480710160FFF714FB0390FFE73E
:1034200047F20000C4F200000068C00500280CD478
:10343000FFE7FFF707FB0399401A032804D3FFE7D0
:1034400003208DF8170068E1EAE7FFE7FFE704983B
:103450008068012809D1FFE743F67000C4F202003A
:10346000016841F0010101601FE0049880680528AF
:103470000DD1FFE743F67000C4F20200016841F08D
:1034800004010160016841F0010101600CE043F6B4
:103490007000C4F20200016821F0010101600168BE
:1034A00021F004010160FFE7FFE7FFE7049880686F
:1034B00000281FD0FFE7FFF7C5FA0390FFE743F6A8
:1034C0007000C4F20200006800F002000021B1EBBD
:1034D000500F0ED1FFE7FFF7B5FA0399401A41F2FA
:1034E0008931884204D3FFE703208DF8170014E1E7
:1034F000E5E71EE0FFF7A6FA0390FFE743F670004A
:10350000C4F20200006800F002000021B1EB500F8D
:103510000ED0FFE7FFF796FA0399401A41F289317E
:10352000884204D3FFE703208DF81700F5E0E5E7B4
:10353000FFE79DF80700012809D1FFE743F64000A7
:10354000C4F20200016821F080510160FFE7FFE74B
:1035500004988069002800F0DC80FFE743F608004B
:10356000C4F20200006800F00C00082800F085801A
:10357000FFE70498806902285CD1FFE76020C4F26D
:10358000472000210160FFF75DFA0390FFE743F653
:103590000000C4F20200006800F000700021B1EBEE
:1035A000506F0CD0FFE7FFF74DFA0399401A03283C
:1035B00004D3FFE703208DF81700AEE0E7E7049897
:1035C000C169026A436AD0F828C0114341EA8311F5
:1035D0004FEACC324FF6FF739A43A2F58032114383
:1035E000C06A41EA006043F60401C4F202010860C7
:1035F0006020C4F2472001210160FFF723FA039005
:10360000FFE743F60000C4F20200006800F000701B
:103610000021B1EB506F0CD1FFE7FFF713FA0399CC
:10362000401A032804D3FFE703208DF8170074E045
:10363000E7E721E06020C4F2472000210160FFF7A6
:1036400001FA0390FFE743F60000C4F202000068AD
:1036500000F000700021B1EB506F0CD0FFE7FFF7D6
:10366000F1F90399401A032804D3FFE703208DF8EA
:10367000170052E0E7E7FFE74AE004988069012875
:1036800004D1FFE701208DF8170046E043F604005F
:10369000C4F202000068029004988069012831D0C9
:1036A000FFE7029800F480000499C969884229D193
:1036B000FFE7029800F03F000499096A884221D18F
:1036C000FFE7029847F6C07108400499496AB0EBD9
:1036D000811F17D1FFE7029800F440300499896AEE
:1036E000C9034FF6FF729143A1F58031884209D199
:1036F000FFE7029800F070600499C96AB0EB016FAF
:1037000004D0FFE701208DF8170006E0FFE7FFE790
:10371000FFE700208DF81700FFE79DF8170006B0BF
:1037200080BD000081B0009001B0704781B0009072
:1037300001B0704785B003900291FFE7039890F8BD
:103740003C00012804D1FFE702208DF813007EE041
:103750000398012180F83C10FFE7FFE7039802215E
:1037600080F83D1003980068406801900398006855
:1037700080680090019820F0700001900298006825
:1037800001990843019001980399096848600398DA
:1037900000680021C4F2010188423CD0FFE7039891
:1037A0000068B0F1804F36D0FFE70398006840F220
:1037B0000041C4F2000188422DD0FFE70398006861
:1037C00040F60001C4F20001884224D0FFE70398CC
:1037D000006840F60041C4F2000188421BD0FFE7B8
:1037E0000398006840F20041C4F20101884212D0FF
:1037F000FFE70398006844F20001C4F20101884227
:1038000009D0FFE70398006841F60001C4F2000107
:1038100088420ED1FFE7009820F0800000900298C7
:1038200040680099084300900098039909688860EF
:10383000FFE70398012180F83D10FFE7039800217E
:1038400080F83C10FFE700208DF81300FFE79DF89B
:10385000130005B07047000080B584B00290029854
:10386000002804D1FFE701208DF80F0043E0029803
:1038700090F83D00002808D1FFE70298002180F869
:103880003C10029800F03CF8FFE70298022180F813
:103890003D10029850F8041B01900846019902F06F
:1038A000B7F80298012180F84610FFE7029801213D
:1038B00080F83E10029880F83F10029880F840107F
:1038C000029880F84110FFE7FFE70298012180F895
:1038D0004210029880F84310029880F84410029831
:1038E00080F84510FFE70298012180F83D10002084
:1038F0008DF80F00FFE79DF80F0004B080BD0000B9
:1039000080B584B003900398006840F60041C4F28B
:103910000001884212D1FFE7FFE70020029043F642
:103920004000C4F20200016841F008010160006833
:1039300000F0080002900298FFE724E00398006876
:1039400041F20041C4F2000188421BD1FFE7FFE7CA
:103950000020019043F64000C4F20200016841F0EB
:1039600020010160006800F0200001900198FFE74D
:103970003720012100220090FFF74CF90098FFF753
:103980003DF9FFE7FFE704B080BD000083B0019080
:10399000019890F83D00012804D0FFE701208DF840
:1039A0000B0064E00198022180F83D100198006846
:1039B0000021C4F2010188423CD0FFE70198006871
:1039C000B0F1804F36D0FFE70198006840F2004127
:1039D000C4F2000188422DD0FFE70198006840F64C
:1039E0000001C4F20001884224D0FFE7019800687A
:1039F00040F60041C4F2000188421BD0FFE7019865
:103A0000006840F20041C4F20101884212D0FFE791
:103A10000198006844F20001C4F20101884209D013
:103A2000FFE70198006841F60001C4F200018842F6
:103A300012D1FFE701980068806800F0070000904D
:103A40000098062807D0FFE701980068016841F058
:103A500001010160FFE706E001980068016841F09C
:103A600001010160FFE700208DF80B00FFE79DF8E2
:103A70000B0003B07047000083B00190019890F8EC
:103A80003D00012804D0FFE701208DF80B006AE01B
:103A90000198022180F83D1001980068C16841F04A
:103AA0000101C160019800680021C4F2010188424F
:103AB0003CD0FFE701980068B0F1804F36D0FFE7B7
:103AC0000198006840F20041C4F2000188422DD004
:103AD000FFE70198006840F60001C4F20001884247
:103AE00024D0FFE70198006840F60041C4F20001CD
:103AF00088421BD0FFE70198006840F20041C4F201
:103B00000101884212D0FFE70198006844F20001E9
:103B1000C4F20101884209D0FFE70198006841F62C
:103B20000001C4F20001884212D1FFE70198006849
:103B3000806800F0070000900098062807D0FFE793
:103B400001980068016841F001010160FFE706E0AB
:103B500001980068016841F001010160FFE7002061
:103B60008DF80B00FFE79DF80B0003B070470000D5
:103B700080B58CB00A90099100208DF82300FFE7F2
:103B80000A9890F83C00012804D1FFE702208DF844
:103B90002F00BBE00A98012180F83C10FFE7FFE707
:103BA0000A98022180F83D100A9800688068079002
:103BB000079820F077000790079820F47F4007903F
:103BC00007980A9909688860099800680028069093
:103BD00000F08280FFE7069810287DD0FFE7069866
:103BE000202879D0FFE70698302875D0FFE706989F
:103BF000402861D0FFE7069850283DD0FFE706989F
:103C0000602849D0FFE7069870280BD0FFE7069898
:103C1000B0F5805F05D0FFE70698B0F5005F19D0DA
:103C200061E064E00A98006809994A688B68C9688D
:103C300005911946059B01F0E1FF0A98006880682C
:103C40000790079840F07700079007980A9909684D
:103C500088604CE00A98006809994A688B68C968CE
:103C600004911946049B01F0C9FF0A980068816815
:103C700041F4804181603AE00A98006809994A68F5
:103C8000C96803911146039A02F0A4F90A980068E2
:103C9000502101F0CDFF2AE00A98006809994A688E
:103CA000C96802911146029A02F0BCF90A980068AC
:103CB000602101F0BDFF1AE00A98006809994A687E
:103CC000C96801911146019A02F084F90A980068C6
:103CD000402101F0ADFF0AE00A98006809990968DF
:103CE00001F0A6FF03E001208DF82300FFE70A980A
:103CF000012180F83D10FFE70A98002180F83C1070
:103D0000FFE79DF823008DF82F00FFE79DF82F00B7
:103D10000CB080BD81B0009001B0704780B584B018
:103D2000039003980068C0680290039800680069D7
:103D300001909DF804008007002825D5FFE79DF835
:103D40000800800700281ED5FFE7039800686FF081
:103D500002010161039801210177039800688069DD
:103D60008007002804D0FFE70398FFF7D3FF06E0A1
:103D7000039800F049F9039800F060FAFFE7039810
:103D800000210177FFE7FFE79DF8040040070028C6
:103D900025D5FFE79DF80800400700281ED5FFE75E
:103DA000039800686FF00401016103980221017714
:103DB00003980068806910F4407F04D0FFE70398FF
:103DC000FFF7A8FF06E0039800F01EF9039800F043
:103DD00035FAFFE7039800210177FFE7FFE79DF839
:103DE00004000007002825D5FFE79DF8080000071C
:103DF00000281ED5FFE7039800686FF008010161F5
:103E000003980421017703980068C069800700289F
:103E100004D0FFE70398FFF77DFF06E0039800F06A
:103E2000F3F8039800F00AFAFFE7039800210177FE
:103E3000FFE7FFE79DF80400C006002825D5FFE74F
:103E40009DF80800C00600281ED5FFE7039800680B
:103E50006FF0100101610398082101770398006851
:103E6000C06910F4407F04D0FFE70398FFF752FFCA
:103E700006E0039800F0C8F8039800F0DFF9FFE7C8
:103E8000039800210177FFE7FFE79DF80400C007D2
:103E9000002810D0FFE79DF80800C007002809D0CF
:103EA000FFE7039800686FF001010161039800F0DB
:103EB000B1FAFFE7FFE79DF804000006002810D5DF
:103EC000FFE79DF808000006002809D5FFE70398E2
:103ED00000686FF0800101610398FFF723FCFFE7A2
:103EE000FFE79DF804004006002810D5FFE79DF885
:103EF00008004006002809D5FFE7039800686FF026
:103F000040010161039800F0A3FAFFE7FFE79DF885
:103F100004008006002810D5FFE79DF80800800601
:103F2000002809D5FFE7039800686FF020010161C0
:103F30000398FFF7FBFBFFE7FFE704B080BD00003D
:103F400080B588B0079000200690059004900390FB
:103F500002900798006840F60001C4F20001884210
:103F600023D1FFE7FFE70020019043F63000C4F2C1
:103F70000200016841F008010160006800F00800DB
:103F800001900198FFE74FF48040029002200390D7
:103F90000121049103210591069040F60040C4F2EE
:103FA000020002A9FEF76CFB2BE00798006840F6C0
:103FB0000041C4F20001884222D1FFE7FFE7002060
:103FC000009043F63000C4F20200016841F0800125
:103FD0000160006800F0800000900098FFE74FF457
:103FE000E050029002200390002104910591069078
:103FF00041F60040C4F2020002A9FEF741FBFFE7D0
:10400000FFE708B080BD000081B0009001B07047AC
:1040100080B586B004900391029200208DF80700CD
:10402000FFE7049890F83C00012804D1FFE7022044
:104030008DF8170089E00498012180F83C10FFE713
:10404000FFE702980C28009000F270800099DFE8EA
:1040500001F0076D6D6D206D6D6D3A6D6D6D5300E6
:1040600004980068039901F0F9FD049800688169DB
:1040700041F00801816104980068816921F0040120
:10408000816103980069049909688A69104388610D
:1040900050E004980068039901F056FE0498006807
:1040A000816941F40061816104980068816921F4AB
:1040B0008061816103980069049909688A6942EA0C
:1040C0000020886136E004980068039901F0B6FE8C
:1040D00004980068C16941F00801C1610498006852
:1040E000C16921F00401C16103980069049909685C
:1040F000CA691043C8611DE004980068039901F083
:1041000017FF04980068C16941F40061C161049817
:104110000068C16921F48061C16103980069049954
:104120000968CA6942EA0020C86103E001208DF8ED
:104130000700FFE7FFE70498002180F83C10FFE745
:104140009DF807008DF81700FFE79DF8170006B0EF
:1041500080BD000080B584B002900298002804D190
:10416000FFE701208DF80F0043E0029890F83D0032
:10417000002808D1FFE70298002180F83C1002983F
:1041800000F03CF8FFE70298022180F83D10029809
:1041900050F8041B01900846019901F039FC02987F
:1041A000012180F84610FFE70298012180F83E10B7
:1041B000029880F83F10029880F84010029880F82A
:1041C0004110FFE7FFE70298012180F842100298B2
:1041D00080F84310029880F84410029880F8451047
:1041E000FFE70298012180F83D1000208DF80F00B4
:1041F000FFE79DF80F0004B080BD000082B0019081
:104200000198006840F60001C4F20001884212D112
:10421000FFE7FFE70020009043F64000C4F20200F1
:10422000016841F004010160006800F004000090A2
:104230000098FFE7FFE702B07047000081B00090F0
:1042400001B0704780B58CB00A9009910998002898
:1042500005D1FFE70A9890F83E0007901CE0099806
:10426000042805D1FFE70A9890F83F00069010E077
:104270000998082805D1FFE70A9890F840000590B2
:1042800004E00A9890F841000590FFE70598069031
:10429000FFE706980790FFE70798012804D0FFE79B
:1042A00001208DF82F00B1E00998002805D1FFE723
:1042B0000A98022180F83E101EE00998042806D1D1
:1042C000FFE70A98022180F83F10049112E0099854
:1042D000082806D1FFE70A98022180F840100391D0
:1042E00005E00A98022180F841100391FFE7039846
:1042F0000490FFE70498FFE70A98006809990122F3
:10430000029201F05FFC0A98006802990022C4F250
:104310000102904201910CD0FFE70A9800684FF625
:104320000041CBF6FE710844B0FA80F040090190DC
:10433000FFE70198C007002807D0FFE70A98006848
:10434000416C41F400414164FFE70A980068002194
:10435000C4F2010188423CD0FFE70A980068B0F13E
:10436000804F36D0FFE70A98006840F20041C4F25F
:10437000000188422DD0FFE70A98006840F600014E
:10438000C4F20001884224D0FFE70A98006840F692
:104390000041C4F2000188421BD0FFE70A98006880
:1043A00040F20041C4F20101884212D0FFE70A98AE
:1043B000006844F20001C4F20101884209D0FFE71D
:1043C0000A98006841F60001C4F20001884212D147
:1043D000FFE70A980068806800F0070008900898D6
:1043E000062807D0FFE70A980068016841F001013C
:1043F0000160FFE706E00A980068016841F00101EA
:104400000160FFE700208DF82F00FFE79DF82F00E7
:104410000CB080BD80B582B001900198006841F277
:104420000001C4F20001884203D1FFE7FEF710FB50
:104430000CE00198006841F20041C4F2000188429A
:1044400003D1FFE7FCF782FDFFE7FFE702B080BD85
:1044500081B0009001B0704780B586B013460490DB
:104460000391ADF80A20049890F84200202850D11A
:10447000FFE70398002805D0FFE7BDF80A000028F1
:1044800004D1FFE701208DF8170046E004980121D0
:10449000016304980021416304980399BDF80A2040
:1044A00002F0F6F88DF809009DF8090000282BD1DC
:1044B000FFE70498006B012821D1FFE7FFE7002008
:1044C00001900498006800680190049800684068B2
:1044D00001900198FFE7FFE7FFE70498006850E8C4
:1044E000030F40F010000090FFE70098049909685E
:1044F00041E80302002AF0D1FFE7FFE703E00120D3
:104500008DF80900FFE7FFE79DF809008DF8170017
:1045100003E002208DF81700FFE79DF8170006B0B2
:1045200080BD000080B584B00A460390ADF80A1043
:104530000399BDF80A0041F24813C2F2000301904A
:104540001846019B00921A460AF0E6F904B080BDB5
:1045500081B0009001B0704780B592B01190119871
:1045600000680068109011980068C0680F9011985A
:10457000006840690E9000200D900C90109800F09B
:104580000F000D900D98002811D1FFE79DF8400015
:10459000800600280AD5FFE79DF83C008006002829
:1045A00004D5FFE7119801F00FFFF2E1FFE70D9846
:1045B000002800F0CA80FFE79DF83800C0070028F7
:1045C00007D1FFE7BDF83C0010F4907F00F0BD80FC
:1045D000FFE79DF84000C00700280CD0FFE79DF8DA
:1045E0003D00C007002806D0FFE71198416C41F05C
:1045F00001014164FFE79DF84000400700280CD509
:10460000FFE79DF83800C007002806D0FFE71198A3
:10461000416C41F002014164FFE79DF840008007D2
:1046200000280CD5FFE79DF83800C007002806D009
:10463000FFE71198416C41F004014164FFE79DF8E8
:1046400040000007002812D5FFE79DF83C008006D7
:10465000002806D4FFE79DF83800C007002806D0E0
:10466000FFE71198416C41F008014164FFE71198A0
:10467000406C002868D0FFE79DF8400080060028C5
:104680000AD5FFE79DF83C008006002804D5FFE727
:10469000119801F099FEFFE7119800684069C0F396
:1046A00080100C901198406C0007002804D4FFE79C
:1046B0000C98002840D0FFE7119801F00BFE1198EC
:1046C000006840694006002831D5FFE7FFE7FFE7B3
:1046D0001198006850E8050F20F040000B90FFE7AC
:1046E0000B981199096841E80502002AF0D1FFE70B
:1046F000FFE71198C06B002814D0FFE71198C06B3A
:1047000046F27901C0F6000101651198C06BFDF712
:10471000D3FC002805D0FFE71198C06B016D8847D6
:10472000FFE703E01198FFF713FFFFE703E011989D
:10473000FFF70EFFFFE706E01198FFF709FF11985A
:1047400000214164FFE7FFE723E11198006B012896
:1047500040F0FF80FFE79DF84000C006002840F1D0
:10476000F880FFE79DF83C00C006002840F1F1808A
:10477000FFE7FFE700200A901198006800680A90A0
:104780001198006840680A900A98FFE7119800683D
:1047900040694006002840F18280FFE71198C06B15
:1047A00000684068ADF82600BDF82600002875D0E6
:1047B000FFE7BDF826001199898D88426EDAFFE780
:1047C000BDF826001199C8851198C06BC069B0F575
:1047D000807F58D0FFE7FFE7FFE71198006850E8B7
:1047E000030F20F480700890FFE70898119909687A
:1047F00041E80302002AF0D1FFE7FFE7FFE7FFE708
:104800001198006850E8050F20F001000790FFE7BD
:1048100007981199096841E80502002AF0D1FFE7DD
:10482000FFE7FFE7FFE71198006850E8050F20F069
:1048300040000690FFE706981199096841E80502D3
:10484000002AF0D1FFE7FFE71198202180F84210FD
:10485000119800210163FFE7FFE71198006850E815
:10486000030F20F010000590FFE7059811990968E3
:1048700041E80302002AF0D1FFE7FFE71198C06B7F
:10488000FDF7A0FBFFE71198022141631198818D8C
:10489000C28D891A89B2FFF745FEFFE779E01198CA
:1048A000818DC08D081AADF812001198C08D0028B6
:1048B0004ED0FFE7BDF81200002849D0FFE7FFE720
:1048C000FFE71198006850E8030F20F49070039000
:1048D000FFE703981199096841E80302002AF0D123
:1048E000FFE7FFE7FFE7FFE71198006850E8050FD3
:1048F00020F001000290FFE702981199096841E851
:104900000502002AF0D1FFE7FFE71198202180F887
:104910004210119800210163FFE7FFE7119800683A
:1049200050E8030F20F010000190FFE70198119963
:10493000096841E80302002AF0D1FFE7FFE7119878
:10494000022141631198BDF81210FFF7EBFDFFE75C
:104950001FE09DF84000000600280AD5FFE79DF8FB
:104960003C000006002804D5FFE7119801F04EFF37
:104970000FE09DF84000400600280AD5FFE79DF8AB
:104980003C004006002804D5FFE7119801F0ECFC3C
:10499000FFE712B080BD000080B582B000900098A3
:1049A000002804D1FFE701208DF8070042E00098BD
:1049B0008069002801D0FFE700E0FFE7009890F849
:1049C0004100002808D1FFE70098002180F840103E
:1049D000009800F033F8FFE70098242180F8411098
:1049E00000980068C16821F40051C160009801F08E
:1049F000A3FD00980068016921F4904101610098CD
:104A00000068416921F02A01416100980068C1688D
:104A100041F40051C16000980021416400982022B7
:104A200080F84120009880F84220009841638DF87A
:104A30000710FFE79DF8070002B080BD80B598B071
:104A400017900020169015901490139012901798BC
:104A5000006841F20001C4F20101884240F0BC80CC
:104A6000FFE7FFE70020119043F64400C4F2020084
:104A7000016841F010010160006800F01000119021
:104A80001198FFE7FFE70020109043F63000C4F2D2
:104A90000200016841F002010160006800F00200BC
:104AA00010901098FFE7FFE700200F9043F63000CA
:104AB000C4F20200016841F001010160006800F0E9
:104AC00001000F900F98FFE78020129002201390B2
:104AD00000211491032215920723169340F2004CF3
:104AE000C4F2020C0DF1480E0A906046099171461D
:104AF00008920793CDF818E0FDF7C2FD4FF400705F
:104B000012900A98139009991491089A1592079B8C
:104B100016930020C4F202000699FDF7B1FD41F2A0
:104B2000F840C2F2000046F2B841C4F2020101604E
:104B30004FF000614160402181600999C1604FF4EC
:104B40008062026141618161C16101624162FDF780
:104B500077FC002803D0FFE7FCF700FAFFE7FFE748
:104B6000179841F2F841C2F20001816317988863F7
:104B7000FFE741F29840C2F2000046F24041C4F221
:104B8000020101604FF00061416000218160C1605D
:104B90004FF48062026141618161C16101624162E1
:104BA000FDF74EFC002803D0FFE7FCF7D7F9FFE73D
:104BB000FFE7179841F29841C2F20001C1631798CC
:104BC0008863FFE72520052100220590FEF722F8E3
:104BD0000598FEF713F83DE11798006844F60001C8
:104BE000C4F20001884240F09580FFE7FFE7002013
:104BF0000E9043F64000C4F20200016841F48021A7
:104C00000160006800F480200E900E98FFE7FFE737
:104C100000200D9043F63000C4F20200016841F01C
:104C200004010160006800F004000D900D98FFE79A
:104C30004FF4406012900220139000201490032142
:104C400015910721169140F60001C4F2020112AA43
:104C5000049008461146FDF713FD41F25850C2F288
:104C6000000046F22801C4F2020101604FF0006129
:104C7000416004998160C1604FF4806202614161CA
:104C80008161C16101624162FDF7DAFB002803D056
:104C9000FFE7FCF763F9FFE7FFE7179841F2585188
:104CA000C2F20001C16317988863FFE741F2B85070
:104CB000C2F2000046F25801C4F2020101604FF056
:104CC00000614160402181600021C1604FF4806239
:104CD000026141618161C16101624162FDF7B0FB26
:104CE000002803D0FFE7FCF739F9FFE7FFE7179843
:104CF00041F2B851C2F20001816317988863FFE75F
:104D00002720042100220390FDF784FF0398FDF77C
:104D100075FF9EE01798006841F20041C4F201015E
:104D2000884240F09580FFE7FFE700200C9043F6B3
:104D30004400C4F20200016841F0200101600068F3
:104D400000F020000C900C98FFE7FFE700200B908C
:104D500043F63000C4F20200016841F040010160F6
:104D6000006800F040000B900B98FFE74FF4844080
:104D70001290022013900020149003211591082115
:104D8000169141F60001C4F2020112AA02900846EF
:104D90001146FDF775FC41F27860C2F2000046F260
:104DA000A041C4F2020101604FF020614160402146
:104DB00081600299C1604FF480620261416181614A
:104DC000C16101624162FDF73BFB002803D0FFE7B0
:104DD000FCF7C4F8FFE7FFE7179841F27861C2F2E9
:104DE0000001816317988863FFE741F21860C2F2FF
:104DF000000046F22841C4F2020101604FF0206138
:104E0000416000218160C1604FF4806202614161B4
:104E10008161C16101624162FDF712FB002803D08C
:104E2000FFE7FCF79BF8FFE7FFE7179841F21861EF
:104E3000C2F20001C16317988863FFE7472004218D
:104E400000220190FDF7E6FE0198FDF7D7FEFFE78F
:104E5000FFE7FFE718B080BD80B584B0134602902D
:104E60000191ADF80220029890F84200202819D153
:104E7000FFE70198002805D0FFE7BDF802000028F1
:104E800004D1FFE701208DF80F000FE00298002108
:104E9000016302980199BDF8022001F0F9FB8DF839
:104EA0000F0003E002208DF80F00FFE79DF80F00D0
:104EB00004B080BD80B584B0134602900191ADF876
:104EC0000220029890F84200202819D1FFE70198AB
:104ED000002805D0FFE7BDF80200002804D1FFE755
:104EE00001208DF80F000FE0029800210163029865
:104EF0000199BDF8022001F055FC8DF80F0003E088
:104F000002208DF80F00FFE79DF80F0004B080BD70
:104F100080B582B00190019940F25410C2F20000B5
:104F200002F066F8019806F0CFF902B080BD0000EB
:104F300081B0009001B0704780B588B013460690EC
:104F40000591ADF81220069890F84100202862D112
:104F5000FFE70598002805D0FFE7BDF812000028FC
:104F600004D1FFE701208DF81F0058E0059806994D
:104F70000862BDF8120006998884BDF812000699EF
:104F8000C8840698002141640698212280F84120B7
:104F90000698806B46F24122C0F60002C263069872
:104FA000806B46F2BD22C0F6000202640698806B58
:104FB00046F29902C0F60002C2640698806B016551
:104FC00005A8039006980168806B039A1268043163
:104FD000BDF8123001911146019AFDF7EDFA0699DC
:104FE00009686FF040020A60FFE7FFE70698006873
:104FF00050E8050F40F080000290FFE70298069904
:10500000096841E80502002AF0D1FFE7FFE7002028
:105010008DF81F0003E002208DF81F00FFE79DF8C8
:105020001F0008B080BD000084B0134602900191BB
:10503000ADF80220029890F84100202828D1FFE71F
:105040000198002805D0FFE7BDF80200002804D130
:10505000FFE701208DF80F001EE001980299086219
:10506000BDF8020002998884BDF802000299C88444
:105070000298002141640298212280F84120029880
:105080000068C26842F08002C2608DF80F1003E031
:1050900002208DF80F00FFE79DF80F0004B0704765
:1050A00081B0009001B0704781B0009001B07047AE
:1050B000FFE7FEE780B582B004200EF099FD019075
:1050C0000BF08EFA01980AF0BFF840F29011C2F28C
:1050D000000101220A7002B080BD000080B541F2DB
:1050E0004840C2F2000046F20041C4F200010160F3
:1050F0000621416000218160C1604FF440320261AD
:105100004FF480124261017641768176C176017753
:105110004177FCF739FC002803D0FFE7FBF71EFFBF
:10512000FFE780BD80B541F27040C2F2000046F654
:105130000001C4F20001016006214160002181608C
:10514000C1604FF4403202614FF480124261017637
:1051500041768176C17601774177FCF715FC00280E
:1051600003D0FFE7FBF7FAFEFFE780BD80B58AB00A
:10517000FFE70020099043F63000C4F20200016806
:1051800041F480010160006800F4800009900998F2
:10519000FFE7FFE70020089043F63000C4F202006A
:1051A000016841F400110160006800F400100890EB
:1051B0000898FFE70C200521002207900691059230
:1051C000FDF728FD0798FDF719FD0E2004900699BC
:1051D000059AFDF71FFD0498FDF710FD3920039097
:1051E0000699059AFDF716FD0398FDF707FD3A208D
:1051F00002900699059AFDF70DFD0298FDF7FEFC59
:10520000452001900699059AFDF704FD0198FDF7E8
:10521000F5FC462000900699059AFDF7FBFC0098E6
:10522000FDF7ECFC0AB080BD80B582B045F6E50024
:10523000C0F600004AF24052C0F60102002101917E
:1052400010F0CCF941F25821C2F20001086040F69A
:10525000F140C0F600004AF2E842C0F601020199AE
:1052600010F0BCF941F25021C2F20001086040F692
:105270002950C0F600004AF20C52C0F60102019912
:1052800010F0ACF941F25421C2F20001086045F679
:105290007500C0F600004AF28852C0F6010201997A
:1052A00010F09CF942F2B851C2F20001086045F2D8
:1052B000A570C0F600004AF2AC52C0F60102019996
:1052C00010F08CF942F2BC51C2F20001086040F6C5
:1052D0006570C0F600004AF26452C0F601020199FE
:1052E00010F07CF941F26421C2F20001086002B0C2
:1052F00080BD000086B0FFE70020059043F6300037
:10530000C4F20200016841F002010160006800F08F
:10531000020005900598FFE7FFE70020049043F6A0
:105320003000C4F20200016841F0400101600068F1
:1053300000F0400004900498FFE7FFE7002003908E
:1053400043F63000C4F20200016841F0010101603F
:10535000006800F0010003900398FFE7FFE70020DA
:10536000029043F63000C4F20200016841F00801E7
:105370000160006800F0080002900298FFE7FFE774
:105380000020019043F63000C4F20200016841F0B1
:1053900004010160006800F0040001900198FFE73B
:1053A000FFE70020009043F63000C4F202000168DD
:1053B00041F080010160006800F0800000900098DA
:1053C000FFE706B07047000080B58EB000200D905A
:1053D0000C900B900A900990089007900690059009
:1053E000049003900290019041F2D861C2F2000152
:1053F00040F60002C4F200020A60A7224A608860F8
:105400004FF6FF72CA60086188610846FEF7A2FE87
:10541000002803D0FFE7FBF7A1FDFFE7002008907D
:10542000099041F2D860C2F2000008A9FEF782F9A3
:10543000002803D0FFE7FBF791FDFFE76020019014
:10544000002002900390059041F2D860C2F2000063
:1054500001A90822FEF7DCFD002803D0FFE7FBF7D7
:105460007DFDFFE741F2D860C2F20000FEF768FD63
:105470000EB080BD80B58EB000200D900C900B90CA
:105480000A90099008900790069005900490039068
:105490000290019041F22071C2F2000140F60042F8
:1054A000C4F200020A60486088604FF6FF72CA606A
:1054B000086188610846FEF7CFF9002803D0FFE7AE
:1054C000FBF74CFDFFE74FF480500A9041F220704B
:1054D000C2F200000AA9FEF74BFB002803D0FFE749
:1054E000FBF73CFDFFE741F22070C2F20000FEF73F
:1054F00031FE002803D0FFE7FBF730FDFFE7002077
:105500000890099041F22070C2F2000008A9FEF74D
:1055100011F9002803D0FFE7FBF720FDFFE760202B
:10552000019042F21070029000200390059041F229
:105530002071C2F2000101AA009008461146009AAB
:10554000FEF766FD002803D0FFE7FBF707FDFFE746
:1055500041F22070C2F2000001A90422FEF758FDBA
:10556000002803D0FFE7FBF7F9FCFFE741F22070CA
:10557000C2F2000001A90822FEF74AFD002803D06C
:10558000FFE7FBF7EBFCFFE741F22070C2F20000FF
:10559000FEF7D6FC0EB080BD80B582B00020019031
:1055A000009041F2B071C2F2000141F20042C4F237
:1055B00000020A6053224A60886040F2E730C86007
:1055C000802088610846FEF747F9002803D0FFE7EE
:1055D000FBF7C4FCFFE700200090019041F2B0709F
:1055E000C2F200006946FEF7A5F8002803D0FFE7E5
:1055F000FBF7B4FCFFE702B080BD000080B541F2CC
:10560000F870C2F2000041F20001C4F20101016031
:105610004FF4E131416000218160C16001610C22E1
:1056200042618161C161FFF7B7F9002803D0FFE74C
:10563000FBF794FCFFE780BD80B541F64000C2F265
:10564000000044F60001C4F20001016048F2A061CC
:10565000C0F2010141604FF4805181600021C160BE
:105660004FF4806202610C2242618161C161FFF7E7
:1056700093F9002803D0FFE7FBF770FCFFE780BD3C
:1056800080B541F68800C2F2000041F20041C4F248
:10569000010101604FF4E131416000218160C1608E
:1056A00001610C2242618161C161FFF775F9002837
:1056B00003D0FFE7FBF752FCFFE780BDFFE7FEE703
:1056C000FFE7FEE788B0079006910592079800F083
:1056D000070004900498C0F10700052803D3FFE7F2
:1056E0000420019004E00498C0F107000190FFE756
:1056F0000198039004980430062803D8FFE700209F
:10570000009003E0049803380090FFE700980290AF
:1057100006980399012202FA01F101390840029921
:105720008840059B02FA01F101391940084308B08D
:1057300070470000000000000000000000000000B2
:10574000EFF30980BFF36F8F154B1A681EF0100F2F
:1057500008BF20ED108A20E9F04F10602DE9090004
:105760004FF0500080F31188BFF34F8FBFF36F8F5E
:1057700011F02CFC4FF0000080F31188BDE8090007
:1057800019680868B0E8F04F1EF0100F08BFB0ECC1
:10579000108A80F30988BFF36F8F704700BF00BF86
:1057A0004021002080B588B007904FF4FA700FF0C8
:1057B000A9FEFFE740F2C020C2F2000000F594719C
:1057C00041F67852C2F2000240F25023C2F20003C6
:1057D0009FED240ADFED240A0590084611461A467B
:1057E00005F026FB41F63831C2F2000140F2882272
:1057F000C2F200029FED1D0ADFED1D0A059805F0BB
:1058000017FB41F26820C2F20000408900EE100A46
:10581000B8EEC00ABFEE001A30EE010A8DED060A9E
:105820009DED060ABDEEC00A10EE100A41F2C0114D
:10583000C2F2000104900846049A0391114609F04F
:1058400033F941F27041C2F200010120039A029043
:105850001046029A09F0BEF902980FF053FE01902B
:10586000A8E700BFE0FFBF39F1A23E3B66660639FC
:105870003577D63D80B584B0039041F2E000C2F2A6
:10588000000007F047FAFFE741F2E100C2F2000032
:1058900008F0AAF940F66020C2F2000007F0FEF816
:1058A0000121029008460FF02DFE0190ECE7000068
:1058B000074B19680868B0E8F04F80F30988BFF318
:1058C0006F8F4FF0000080F31188704700BF00BF5A
:1058D0004021002080B56FF0040000210EF01CFA7A
:1058E00080BD000080B582B00190FFE701200FF07D
:1058F00009FE0090FAE7000080B582B04EF2100079
:10590000CEF200000068019012F086F9012803D061
:10591000FFE711F06DFCFFE702B080BD80B594B0E9
:1059200008A83021FAF7FBFD0020079006900590AB
:1059300004900390FFE70020029043F64000C4F279
:105940000200016841F080510160006800F0805061
:1059500002900298FFE7FFE70020019047F2000065
:10596000C4F20000016841F480410160006800F465
:10597000804001900198FFE7012008904FF48030AB
:10598000099002200E904FF480010F910621109192
:10599000A821119112900420139008A8FDF75CFB38
:1059A000002803D0FFE7FBF7D9FAFFE70F200390A9
:1059B00002200490002005904FF4A05006904FF470
:1059C0008050079003A80521FDF74CF9002803D06B
:1059D000FFE7FBF7C3FAFFE714B080BD4EF688502F
:1059E000CEF20000016841F47001016070470000D0
:1059F00080B541F26870C2F20000FEF78FF980BDF9
:105A000080B541F2B070C2F20000FEF787F980BDA8
:105A100083B00290019102980068009002980021E2
:105A2000C4F20101884225D0FFE70298B0F1804F0F
:105A300020D0FFE7029840F20041C4F20001884202
:105A400018D0FFE7029840F60001C4F20001884236
:105A500010D0FFE7029840F60041C4F200018842EE
:105A600008D0FFE7029840F20041C4F201018842E9
:105A70000AD1FFE7009820F070000090019840687C
:105A8000009908430090FFE702980021C4F2010149
:105A9000884255D0FFE70298B0F1804F50D0FFE721
:105AA000029840F20041C4F20001884248D0FFE76A
:105AB000029840F60001C4F20001884240D0FFE79E
:105AC000029840F60041C4F20001884238D0FFE756
:105AD000029840F20041C4F20101884230D0FFE751
