:020000040800F2
:10000000985500205D020008613C00084136000858
:10001000BD3A0008E1070008B547000800000000ED
:10002000000000000000000000000000E13C0008AB
:100030002D09000800000000713C0008653E000822
:1000400077020008770200087702000877020008AC
:10005000770200087702000877020008770200089C
:10006000770200087702000877020008CD08000830
:10007000D908000877020008E508000877020008A0
:10008000F1080008FD080008770200087702000860
:10009000E5070008F107000877020008770200086A
:1000A00077020008613F0008770200087702000825
:1000B000770200087702000877020008770200083C
:1000C000770200087702000877020008770200082C
:1000D00077020008914700089D4700087702000852
:1000E000770200087702000877020008770200080C
:1000F00077020008770200087702000877020008FC
:1001000077020008770200087702000877020008EB
:1001100077020008770200087702000877020008DB
:10012000770200080909000815090008770200088D
:1001300077020008770200087702000877020008BB
:10014000FD07000809080008770200087702000888
:10015000770200082109000877020008A947000873
:10016000770200087702000877020008770200088B
:1001700077020008770200087702000800000000FC
:10018000770200087702000899400008A54000089F
:10019000770200087702000877020008770200085B
:1001A00000000000000000007702000800F002F8E4
:1001B00000F045F80AA090E8000C82448344AAF1BC
:1001C0000107DA4501D100F03AF8AFF2090EBAE8BA
:1001D0000F0013F0010F18BFFB1A43F0010318477B
:1001E000E09C0000009D0000103A24BF78C878C150
:1001F000FAD8520724BF30C830C144BF04680C602D
:10020000704700000023002400250026103A28BF74
:1002100078C1FBD8520728BF30C148BF0B60704778
:100220001FB509F0D2FC9DE8030000F0C9F900F009
:10023000E3F81FBD10B5002000F0F8F910BD00F084
:1002400037FA1146FFF7ECFF07F050FD00F06FFAA8
:1002500003B4FFF7EFFF03BC00F0E0F80948804764
:1002600009480047FEE7FEE7FEE7FEE7FEE7FEE798
:10027000FEE7FEE7FEE7FEE704480549054A064BB0
:10028000704700004D3F0008AD010008984F002066
:1002900098550020985100209851002053EA020CF4
:1002A00000F069802DE9F04B4FF00006002B1FBFD6
:1002B000B3FA83F503FA05F424FA05F65E4012BF9B
:1002C0001643B2FA82F502FA05F4C5F120051EBF05
:1002D00022FA05FC44EA0C04203556EA044C4FEAA5
:1002E000144418BF641C4FF000084FF000099042FE
:1002F00071EB030C39D3002919BFB1FA81F701FA68
:1003000007F6B0FA80F700FA07F6C7F120071EBF1C
:1003100020FA07FC46EA0C062037B6FBF4FCA7EBF4
:100320000507103F07F01F0BCBF120062CFA06F64D
:100330000CFA0BFB44BFB3460026202FA4BF5E4639
:100340004FF0000B5BEA060C08BF4FF0010B19EBF6
:100350000B0948EB0608ABFB027C06FB02CC0BFB4F
:1003600003CCC01B71EB0C01C1E70B4602464146B2
:100370004846BDE8F08B13B5084318BF4FF0FF3077
:100380000146AFF30080BDE81C40704710B5002067
:1003900000F0C2F8FFF74EFFBDE81040012000F06A
:1003A0003DB80B460146184600F09FB84FF00002DA
:1003B0000429C0F0128010F0030C00F0B680CCF1DC
:1003C000040CBCF1020F18BF00F8012BA8BF20F8E5
:1003D000022BA1EB0C0100F0A8B85FEAC17C24BF9E
:1003E00000F8012B00F8012B48BF00F8012B7047E3
:1003F000704770477047000070B5064C7C44064D4E
:100400007D4404E02046016808448047241DAC4236
:10041000F8D170BDE09A0000E49A0000014918206C
:10042000ABBEFEE72600020070B5064600F0A4F859
:10043000056806F10B0020F00704B4429CBF0020C1
:1004400070BD2B466A68BAB11068A04210D304F19F
:10045000080188423CBF5068586007D351681019A2
:1004600041601168091B016058601460101D70BD67
:1004700013465268002AE7D12146284600F08CF83E
:100480000028DED170BD70B50446051F00F074F879
:100490000068002C14BF446870BD002C18BFAC422B
:1004A0003CBF20466468F8D301680A18AA4218BF06
:1004B000456003D12A680546114401602868411946
:1004C000A1421CBF6C6070BD61686960216808440E
:1004D000286070BD10B500F057F8006810BD10B569
:1004E000044600F051F8046010BD2DE9F0410746C4
:1004F00015460E461020FFF797FF04000AD06760EC
:10050000C4E9026500F03CF8016821600460002045
:10051000BDE8F0810120FBE710B500F0ADF8BDE8C3
:10052000104000F0A4B84FF0000200B51346944606
:100530009646203922BFA0E80C50A0E80C50B1F13B
:100540002001BFF4F7AF090728BFA0E80C5048BF4F
:100550000CC05DF804EB890028BF40F8042B08BFED
:10056000704748BF20F8022B11F0804F18BF00F8E9
:10057000012B70477047000000487047F0000020D2
:10058000004870472001002000487047E800002024
:10059000704770477047704738B504460A460020D8
:1005A0006946AFF30080002808BF38BD02460099B5
:1005B000204600F0A2F8012038BD012000F0D9B893
:1005C000F8B5AFF30080054600200C46102000BFB0
:1005D0000646A819A0420DD9324669460020AFF35D
:1005E0000080070008BF00F0C4F80098A04218BFC0
:1005F0000546C419FFF7C0FF05600746F01D20F04F
:1006000007004619284600F00AF8B44208BFF8BDB2
:10061000A21B31463868BDE8F84000F06EB80021F2
:100620000160C0E901107047102070472DE9F041CA
:100630000646FFF7A5FF8046454613E016B1E06881
:10064000B0420ED120682860D4E90101D8F80070CA
:1006500088472046FFF717FFD8F80000B842EBD1D3
:1006600000E025462C68002CE8D1BDE8F081002888
:1006700001D0FFF7D3BE704710B5002102A000F0F3
:100680005FF8012010BD0000534947414252543ADF
:100690002041626E6F726D616C207465726D696E5F
:1006A0006174696F6E00000000487047E800002028
:1006B0007546FFF7F9FFAE4605006946534620F040
:1006C0000700854618B020B5FFF7D6FDBDE82040ED
:1006D0004FF000064FF000074FF000084FF0000BFE
:1006E000AC46ACE8C009ACE8C009ACE8C009ACE86D
:1006F000C00921F007018D467047034640688C46CB
:10070000002818BF88423CBF03464068F8D31868E9
:100710001844884207D00CF1030020F00700001DA8
:10072000411A521A0146081D0A60FFF7ACBE10B507
:100730000446AFF300802046BDE81040FFF788BDB7
:1007400070B505460C460A2000E06D1C00F018F854
:1007500035B128780028F8D102E0641C00F010F8C8
:1007600014B120780028F8D1BDE870400A2000F0CC
:1007700007B810B500F00CF8BDE81040FFF777BFE0
:1007800008B569468DF800000320ABBE08BD000027
:1007900010B5012805D0002103A0FFF7D1FF0120EB
:1007A00010BD09A1F8E7000053494752544D454D8B
:1007B0003A204F7574206F662068656170206D6502
:1007C0006D6F7279000000003A2048656170206DFD
:1007D000656D6F727920636F7272757074656400F5
:1007E000FEE7000040F2A870C2F2000000F02CBA50
:1007F00040F2A870C2F2000000F026BA40F2D070B9
:10080000C2F2000000F020BA40F2D070C2F2000044
:1008100000F01ABA86B005F053FB05F0ABFB40F2CE
:100820004044C2F20004E06E0025029008208DF8DA
:100830000C006FF0007001904FF0FF300090ADF8A9
:10084000145006F0D1FA01688A68012190470168C6
:100850000A696946904740F2A860C2F2000084F835
:10086000645005F09FF940F6F040C2F2000005F038
:100870000FFA40F20008C2F2000808F1340413E055
:10088000B0FA80F098F80A5098F80B6047092846AB
:1008900031463A4604F036FD284631463A4604F0E1
:1008A00039FE012007F040FA204605F0E3FA204621
:1008B00005F0E6FAD8F844000128E1D105F000FB84
:1008C00005F024FBD8F84400DAE7000040F61810E1
:1008D000C2F2000000F0E4BC40F65800C2F2000092
:1008E00000F0DEBC40F2F870C2F2000000F0D8BCAC
:1008F00040F6D810C2F2000000F0D2BC40F6B800BA
:10090000C2F2000000F0CCBC40F63820C2F2000079
:1009100000F0C6BC40F67810C2F2000000F0C0BC87
:1009200040F69820C2F2000000F0BABC7047000008
:1009300072B600BFFEE7000090F82020013A012ABD
:1009400004D8006800F11402002004E000F1240241
:1009500001204FF480211368194311607047000093
:1009600010B590F820E0D0F800C0AEF1010EBEF155
:10097000010FDCF808E00ED81EF0E05F11D0CEF3D6
:10098000016E012000FA0EF018608B687BB1486898
:1009900043EAC0030DE000F1240101204FF480225E
:1009A00023E000F1240101204FF400121DE008684B
:1009B0004305D1E9030403430CEB0E10C0F880316A
:1009C000C0F88441097D012905D100F5C2710B6889
:1009D00043F480730B605168C0F88C11126800F505
:1009E000C071C0F88821002001220B681A430A60F8
:1009F00010BD0000B0B590F82020013A012A2FD890
:100A000046F20060C4F20000026842F00102026097
:100A1000026822F47C520260D1F814E0CC694A6A80
:100A20000368012C43EA022202600EF01F024FF01D
:100A3000010303FA02F2C3696FEA020C23EA02031C
:100A4000C36113D02CBBC36803EA0C03C360CB683B
:100A50008C8844EA034300EBCE0423640B4611E088
:100A6000416A41F4802141620120B0BDC368134353
:100A7000C3600B688C8844EA034300EBCE04236414
:100A800001F10C038C681B8843EA044300EBCE049D
:100A9000636443688D6943EA0204D1F810E0096A8F
:100AA000002D08BF03EA0C0444604369BEF1000F47
:100AB00043EA020408BF03EA0C040129446102D19D
:100AC000C1691143C161016821F001010160002089
:100AD000B0BD00007047000090F82020013A012AC4
:100AE00084BF0020704700681022002908BF0C2234
:100AF000805800F00300704710B590F82040013C8A
:100B0000012C0CD8D0F800C079B1DCF81040A40753
:100B10000FD100F1240101204FF4001276E000F122
:100B2000240101204FF4802270E0DCF80C40A4077F
:100B300070D00CEB011CDCF8B0410CF5D87E14F041
:100B400004049460DCF8B04119BFE4085460640DFB
:100B50001460DEF800400CF5DA7E04F00204D46084
:100B6000DCF8B44124075ABFDEF8004004F00F045B
:100B700008241461DEF800400029C4F307249461BE
:100B8000DEF800404FEA14445461DCF8B8211A70D2
:100B9000026802EB0112D2F8B8214FEA12225A7011
:100BA000026802EB0112D2F8B8214FEA12429A70A1
:100BB000026802EB0112D2F8B8214FEA1262DA7031
:100BC000026802EB0112D2F8BC211A71026802EB32
:100BD0000112D2F8BC214FEA12225A71026802EBCC
:100BE0000112D2F8BC214FEA12429A71026802EB5C
:100BF0000112D2F8BC214FEA1262DA71006814BF08
:100C000000F1100100F10C01002020220B681A43B2
:100C10000A6010BD00F1240101204FF40012F5E735
:100C200090F820100139012984BF00207047006826
:100C30008168C1F380618268C2F3C0628068114438
:100C4000C0F30070084470472DE9F04F81B00446AE
:100C500000684669D0F804908768D0F80CB0D0F8E6
:100C600010A0D0F81880F10703D1002530071CD45C
:100C700023E0F90710D00121BA07816009D4780771
:100C800000F1AA80380700F1B080204600F0A6FAF3
:100C900002E0204600F0A4FA0025F80500F1848067
:100CA000F80300F1AA80300707D51BF0100004D02C
:100CB000206845F400751021C160700708D51BF04D
:100CC000080005D020680821C160204600F0FAF92C
:100CD000B00706D52068C068800702D0204600F023
:100CE000F3F9700607D51AF0100004D0206845F417
:100CF000806510210161B00608D51AF0080005D002
:100D0000206808210161204600F00AFAF00606D5A5
:100D100020680069800702D0204600F003FAB00383
:100D200008D519F0100005D0206810214160204638
:100D300000F024FAF00308D519F0080005D0206867
:100D400008214160204600F055FA300440F18F80C0
:100D50005FEA497040F1888006F4807008EA10204C
:100D600028435FEA8871014648BF41F00201B2059D
:100D700058BF01465FEA48700D4648BF45F004057C
:100D8000700558BF0D4630056ED518F070006BD059
:100D900010380009052862D8DFE800F003535659DF
:100DA0005C5F45F008055AE020684FF48071BA0591
:100DB00081600AD4780512D4380519D4204600F091
:100DC00011FAF8037FF56FAF17E0204600F00CFA38
:100DD000F8037FF568AF10E04FF400655DE705F5B7
:100DE0000055F8037FF55FAF07E04FF4805554E7F7
:100DF00005F58045F8037FF556AF20684FF4803144
:100E0000BA0381600AD478030FD4380313D4204680
:100E100000F0ECF930073FF548AF4EE7204600F010
:100E2000E7F930073FF541AF47E705F500453007E3
:100E30003FF53BAF41E705F5803530073FF535AF6E
:100E40003BE745F010050AE045F0200507E045F0D6
:100E5000400504E045F0800501E045F48075206818
:100E6000816921F0700181612068042141604DB1E8
:100E7000606A40EA05012046616201B0BDE8F04FBA
:100E8000FFF728BE01B0BDE8F08F0000B0B5C8B1D3
:100E9000044690F8200010B9204600F077F820684A
:100EA000016841F00101016000F0A8FC054600BFA7
:100EB00020684168C90707D100F0A0FC401B0B283F
:100EC000F6D312E00120B0BD016821F002010160FB
:100ED00000F094FC054600BF2068416889070DD5E5
:100EE00000F08CFC401B0B28F6D3606A052140F40F
:100EF00000306062012084F82010B0BD217E0268BD
:100F0000012922F0800308BF42F080030360617E64
:100F10000268012922F0400308BF42F04003036049
:100F2000A17E0268012922F0200308BF42F02003BD
:100F30000360E17E0268012942F0100308BF22F03D
:100F400010030360217F0268012922F0080308BF13
:100F500042F008030360617F0268012922F0040364
:100F600008BF42F004030360D4E901C2D4E90335A9
:100F700061691A432A431143ACF101021143C16173
:100F800000200121606284F82010B0BDB0B586B0A9
:100F90000021CDE90411CDE90211006846F60002F6
:100FA000C4F200029042019136D046F20041C4F2F0
:100FB0000001884240F0838040F25011C2F20001EB
:100FC0000A6843F64000C4F20200531C0B6052B999
:100FD00000210091016841F000710160016801F099
:100FE0000071009100990021009150F8101C152407
:100FF00041F0080140F8101C50F8100C142500F0C6
:101000000800009000980320019040F20040C4F2D4
:10101000020000F5006037E043F64000C4F2020031
:101020000091016841F080610160016801F0806118
:101030000091009940F25011C2F200010A68531C5D
:101040000B6052B900210091016841F0007101600C
:10105000016801F00071009100990021009150F8A1
:10106000101C412441F0020140F8101C50F8100CF3
:10107000402500F00200009000984FF4405001908D
:1010800040F20040C4F202000221029100210391CB
:10109000032104910921059101A900F0D1FA284604
:1010A0000521002200F060FC284600F04DFC20469F
:1010B0000521002200F058FC204600F045FC06B057
:1010C000B0BD00007047000070B586B0044605F062
:1010D0008BFE01688A6800219047054605F084FE72
:1010E00001688A680121904729680646896928466F
:1010F0008847A04207D03068816930468847A042BF
:1011000006D006B070BD286869464269284603E0EB
:101110003068694642693046904706B070BD0000AD
:101120007047000070B586B0044605F05DFE0168AA
:101130008A6800219047054605F056FE01688A68D6
:101140000121904729680646896928468847A042B8
:1011500007D03068816930468847A04206D006B083
:1011600070BD286869464269284603E030686946D0
:1011700042693046904706B070BD000070470000DD
:10118000B0B5044690F8200001281DD1022084F853
:1011900020002068016821F00101016000F02EFBB1
:1011A000054600BF20684068C00713D000F026FB4A
:1011B000401B0B28F6D3606A40F4003060620520C3
:1011C00084F820000120B0BD606A40F40020606215
:1011D0000120B0BD00206062B0BD0000704700007B
:1011E0007047000070470000704700007047000023
:1011F000704700007047000070B5866D044600F02F
:10120000FDFA94F83510022920D105462068216C9A
:10121000026822F016020260426922F080024261F6
:1012200009B9A16C19B1016821F0080101600168D8
:1012300021F00101016000BF0068C0070AD000F082
:10124000DDFA401B05280FD82068F5E7802060658F
:1012500001200EE0E06D3F2101FA00F0B0600120B6
:1012600084F83500002004E020206065032084F825
:101270003500002184F8341070BD000090F835105E
:10128000022909D1052180F835100068016821F094
:1012900001010160002070478021416501207047F5
:1012A000F0B581B004460020009040F2B400C2F2D4
:1012B00000000268D4E9166048F2B51337680821C7
:1012C000C1F64E3381403942A2FB03250CD022687F
:1012D00013685B0708D5136823F004031360B1603B
:1012E000616D41F00101616501218140394208D001
:1012F00022685269120604D5B160616D41F00201A5
:10130000616504218140394208D022681268920741
:1013100004D5B160616D41F0040161651021814027
:10132000394215D020680268120711D5B1600268F1
:101330000168520306D4C90506D4016821F00801EA
:10134000016001E0080342D4216C09B120468847BE
:10135000E16D202000FA01F23A4244D0206803688F
:10136000DB0640D5B26094F835300268052B1ED1FB
:1013700022F016020260426922F080024261226C71
:101380000AB9A26C1AB1026822F0080202603F207A
:101390008840B060012084F83500216D00200029CC
:1013A00084F8340057D02046884701B0F0BD01686A
:1013B000520310D4C90512D4016821F01001016054
:1013C000012084F83500002084F8340007E0A16C87
:1013D0000029BBD1BCE7080301D4616C00E0E16BDC
:1013E00009B120468847606DA8B3606DC0072ED054
:1013F000052084F835002068A90A026822F001025D
:101400000260009A01328A4200921AD80268D2071A
:1014100017D0009A01328A42009212D80268D2078D
:101420000FD0009A01328A4200920AD80268D2078D
:1014300007D0009A01328A42009202D80268D2078D
:10144000DFD1012084F83500002084F83400E16CFD
:1014500009B12046884701B0F0BD00002DE9F041F8
:10146000044600F0CBF9002C4DD00546022084F84C
:1014700035000020216884F83400086820F001005D
:10148000086000BF0868C00706D000F0B7F9401B2D
:10149000052865D82168F5E7086848F23F02CFF2D1
:1014A0001002D4E90135024004F10C0E9EE8C1514E
:1014B0001A432A4310433043384340EA0800626A23
:1014C00040EA0C00042A40EA0E031FD1D4E90A5E68
:1014D000206B4EEA0302104308604869BEF1000F1A
:1014E00020F0030040EA050040F0040C14D0B8F5E9
:1014F000005F39D0B8F1000F45D1022D46D0012D43
:101500003BD04DB942E00120BDE8F0810B60486955
:1015100020F0070040EA020C6FF00F004AF6AB2201
:1015200050FA81F0CAF6AA22A0FB02231A0949F652
:101530006063C0F600039A5C40F2FF335F284FF00F
:101540003F00C1F814C021EA030100FA02F088BF8D
:101550000431C4E9161288600023012200201CE037
:1015600003222023032018E0032DD5D80122402395
:101570000120DFE805F0120B1202AEF1C070B0FAE4
:1015800080F0400904E0032D04D3C5D1CEF3006000
:101590000028C1D0012240230120636584F8352052
:1015A000BDE8F08170B590F834C0BCF1010F45D0B2
:1015B0004FF0010C80F834C0D0F858E090F835C0F6
:1015C000BCF1010F37D14FF0020C80F835C04FF05D
:1015D000000CC0F854C0D0F800C08468056CC06D21
:1015E000DCF80060402C26F48026CCF80060CCF8B3
:1015F00004300B4604BF13460A463F2101FA00F0AF
:10160000CCF80830CCF80C20CEF80800DCF800004C
:1016100040F01600CCF800002DB1DCF8000040F0DE
:101620000800CCF80000DCF8000040F00100CCF825
:101630000000002070BD002180F83410022070BD31
:101640002DE9F04F82B000F13E4242F2004502F136
:10165000FF77C4F202050A224FEAB726A84208BF64
:101660000922092E38BF4FEAB7224FF0010A0024A1
:1016700000274FF00008009208E000BF023708F191
:101680000108202F04F1040400F0B4800E680AFA67
:1016900008F916EA090FF1D0D1F804A00AF0030BFB
:1016A000ABF10106012E17D80322866802FA07FE65
:1016B000CA6826EA0E06BA40324382604268CAF31C
:1016C000001522EA090205FA08F54FEA480C6FEA0C
:1016D0000E062A4342600BE00322BA40D643BBF118
:1016E000030FBC4604D1BC464FF0030B22E000BF01
:1016F000C2688D68324005FA0CF52A43BBF1020F2F
:10170000C26017D16FF0030202EA5802024404F0EB
:101710001C030F25D2F820E005FA03FA0D692EEA22
:101720000A0E05FA03F343EA0E031362D1F804A08C
:101730000AF0030B02680BFA0CF332401A431AF456
:10174000403F4FF0010A026098D0002243F6440364
:101750000192C4F202031A6843F6004E42F480423A
:101760001A601A68C4F2010E02F480420192019AD2
:1017700028F003024FF6084C7244CFF6FF7C52F873
:101780000C3004F00C060F25B540AB43009D05FA64
:1017900006F6334342F80C30DEF808204B6842EA84
:1017A000090643F60C4CDD0258BF22EA0906CEF8C2
:1017B0000860C4F2010CDCF800209D0242EA090630
:1017C00058BF22EA0906CCF80060DEF804209D0329
:1017D00042EA090658BF22EA0906CEF80460DEF89C
:1017E0000020DB0342EA090658BF22EA0906CEF8C8
:1017F000006043E702B0BDE8F08F000044F604400B
:10180000C2F200000068704740F2D80044F604417C
:10181000C2F20000C2F2000100780A6810440860B9
:101820007047000080B543F60040C4F20200016832
:1018300041F400710160016841F480610160016858
:1018400041F480710160032000F0BAF80F2000F02D
:1018500005F800F057F8002080BD0000B0B586B054
:10186000002543F644010195C4F202010A680446CA
:1018700042F001020A60096801A801F0010101912A
:101880000199694600F09AF900F0CCF94DF68361B0
:101890004000C4F21B31A0FB01014FF0FF3000EB10
:1018A000914140F6F8200022C2F20000C4F2010289
:1018B00040F2E733C0E90021C0E9025305618561C8
:1018C00000F0B0FB0546C8B940F6F820C2F20000AF
:1018D00000F0D8FB054688B9192000F035F80F2C28
:1018E0000BD8192021460022002500F03DF840F2D7
:1018F000DC00C2F20000046000E00125284606B0CA
:10190000B0BD000082B0002043F640010190C4F257
:1019100002014A6842F480424A604A6802F4804206
:101920000192019A00900868002240F080500860FF
:1019300008680F2100F08050009000986FF00100BF
:1019400002B000F011B80000002848BF704700F056
:101950001F01012202FA01F14EF200124009CEF2FB
:10196000000242F82010704710B54EF60C5CCEF223
:10197000000CDCF80030C3F3022E8EF00704042CB8
:1019800028BF0424BEF103034FF0FF3E0EFA04F417
:1019900038BF0023A14399400EFA03F39A4300F0A5
:1019A0000F03043B1143634409010C3300F160420F
:1019B000B0F1FF3FC8BF02F56443197010BD0000CD
:1019C0004EF60C51CEF200010A684FF6FF031A40A2
:1019D00060F30A2242F0806040F0FD7008607047BA
:1019E00070B582B00020019043F64000C4F20200BE
:1019F0000168402641F0805101600068C4F20E2663
:101A000000F080500190019847F204050120C4F2D3
:101A100000053060FFF7F2FE044600BF2868C003EF
:101A200006D4FFF7EBFE001BB0F57A7FF6D90EE087
:101A300001207060FFF7E2FE044600BF28688003C3
:101A400008D4FFF7DBFE001BB0F57A7FF6D9032040
:101A500002B070BD002002B070BD00002DE9F04161
:101A6000002800F08B8043F60808C4F20208044600
:101A7000D8F8F8030D4600F00F00884207D288F826
:101A8000F853D8F8F80300F00F00A84276D1206888
:101A9000810717D5410705D5D8F8001041F4E0516A
:101AA000C8F80010010705D5D8F8001041F46041CE
:101AB000C8F80010D8F80010A26821F0F001114316
:101AC000C8F80010C0073FD1D8F8F80300F00F00A5
:101AD000A84207D988F8F853D8F8F80300F00F00A7
:101AE000A8424BD12068410707D5D8F80010E2681A
:101AF00021F4E0511143C8F80010000708D5D8F8C8
:101B00000000216920F4604040EAC100C8F80000EC
:101B100000F09CF8D8F8001049F6C042C1F3031158
:101B2000C0F60002515C40F2B40220FA01F140F22A
:101B3000DC00C2F200000068C2F200021160FFF790
:101B40008DFE0020BDE8F0816068811E022907D269
:101B500058F8081C89015CBF0120BDE8F08110E045
:101B6000012807D158F8081C89035CBF0120BDE893
:101B7000F08106E058F8081C890702D40120BDE86E
:101B8000F081D8F8001021F003010843C8F80000E4
:101B9000FFF734FE064641F2883700BFD8F8000050
:101BA000616800F00C00B0EB810F8DD0FFF726FECE
:101BB000801BB842F2D90320BDE8F0810F220260F9
:101BC00043F60802C4F20202136803F00303436001
:101BD000136803F0F0038360136803F4E053C360F9
:101BE000D2F800C04FF4E05303EADC030361D2F8FB
:101BF000F80300F00F0008607047000040F2B400E6
:101C000043F60801C2F20000C4F20201006809684C
:101C100049F6D042C1F38221C0F60002515CC840AF
:101C20007047000040F2B40043F60801C2F2000021
:101C3000C4F202010068096849F6D042C1F342319A
:101C4000C0F60002515CC8407047000010B543F672
:101C50000404C4F20204606800F00C0008280AD0F2
:101C6000042819BF42F20040C0F2F40041F60030EF
:101C7000C0F2B70010BD206821682368490241F610
:101C80000031C0F2B70100F03F02C3F388105CBF1F
:101C900042F20041C0F2F401A1FB00010023FEF773
:101CA000FDFA21680222C1F3014102EB4101B0FBC0
:101CB000F1F010BD2DE9F04182B0002868D0044653
:101CC000007843F60006C007C4F202060BD0B068E5
:101CD00000F00C00042840F0A0803068800302D59A
:101CE0006068002854D0207880071AD5B06810F0BA
:101CF0000C0F09D0B06800F00C00082840F0B48048
:101D00007068400200F1B0803068800702D5E0685A
:101D100001283DD13068216920F0F80040EAC10077
:101D200030602078000737D4207840074BD4A5696D
:101D300055B3B06800F00C00082840F0DA80012D9F
:101D400026D07068E16900F480028A4220D1216ABD
:101D500000F03F028A421BD147F6C071626A01401F
:101D6000B1EB821F14D1A16A4FF6FF73C9039943E7
:101D700000F44032A1F580318A4209D1E16A00F0D5
:101D80007060B0EB016F03D1002002B0BDE8F081BC
:101D9000012002B0BDE8F0816069002840F2000037
:101DA000C4F2472000F091800121C0F8801EFFF7A7
:101DB00025FD0546706F8007B6D4FFF71FFD401B59
:101DC0000228F7D991E0306C4FF00008C0000CD425
:101DD000CDF80480306C4FF0010840F08050306442
:101DE000306C00F080500190019847F20007C4F277
:101DF00000073868C0054DD4386840F480703860FA
:101E0000FFF7FCFC054600BF3868C00542D4FFF769
:101E1000F5FC401B0228F7D967E0B06800F00C0021
:101E2000082803D1706840023FF557AF6568B5F5E3
:101E3000803F07D03068B5F5A02F40F0B38040F464
:101E400080203060306840F480303060FFF7D6FC8E
:101E5000054600BF306880033FF545AFFFF7CEFC75
:101E6000401B6428F6D940E0E068002864D00020D8
:101E7000C4F2472001210160FFF7C0FC054600BF06
:101E8000306880073FF546AFFFF7B8FC401B0228DB
:101E9000F6D92AE0A568012D05D0306F052D5FD158
:101EA00040F004003067306F40F001003067FFF70A
:101EB000A5FC054641F28837306F800769D4FFF7EB
:101EC0009DFC401BB842F7D90FE00021C0F8801EEE
:101ED000FFF794FC054600BF706F80077FF524AFC5
:101EE000FFF78CFC401B0228F6D9032002B0BDE8A6
:101EF000F0810027C4F2472700203866FFF77EFCF8
:101F0000022D05460CD100BF3068800164D5FFF773
:101F100075FC401B02284FF00300F5D935E700BFE0
:101F2000306880017FF530AFFFF768FC401B022866
:101F30004FF00300F4D928E70020C4F24720002125
:101F40000160FFF75BFC0546306880077FF5E9AE6E
:101F5000FFF754FC401B02284FF00300F4D914E7AC
:101F600020F001003067306F20F004003067FFF789
:101F700045FC002D05469DD141F28837306F800722
:101F800007D5FFF73BFC401BB8424FF00300F5D9E3
:101F9000FBE6B8F1000F3FF4CAAE306C20F0805081
:101FA0003064C4E620F480303060306820F4802053
:101FB0003060FFF723FC002D05467FF44BAF07E0B0
:101FC000FFF71CFC401B64284FF003003FF6DDAE1A
:101FD00030688003F4D486E604F11C052FCD084355
:101FE00040EA8210D9034FF6FF729143A1F5803188
:101FF00040EA05600843706001203866FFF7FEFB89
:10200000044600BF306880013FF5BEAEFFF7F6FB27
:10201000001B02284FF00300F4D9B6E67047000019
:1020200070470000002804BF0120704710B5044627
:1020300090F83D0028B9002084F83C00204600F0CC
:102040001FF8022084F83D002068211D01F08EFF5A
:10205000012084F8460084F83E0084F83F0084F8AC
:10206000400084F8410084F8420084F8430084F87A
:10207000440084F8450084F83D00002010BD0000B5
:102080007047000090F83D1001291CBF01207047E7
:10209000022180F83D10006841F2FF72C168C4F26D
:1020A0000002904241F00101C1600DDC40F2FF717D
:1020B000C4F20001884215DCB0F1804F29D040F213
:1020C0000041C4F2000122E040F2FF31C4F20101FC
:1020D000884212DC41F60001C4F20001884218D0A7
:1020E000002112E040F60001C4F20001884210D045
:1020F00040F60041C4F2000109E044F20001C4F2DC
:102100000101884205D040F20041C4F20101884239
:1021100006D1816801F00701062904BF002070473D
:10212000016841F001010160002070477047000024
:10213000B0B504460068C168026902EA0105A90752
:102140001ED4680732D4280748D4E8065DD4E807CF
:1021500074D128067CD4680606D520686FF040014B
:102160000161204600F0E6F9A80658BFB0BD21681D
:102170006FF0200220460A61BDE8B040FFF750BF73
:102180006FF002010161012121778069800703D08E
:102190002046FFF7CBFF05E0204600F065F820461B
:1021A00000F0BCF9002020776807CCD520686FF0DC
:1021B0000401016102212177806910F4407F03D07E
:1021C0002046FFF7B3FF05E0204600F04DF820461B
:1021D00000F0A4F9002020772807B6D520686FF01A
:1021E0000801016104212177C069800703D02046DE
:1021F000FFF79CFF05E0204600F036F8204600F08F
:102200008DF900202077E806A1D520686FF0100135
:10221000016108212177C06910F4407F03D0204676
:10222000FFF784FF05E0204600F01EF8204600F08E
:1022300075F900202077E8073FF48BAF20686FF036
:1022400001010161204600F06BF928067FF583AF9C
:1022500020686FF0800101612046FFF7DFFE68060D
:102260007FF582AF79E70000704700002DE9F0416B
:1022700090F83C30012B04BF0220BDE8F0814FEA0A
:10228000B2020123032A80F83C3000F2F780DFE835
:1022900002F0023F7FC003681C6A1A6A24F002043D
:1022A00022F001021A621A46D3F804C052F8186FDD
:1022B0000D6826F073068F6846EA050E40F2004668
:1022C00043F48065C4F20106B54244EA070405D12F
:1022D000CF6824F00C0427F004073C43B54206D134
:1022E000D1E905652CF44077374347EA050CC3F87C
:1022F00004C0C3F818E04F6809695F631C629F69F6
:1023000047F008079F619F6927F004079F61B1E0CC
:10231000036840F200481D6A1A6AC4F2010822F0FC
:1023200010021A621A46D3F804C052F8187F0E68D9
:1023300027F4E6478C6847EA062E25F0200743F489
:102340008065454547EA041407D1CF686FF0400621
:1023500024F0C00406EA07163443454507D1D1E905
:1023600005652CF4406747EA860747EA850CC3F801
:1023700004C0C3F818E04F6809699F631C629F6935
:1023800047F400679F619F6927F480679F6170E051
:10239000036840F200481D6A1A6AC4F2010822F478
:1023A00080721A621A46D3F804C052F81C7F0E6875
:1023B00027F073078C6847EA060E25F4007743F48C
:1023C0008065454547EA042408D1CF6840F2FF46BE
:1023D0003F0224F4406427EA06063443454507D10A
:1023E000D1E905652CF4405747EA061747EA051C72
:1023F000C3F804C0C3F81CE04F680969DF631C62BE
:10240000DF6947F00807DF61DF6927F00407DF6154
:1024100030E0036840F20047D3F820C01A6A43F462
:10242000806522F480521A621A465C6852F81C6F6A
:10243000C4F20107BD420F6826F4E6468D6846EAFD
:1024400007272CF4005646EA053604D14D6924F4DA
:10245000804444EA85145C60DF614F6809691F6449
:102460001E62DF6947F40067DF61DF6927F4806778
:10247000DF6109021368194300231160002180F80D
:102480003C101846BDE8F081002804BF01207047C9
:1024900010B5044690F83D0028B9002084F83C00AF
:1024A000204600F01FF8022084F83D002068211D1E
:1024B00001F05CFD012084F8460084F83E0084F8B9
:1024C0003F0084F8400084F8410084F8420084F81A
:1024D000430084F8440084F8450084F83D0000205F
:1024E00010BD000081B0006841F60001C4F2000197
:1024F000884201D001B070470020009043F64000B0
:10250000C4F20200016841F040010160006800F07F
:1025100040000090009801B0704700007047000034
:1025200000680021C4F20101884208BFFFF76CB9BE
:10253000704700007047000070B582B0044690F804
:102540004200202845D100294FF0010518BF002A7C
:1025500040D00125002620462563666302F070F80E
:10256000216B012936D1019621680A6801924A68D7
:102570000192019A51E8031F226841F0100142E8DC
:10258000031353B3216851E8031F226841F010017F
:1025900042E803131BB3216851E8031F226841F08E
:1025A000100142E80313E3B1216851E8031F2268D8
:1025B00041F0100142E80313ABB1216851E8031F59
:1025C000226841F0100142E80313002BDAD10546DE
:1025D00000E00225284602B070BD0546FAE7054630
:1025E000F8E70546F6E70546F4E70000B0B584B025
:1025F0000446006847F60002C4F20002904233D05D
:1026000047F60042C4F2000290424AD041F2000272
:10261000C4F20102904260D140F28460C2F2000034
:10262000029049F61040C0F60000D0E90002ADF873
:102630000C10CDE9000205F027F801688A68002136
:10264000904705460068816B28468847A04244D1E0
:10265000286802A9026B2846904728686946826A62
:102660002846904704B0B0BD40F2E840C2F20000F6
:10267000029049F62040C0F60000D0E90002ADF813
:102680000C10CDE9000204F0FFFF01688A68022106
:10269000904705460068816B28468847A0421CD1B8
:1026A000D6E740F25410C2F20000029049F61840FA
:1026B000C0F60000D0E90002ADF80C10CDE9000230
:1026C00004F0E2FF01688A6803219047054600682C
:1026D000816B28468847A042BAD004B0B0BD000044
:1026E00070B584B00446006847F60001C4F20001EA
:1026F000884223D047F60041C4F20001884235D019
:1027000041F20001C4F20101884244D149F610406F
:10271000C0F60000D0E90001CDE9020104F0B4FFE9
:10272000016800268A680021904705460068816B91
:1027300028468847A0422ED1019630E049F6204035
:10274000C0F60000D0E90001CDE9020104F09CFFD1
:1027500001688A680221904705460068816B284617
:102760008847A04217D10020019018E049F6184090
:10277000C0F60000D0E90001CDE9020104F084FFB9
:1027800001688A680321904705460068816B2846E6
:102790008847A04201D004B070BD0020019020689D
:1027A00001680191406802A9019001982868826A35
:1027B0002846904704B070BDF0B581B0044600686B
:1027C0000168C268456901F02F03202B02F0200345
:1027D00006D12BB1204601B0BDE8F04001F044BE67
:1027E0005FEA017C07D005F0010E12F4907F8EF0B5
:1027F00001052FD175B3236B1140CA0618D5012BE3
:1028000016D1002100910168009141680091009962
:102810004169490600F17E81A18DE28DE38D002B97
:102820001CBF891A5FEA014240F0FD8001B0F0BD93
:102830000A0600F125824906F8D5C16821F0400159
:10284000C1602021204684F8411001B0BDE8F0406D
:1028500000F0F2BECE0718BF12F4807603D0666C8B
:1028600046F00106666401F00407012686EA970730
:102870002F4303D1676C47F00207676401F002073A
:1028800086EA5706354303D1656C45F00405656457
:1028900053EA0E0318BF0123BCF1000F04D51BB18E
:1028A000636C43F008036364636C002BBED011407B
:1028B000890603D5204601F0D7FD20684169626C86
:1028C00001F0400102F00802891800F0FA8100BF0F
:1028D00050E8030F216820F4907041E80302C2B36E
:1028E000206850E8030F216820F4907041E803024B
:1028F0007AB3206850E8030F216820F4907041E813
:10290000030232B3206850E8030F216820F490706E
:1029100041E80302EAB12068DAE700BF206850E826
:10292000050F216820F0010041E80502DAB12068B6
:1029300050E8050F216820F0010041E8050292B13E
:10294000206850E8050F216820F0010041E80502E9
:102950004AB1206850E8050F216820F0010041E8E5
:102960000502002ADAD1206B012824D1206850E822
:10297000030F216820F0100041E80302DAB120685B
:1029800050E8030F216820F0100041E8030292B1E3
:10299000206850E8030F216820F0100041E803028E
:1029A0004AB1206850E8030F216820F0100041E888
:1029B0000302002ADAD1202084F84200002020639C
:1029C00020684169490640F1958150E8050F21686A
:1029D00020F0400041E80502002A00F079812068DB
:1029E00050E8050F216820F0400041E80502002A68
:1029F00000F06E81206850E8050F216820F040004B
:102A000041E80502002A00F06381206850E8050FC4
:102A1000216820F0400041E80502002A00F05881BA
:102A20002068D2E7206850E8030F226820F49070F5
:102A300042E80303BBB3206850E8030F226820F488
:102A4000907042E8030373B3206850E8030F2268D4
:102A500020F4907042E803032BB3206850E8030F82
:102A6000226820F4907042E80303002BDAD11AE0C8
:102A7000206850E8050F226820F0010042E80503B5
:102A8000DBB1206850E8050F226820F0010042E821
:102A9000050393B1206850E8050F226820F001007B
:102AA00042E805034BB1206850E8050F226820F08A
:102AB000010042E80503002BDAD1202084F842000F
:102AC00000202063206850E8030F226820F01000E7
:102AD00042E80303DBB1206850E8030F226820F0CE
:102AE000100042E8030393B1206850E8030F226806
:102AF00020F0100042E803034BB1206850E8030FB8
:102B0000226820F0100042E80303002BDAD10222F1
:102B100089B2CFE0E36B19684D68A28DA9B2002994
:102B200000F0BF80914280F0BC80E585D969B1F5A5
:102B3000807F00F09E8050E8030F216820F48070B1
:102B400041E80302E2B1206850E8030F216820F455
:102B5000807041E803029AB1206850E8030F2168B1
:102B600020F4807041E8030252B1206850E8030F5E
:102B7000216820F4807041E803020AB12068DAE796
:102B8000206850E8050F216820F0010041E80502A7
:102B9000BAB3206850E8050F216820F0010041E831
:102BA000050272B3206850E8050F216820F001008B
:102BB00041E805022AB3206850E8050F216820F09B
:102BC000010041E80502002ADAD11AE0206850E845
:102BD000050F216820F0400041E80502DAB12068C5
:102BE00050E8050F216820F0400041E8050292B14D
:102BF000206850E8050F216820F0400041E80502F8
:102C00004AB1206850E8050F216820F0400041E8F3
:102C10000502002ADAD1202084F842000020206337
:102C2000206850E8030F216820F0100041E80302FB
:102C3000DAB1206850E8030F216820F0100041E865
:102C4000030292B1206850E8030F216820F01000C1
:102C500041E803024AB1206850E8030F216820F0E0
:102C6000100041E80302002ADAD1E06BFEF7C4FA53
:102C7000A28D02206063E08D101A81B220461BE015
:102C800094F8411021297FF4D1ADA168B1F5805F9E
:102C900001D12169A1B3216A4A1C226209784160ED
:102CA00035E08A427FF4C2ADD869B0F5807F7FF409
:102CB000BDAD02222046626301B0BDE8F040FFF7DF
:102CC00095BC2046FFF70CFD0020606401B0F0BD0C
:102CD000E06B78B144F2B101C0F600010165FEF786
:102CE000CDFA00283FF4A2ADE06B016D01B0BDE864
:102CF000F0400847204601B0BDE8F040FFF7F0BCC7
:102D0000216A31F8022B6FF35F2242602162E18C6D
:102D100001390A04E1847FF489ADC16821F08001A2
:102D2000C160C16841F04001C16001B0F0BD000068
:102D3000002804BF0120704710B5044690F84100F8
:102D400028B9002084F84000204600F021F8242013
:102D500084F841002068C16821F40051C160204618
:102D600001F000FC2068016921F490410161416992
:102D700021F02A014161C16841F40051C160002085
:102D80002021606484F8411084F84210606310BD13
:102D90002DE9F04387B00446006847F6FF31C4F2DE
:102DA000000188424FF000010691CDE90411CDE900
:102DB000021140F3808047F60041C4F200018842CE
:102DC00000F0F08041F20001C4F20101884200F0FD
:102DD0004E8141F20041C4F20101884240F0EA8193
:102DE000002643F630000196C4F20200416946F223
:102DF000100841F0200141614169C4F2020801F06C
:102E00002001019101990196016841F040010160A2
:102E1000006802A900F04000019001984FF484403E
:102E200002900220CDE903060320059008200690B9
:102E300041F20000C4F2020000F50060FEF700FC61
:102E400040F6382508F58360C2F200054FF0206790
:102E50004FF48069C5E900072846C5E90266C5E95F
:102E60000496C5E90666C5E90866FEF7F7FA002884
:102E700018BFFDF75DFDE563AC6340F6982508F5E6
:102E80009260C2F200054021C5E9000705F1080083
:102E900080E842022846C5E90566C5E907666E6214
:102EA000FEF7DCFA002818BFFDF742FDA56305F127
:102EB0003800472575E144F20041C4F20001884220
:102EC00000F0238147F60001C4F20001884240F07F
:102ED0007181002643F630000196C4F202000169B8
:102EE00046F2100841F0804101610169C4F2020814
:102EF00001F08041019101990196016841F01001B2
:102F00000160006802A900F01000019001984FF4E0
:102F1000C07002900220CDE903060320059008202E
:102F2000069041F20000C4F20200FEF789FB40F275
:102F3000F87508F14800C2F200054FF020674FF421
:102F40008069C5E900072846C5E90266C5E9049617
:102F5000C5E90666C5E90866FEF780FA002818BFCD
:102F6000FDF7E6FCE563AC6340F6580508F1180090
:102F7000C2F200054021C5E9000705F1080080E81C
:102F800042022846C5E90566C5E907666E62FEF796
:102F900065FA002818BFFDF7CBFCA56305F13800E2
:102FA0005225FEE0002643F630000196C4F20200EE
:102FB000016946F2100841F0004101610169C4F263
:102FC000020801F00041019101990196016841F068
:102FD000100101600068022100F0100001900198CA
:102FE00003200290CDE9031605900820069041F2D7
:102FF0000000C4F2020002A9FEF722FB40F6B80569
:1030000008F19000C2F200054FF020674FF480698C
:10301000C5E900072846C5E90266C5E90496C5E981
:103020000666C5E90866FEF719FA002818BFFDF71D
:103030007FFCE563AC6340F61815C2F20005402042
:1030400005F10801C5E9008781E841022846C5E984
:103050000566C5E907666E62FEF700FA002818BF2C
:10306000FDF766FCA56305F13800532599E00026BD
:1030700043F630000196C4F20200416941F01001AC
:103080004161416901F010010191019901960168C6
:1030900041F002010160006802A900F00200019005
:1030A0000198C02002900220CDE90306032005907C
:1030B0000720069041F20000C4F20200A0F5406033
:1030C000FEF7BEFA46F21000C4F2020040F6781590
:1030D00000F58660C2F200054FF000614FF4806297
:1030E00085E843002846C5E90362C5E90566C5E9E8
:1030F00007666E62FEF7B2F9002818BFFDF718FCEC
:10310000E56305F1380025254BE0002643F6300045
:103110000196C4F20200016941F4003101610169C4
:1031200001F40031019101990196016841F0080113
:103130000160006802A900F0080001900198602079
:1031400002900220CDE90306032005900720069097
:1031500041F20000C4F20200A0F58060FEF770FAB0
:1031600046F21000C4F2020040F6D8157830C2F2E0
:1031700000054FF000614FF4806285E84300284667
:10318000C5E90362C5E90566C5E907666E62FEF733
:1031900065F9002818BFFDF7CBFBE56305F13800A2
:1031A00026250460284605210022FEF7DDFB28467F
:1031B000FEF7CAFB07B0BDE8F08300002DE9F0433D
:1031C00081B0044690F84200202863D18946002946
:1031D0004FF001005BD01746002A58D04FF000088E
:1031E00022201D46C4F8448084F84200C4F8308090
:1031F000FEF704FBA785E785A1680746B1F5805F68
:1032000005D12069002814BF4846C8468146E08D94
:10321000C8B36E1C206800BF0168890614D4002E54
:10322000FAD0FEF7EBFA002D00F0BC80C01BA842DC
:1032300000F2B8802068C168490744BF01685FEAAE
:103240000171E9D52AE000BFB9F1000F0AD0A168E9
:10325000B1F5805F0ED009B9216959B1406800F01D
:103260007F0008E040684FF000096FF35F2028F806
:10327000020B02E0406809F8010BE08D0138E0859F
:10328000E08D0028C6D1202084F84200002001B043
:10329000BDE8F083022001B0BDE8F0830021009179
:1032A0000168009141680091009900BF50E8030F48
:1032B000216820F4907041E80302C2B3206850E80E
:1032C000030F216820F4907041E803027AB320686C
:1032D00050E8030F216820F4907041E8030232B3F4
:1032E000206850E8030F216820F4907041E8030241
:1032F000EAB12068DAE700BF206850E8050F2168CE
:1033000020F0010041E80502DAB1206850E8050F1D
:10331000216820F0010041E8050292B1206850E8E0
:10332000050F216820F0010041E805024AB120683C
:1033300050E8050F216820F0010041E80502002A4D
:10334000DAD1206B012824D1206850E8030F2168CE
:1033500020F0100041E80302DAB1206850E8030FC2
:10336000216820F0100041E8030292B1206850E883
:10337000030F216820F0100041E803024AB12068E1
:1033800050E8030F216820F0100041E80302002AF2
:10339000DAD1202084F842000020082120636164F3
:1033A00084F84000202084F84200032001B0BDE8EA
:1033B000F083000090F84230202B1CBF02207047A1
:1033C00000294FF0010318BF002A01D118467047A9
:1033D0000023036301F034B990F84230202B1CBF66
:1033E0000220704700294FF0010318BF002A01D1C5
:1033F0001846704700230363816222218285C285BB
:10340000436480F842100169006819B1C16841F451
:103410008071C1604169002341F001014161C168CF
:1034200041F02001C160184670470000704700005D
:10343000704700002DE9F04381B0044690F8410048
:10344000202859D1894600294FF0010063D0164643
:10345000002A60D04FF0000821201D46C4F84480A7
:1034600084F84100FEF7CAF9A684E684A1680646FE
:10347000B1F5805F05D12069002814BF4846C846D1
:103480008146E28C2068016822B36F1C01E000BF16
:10349000016809060AD4002FFAD0FEF7AFF97DB310
:1034A000801BA8422CD82068C168F1E7B9F1000F51
:1034B00002D019F8011B05E038F8021B4FF0000993
:1034C0006FF35F214160E18C0139E184E28C016896
:1034D000002ADED149061AD46F1C02E001684906B1
:1034E00015D4002FFAD0FEF789F94DB1801BA84200
:1034F00006D82068C168F1E7022001B0BDE8F0837A
:10350000202084F84100032001B0BDE8F083202092
:1035100084F84100002001B0BDE8F083B0B5044656
:1035200090F8410020281CBF0220B0BD00294FF0B8
:10353000010063D01346002A60D04FF0000C212018
:103540002162A384E384C4F844C084F84100A06BE2
:1035500044F2B13E44F261452268C0F6000EC0F666
:103560000005C0E90FE544F2BD05C0F600050432D0
:10357000C0E9135CFEF716F830B11020606420201B
:1035800084F841000120B0BD20686FF0400140F890
:10359000141B50E8000F216840F0800041E805024C
:1035A0004AB300BF206850E8050F216840F0800052
:1035B00041E805020AB3206850E8050F216840F091
:1035C000800041E80502B2B1206850E8050F21688B
:1035D00040F0800041E805026AB1206850E8050F1C
:1035E000216840F0800041E80502002A4FF0000009
:1035F00008BFB0BDD6E70020B0BD0020B0BD0000C0
:10360000034690F8410020281CBF02207047002983
:103610004FF0010018BF002A00D170471962002046
:1036200021219A84DA84586483F841101968CA68A1
:1036300042F08002CA607047704700007047000087
:10364000FEE7000080B540F2A87046F20041C2F2E9
:103650000000C4F200010922002380E80E0000F1FE
:103660000C014FF4803C4FF4801E81E808508361C8
:103670008383FDF70BFC002808BF80BDBDE88040B8
:10368000FDF756B980B540F2D07046F60001C2F29F
:103690000000C4F200010922002380E80E0000F1BE
:1036A0000C014FF4803C4FF4801E81E80850836188
:1036B0008383FDF7EBFB002808BF80BDBDE8804099
:1036C000FDF736B980B582B0002043F63001019095
:1036D000C4F202010A6842F480020A600A6802F435
:1036E00080020192019A00900868002240F40010C4
:1036F00008600868052100F40010009000980B2075
:10370000FEF732F90B20FEF71FF90C2005210022ED
:10371000FEF72AF90C20FEF717F90E2005210022EA
:10372000FEF722F90E20FEF70FF9102005210022E6
:10373000FEF71AF91020FEF707F9112005210022E3
:10374000FEF712F91120FEF7FFF8392005210022BB
:10375000FEF70AF93920FEF7F7F83A200521002292
:10376000FEF702F93A20FEF7EFF845200521002286
:10377000FEF7FAF8452002B0BDE88040FEF7E4B855
:1037800010B59CB049F67C40C0F6000090E80E50A1
:10379000D0E90540159116921793CDF860C0CDF889
:1037A00064E0CDE91A4015A8002104F0CBFA40F2FC
:1037B0003C61C2F20001086049F66040C0F60000BA
:1037C00090E81E5080690E9114900EA800210F926F
:1037D00010931194CDF848C0CDF84CE004F0B2FA43
:1037E00040F2FC41C2F20001086049F64440C0F6D4
:1037F000000090E81E50806907910D9007A80021F5
:10380000089209930A94CDF82CC0CDF830E004F06A
:1038100099FA40F24C11C2F20001086049F62840C2
:10382000C0F6000090E81E5080698DE81E5006909A
:103830006846002104F086FA40F24811C2F2000105
:1038400008601CB010BD000081B0002143F63000BC
:103850000091C4F20200026842F0100202600268A5
:1038600002F010020092009A0091026842F04002B9
:103870000260026802F040020092009A0091026821
:1038800042F001020260026802F001020092009A16
:103890000091026842F002020260026802F0020235
:1038A0000092009A0091026842F0080202600268E9
:1038B00002F008020092009A0091016841F0800134
:1038C0000160006800F080000090009801B070472F
:1038D000B0B58EB041F6000540F64030C4F20005A8
:1038E0000024C2F20000B321F9220794CDE9054477
:1038F000CDE90344CDE90144C0E90051C0E90242E9
:1039000004618461FEF7C0FD002818BFFDF710F8C0
:103910006020CDE901040394059440F64034C2F2DE
:10392000000401A920460022FEF7A0FC002818BFD1
:10393000FCF7FEFF21680020A9420D90CDE90B00A5
:103940000A90099001D00EB0B0BD43F63001089046
:10395000C4F202010A6842F080020A60096801F0BC
:10396000800108910899402109910221CDE90A10AE
:103970000C9009200D9005F5013009A9FDF760FEB6
:103980000EB0B0BD80B540F6604047F60001C2F20F
:103990000000C4F2000100234FF00C0C4FF4E132A0
:1039A00080E80E00C0E90333C0E905C3C361FFF737
:1039B000BFF9002808BF80BDBDE88040FCF7B8BF54
:1039C00080B540F6A84047F60041C2F20000C4F2BC
:1039D000000100234FF00C0C4FF47A3280E80E0007
:1039E000C0E90333C0E905C3C361FFF7A1F90028AB
:1039F00008BF80BDBDE88040FCF79ABF10B540F617
:103A0000883041F2000C48F2A062C2F20000C4F219
:103A1000010CC0F201024FF4805300214FF4806E7C
:103A20000C24C0E900C2C0E90231C0E904E4C0E9E5
:103A30000611FFF77DF9002808BF10BDBDE8104052
:103A4000FCF776BF80B540F6D03044F20041C2F2B8
:103A50000000C4F2000100234FF00C0C4FF47A3246
:103A600080E80E00C0E90333C0E905C3C361FFF776
:103A70005FF9002808BF80BDBDE88040FCF758BF53
:103A800080B540F6184041F20041C2F20000C4F295
:103A9000010100234FF00C0C4FF4E13280E80E00DE
:103AA000C0E90333C0E905C3C361FFF741F900284A
:103AB00008BF80BDBDE88040FCF73ABFFEE70000CC
:103AC00086B001F099F840F6C85740F2C4069FED61
:103AD000638A40F2583840F6BC5B40F2A815C2F247
:103AE0000007C2F20006C2F200084FF008094FF0CA
:103AF000000A6C46C2F2000BC2F2000570E000BF83
:103B000040F27470C2F2000090ED001A87ED030AD3
:103B1000BDEEC10A10EE100A00BA000CA8F8780039
:103B200008F1740207CA8DF80C900290CDE90012DA
:103B3000ADF814A003F058F901688A680021904795
:103B400001680A692146904740F27C70C2F2000089
:103B500090ED020A97EC021A97ED032A40F24040DA
:103B6000C2F200000121F0EE480A02F029FD9BEDAF
:103B7000000A9BED011A9BED022ABDEEC00A10EE71
:103B8000100A00BA000CB1EE410AA5F84001BDEEE2
:103B9000C00A10EE100A00BA000CB1EE420AA5F8F5
:103BA0004201BDEEC00A10EE100A00BA000CA5F8E2
:103BB000460105F59E7207CA8DF80C900290CDE97A
:103BC0000012ADF814A003F00FF901688A68002113
:103BD000904701680A6921469047012004F0A4F843
:103BE00040F2B80040F2BC01C2F20000C2F2000193
:103BF0000068096840F6D472C2F20002C7E90010FA
:103C0000307812690028B0EE480ABA603FF478AF05
:103C100001F022FE96ED021A96ED019A30EE010AAD
:103C200005F0AEF896ED031A96ED042A29EE000A87
:103C300030EE010AB0EEC21AB1EE412AB4EE410AEA
:103C4000F1EE10FAB4EE420AC8BFB0EE410AF1EE4E
:103C500010FAB8BFB0EE420A52E700BF0000000001
:103C6000FEE700000000000000000000000000006F
:103C7000EFF30980BFF36F8F154B1A681EF0100F1A
:103C800008BF20ED108A20E9F04F10602DE90900EF
:103C90004FF0500080F31188BFF34F8FBFF36F8F49
:103CA00004F08AFD4FF0000080F31188BDE80900A0
:103CB00019680868B0E8F04F1EF0100F08BFB0ECAC
:103CC000108A80F30988BFF36F8F704700BF00BF71
:103CD000580E00200000000000000000000000005E
:103CE000074B19680868B0E8F04F80F30988BFF304
:103CF0006F8F4FF0000080F31188704700BF00BF46
:103D0000580E002088B003F0BFFC01688A680021CB
:103D1000904749F6A041C0F60001D1E900120546DE
:103D2000CDE90612006806A9826A2846904749F63E
:103D3000AC50C0F6000008306C460090049428682F
:103D40002146C26A284690470498844203D028B18D
:103D50000168496901E001680969884703F094FC3A
:103D600001688A680321904749F6B041C0F6000116
:103D7000D1E900120546CDE90612006806A9826A5B
:103D80002846904749F63C60C0F600000830009095
:103D9000049428682146C26A2846904704988442C1
:103DA00003D028B10168496901E0016809698847C1
:103DB00003F06AFC01688A680221904749F6A8412D
:103DC000C0F60001D1E900120546CDE906120068EF
:103DD00006A9826A2846904749F61860C0F6000096
:103DE00008300090049428682146C26A284690470B
:103DF0000498844203D028B10168496901E0016850
:103E00000969884749F6B840C0F60000D0E9009635
:103E100044F61C4740F63074C2F20007C2F20004B8
:103E200000254FF0FF4AE846D7E9000184E8230067
:103E3000C4E90355C4E9055A03F026FC01688A6801
:103E400001219047CDE9009601680A6A41469047F2
:103E500000F064FE022003F067FFE5E7012003F0B5
:103E600063FFFBE780B54FF0500080F31188BFF38C
:103E70006F8FBFF34F8F04F00DFE30B14EF604503C
:103E8000CEF200004FF080510160002080F31188D5
:103E900080BD000080B592B0002043F64001CDE91E
:103EA0000A00CDE908000590CDE90300CDE9010045
:103EB0000090C4F202010A6842F080520A60096868
:103EC00001F0805100910099009047F20000C4F287
:103ED0000000016841F44041016000684FF4800136
:103EE00000F4404000900098012006904FF480308C
:103EF0000D910621079002200E91B4210C90CDE97E
:103F00000F100420119006A8FDF7D4FE08B172B678
:103F1000FEE7FDF765FD10B172B600BFFEE70F20AA
:103F2000019002200290002003904FF4A0500490D2
:103F30004FF48050059001A80521FDF78FFD10B1C9
:103F400072B600BFFEE712B080BD00004EF688508A
:103F5000CEF20000016841F470010160704700007A
:103F600040F6F820C2F20000FEF7E2B810B540F6C5
:103F7000FF3E0368C4F2000E40F2004C7045C4F2EC
:103F8000010C0FDCB0F1804F19D040F20042C4F2B6
:103F90000002904213D040F60002C4F200029042A8
:103FA0000DD010E040F60042C4F20002904206D06C
:103FB000604504D00022C4F20102904203D14A6855
:103FC00023F07003134341F6FF72C4F200029042E3
:103FD0000DDC70451FDCB0F1804F41D040F2004253
:103FE000C4F2000290423BD040F6000221E043F6CA
:103FF000FF72C4F20102904220DC42F20002C4F2DD
:10400000000290422CD00022C4F20102904227D03C
:10401000604525D028E040F60042C4F200029042FC
:104020001ED041F60002C4F20002904218D041F6C0
:104030000042C4F20002904212D015E044F20002A5
:10404000C4F2010290420BD044F60002C4F2010215
:10405000904205D044F20042C4F20102904203D1E2
:10406000CA6823F44073134323F08002D1F800E0C0
:104070004B698C681A43C46240F48063C0F828E03E
:10408000634504BF09690163016841F004010160EF
:1040900001214161026010BD40F66040C2F20000A3
:1040A000FEF78ABB40F6A840C2F20000FEF784BBD0
:1040B000806B0021C185FEF713BB0000806B016897
:1040C0004A6990F84130212B2DD112F080022AD07C
:1040D0000022C28451E8031F026821F0C00142E8B7
:1040E0000313E3B1016851E8031F026821F0C00126
:1040F00042E803139BB1016851E8031F026821F0F5
:10410000C00142E8031353B1016851E8031F02687C
:1041100021F0C00142E803130BB10168DAE7202166
:1041200080F8411001684A6990F84230222B7DD115
:1041300012F040027AD00022C28500BF51E8031F6E
:10414000026821F4907142E80313C3B3016851E897
:10415000031F026821F4907142E803137BB30168E6
:1041600051E8031F026821F4907142E8031333B34E
:10417000016851E8031F026821F4907142E80313BB
:10418000EBB10168DAE700BF016851E8051F02687A
:1041900021F0010142E80513DBB1016851E8051F78
:1041A000026821F0010142E8051393B1016851E86A
:1041B000051F026821F0010142E805134BB10168B7
:1041C00051E8051F026821F0010142E80513002BA8
:1041D000DAD1016B012924D1016851E8031F02687B
:1041E00021F0100142E80313DBB1016851E8031F1D
:1041F000026821F0100142E8031393B1016851E80D
:10420000031F026821F0100142E803134BB101685B
:1042100051E8031F026821F0100142E80313002B4C
:10422000DAD1202180F8421000210163416C41F075
:1042300010014164FEF754BA0168806B0968C90532
:1042400000F19F800021C185016851E8031F0268C9
:1042500021F4807142E80313E3B1016851E8031FC0
:10426000026821F4807142E803139BB1016851E8B0
:10427000031F026821F4807142E8031353B10168FF
:1042800051E8031F026821F4807142E80313002BF8
:10429000DAD100BF016851E8051F026821F0010171
:1042A00042E80513BBB3016851E8051F026821F01D
:1042B000010142E8051373B3016851E8051F026864
:1042C00021F0010142E805132BB3016851E8051FF5
:1042D000026821F0010142E80513002BDAD11AE04F
:1042E000016851E8051F026821F0400142E805130A
:1042F000DBB1016851E8051F026821F0400142E886
:10430000051393B1016851E8051F026821F04001CF
:1043100042E805134BB1016851E8051F026821F01E
:10432000400142E80513002BDAD1202180F8421029
:10433000016B012925D100BF016851E8031F026804
:1043400021F0100142E80313DBB1016851E8031FBB
:10435000026821F0100142E8031393B1016851E8AB
:10436000031F026821F0100142E803134BB10168FA
:1043700051E8031F026821F0100142E80313002BEB
:10438000DAD100214163016B012918BFFFF74EB854
:10439000818DFEF72BB90000806B01214163016B19
:1043A000012918BFFFF744B8818D4908FEF71EB9EF
:1043B0000168806B0968C90548BFFFF73DB9002156
:1043C000C18400BF016851E8051F026821F0800127
:1043D00042E80513E3B1016851E8051F026821F0C6
:1043E000800142E805139BB1016851E8051F02688E
:1043F00021F0800142E8051353B1016851E8051F1F
:10440000026821F0800142E80513002BDAD100BFD9
:10441000016851E8031F026841F0400142E80313BC
:10442000EBB1016851E8031F026841F0400142E826
:104430000313A3B1016851E8031F026841F0400172
:1044400042E80313002B08BF7047016851E8031FBF
:10445000026841F0400142E80313002BD8D17047B5
:10446000806BFFF7EBB8000081B090F84210222972
:1044700020D18368B3F5805F08D10169002964D039
:1044800000F128010A6803685B680AE0014651F8F8
:10449000282F13B90369002BF5D003685B6803F07C
:1044A0007F0313700A6801320A60C18D01390A0462
:1044B000C18501D001B070470168CA6822F02002AE
:1044C000CA60CA6822F48072CA604A6922F0010296
:1044D0004A61202280F8422000224263036B012BB4
:1044E0003CD1026351E8031F026821F0100142E849
:1044F00003130168DBB151E8031F026821F01001CA
:1045000042E80313016893B151E8031F026821F0E8
:10451000100142E8031301684BB151E8031F026820
:1045200021F0100142E803130168002BDAD10A6878
:10453000D20606D5002200920A68009249680091CE
:104540000099818D01B0FEF751B80168826A49680F
:104550006FF35F2122F8021B8262A6E701B0FEF72B
:1045600065BF000010B504460068D4E902C22369A3
:10457000016921F4405111430161626943EA0C0170
:10458000E3691143C268194349F20C639A4311432A
:10459000C1604169A26921F4407141F200431143B5
:1045A00040F48062C4F201039A42416102D1FDF7F6
:1045B00039FB01E0FDF722FBE16963681922B1F5DF
:1045C000004FA0FB02011CD15A00DB0FFBF766FE77
:1045D00048F21F51C5F2EB11A0FB01235A096FF0FD
:1045E000630302FB0300322303EBC000A0FB0101C5
:1045F0004FF4F87000EA111000EB0210C1F3421101
:104600001AE09A009B0FFBF749FE48F21F51C5F2D2
:10461000EB11A0FB01235A096FF0630302FB0300B7
:10462000322303EB0010A0FB0101F02000EA51103F
:1046300000EB0210C1F3431122680843906010BDE3
:10464000F0B581B013460027044681628385476434
:10465000222084F84200E06B44F2392544F2993676
:104660000A462168C0F60005C0F60006C0E90F56EC
:1046700044F2BD06C0F600060431C0E91367FCF73A
:1046800091FF38B110206064202084F8420001209E
:1046900001B0F0BD00972068016800914168009169
:1046A0000099216931B300BF50E8030F216840F43D
:1046B000807041E80302EAB1206850E8030F2168E6
:1046C00040F4807041E80302A2B1206850E8030F73
:1046D000216840F4807041E803025AB1206850E834
:1046E000030F216840F4807041E8030212B1206892
:1046F000DAE700BF206850E8050F216840F00100AC
:1047000041E80502BAB3206850E8050F216840F07F
:10471000010041E8050272B3206850E8050F2168E6
:1047200040F0010041E805022AB3206850E8050F77
:10473000216840F0010041E80502002ADAD11AE0C0
:10474000206850E8050F216840F0400041E805026C
:10475000DAB1206850E8050F216840F0400041E8D8
:10476000050292B1206850E8050F216840F0400032
:1047700041E805024AB1206850E8050F216840F081
:10478000400041E80502002ADAD1002001B0F0BD66
:1047900040F68830C2F20000FEF70EB840F6D03086
:1047A000C2F20000FEF708B840F61840C2F200005E
:1047B000FEF702B8FEE7000010B52DED0A8B40F2BF
:1047C000A860C2F2000040F20224A0F8A140A33089
:1047D0002921FBF7EBFD40F6F040C2F20000A0F803
:1047E000A140A3302921FBF7E1FD9FED469A9FED03
:1047F000468A44F61470C2F20000B2EE0E0AB7EE1A
:10480000001AF0EE480AF0EE491AB0EE482AF0EE2F
:10481000482A01F021FB9FED3DAA44F65470B1EE09
:1048200004BAC2F20000B0EE4A0AF0EE480AB0EE56
:104830004B1AF0EE491AB0EE482AF0EE482A01F081
:104840000BFB40F6D8509FED321ADFED321AC2F260
:104850000000B7EE080AF0EE480AB0EE482AF0EE83
:10486000482A01F0F9FA40F61860C2F20000F2EEB0
:10487000041AB0EE4A0AF0EE480AB0EE4B1AB0EE57
:10488000482AF0EE482A01F0E7FA9FED249A9FEDBE
:1048900024AA40F24460DFED201AC2F20000B0EE1C
:1048A0004B0AF0EE480AB0EE481AB0EE492AF0EE94
:1048B0004A2A01F0D1FA9FED1BCA40F65470C2F2A9
:1048C0000000B0EE4B0AF0EE480AB0EE481AF0EEE7
:1048D0004C1AB0EE492AF0EE4A2A01F0BDFA4030F7
:1048E000B0EE4B0AF0EE480AB0EE481AF0EE4C1A61
:1048F000B0EE492AF0EE4A2ABDEC0A8BBDE8104022
:1049000001F0AABA0050C346000000000000B44203
:10491000CDCCCC3DC3F5484100401C4600401C4571
:1049200000004843000280462DE9F04740F2583726
:10493000C2F200070020642201234FF4017140F20B
:10494000000C002487F86400C7E91520C7E91703A5
:10495000A7F86610002146F26666C4F2D00CC4F2D5
:10496000080407F1900E40F2000A48F20009C3F66D
:10497000F071C3F6E6764FF066358EE86300C7E95E
:10498000280CC7E92A04C4F2C00AC3F6A6794CF67B
:10499000E96E4EF6D53807F1C004C3F6BA7ECFF201
:1049A0007B38C7E92C0AC7E92E0984E803414CF695
:1049B000CC44C3F620744FF0CC350026C3F62876DD
:1049C000C7E9345440F2FF14C7E93606C7E9380195
:1049D0007C6749F60054C0F60004083487F870304C
:1049E0003C6040F240474FF2C355C2F200074FF21D
:1049F000C354C4F2C8050026CCF2C804CCF2901609
:104A0000C7F884500025C7F8804006F52404C4F296
:104A10009015C7F8884005F52404C7E9234600240B
:104A2000C4F2FA3487F86400C7E91520C7E9170310
:104A3000A7F86600C7F89450C7E926040024C4F21A
:104A4000A004C7E92804022487F8684049F6E8442E
:104A5000C0F6000408343C60FB6640F2A817C2F2BE
:104A60000007C7F8E420C7F8F820C7F80C214FF07A
:104A70003332C7F8602143F23332C3F6D372C7F83A
:104A800064210022C4F23402C7F874210022C3F664
:104A90003872C7F8F030C7F80431C7F81831C7F8D2
:104AA0006CC1C7F87CA1C7F88491C7E9648EC7F8C8
:104AB0009C210022C3F65472C7F8A42187F81C0178
:104AC000C7E93A00C7E93F00C7E94400C7F86801F1
:104AD000C7F87001C7F87801C7F88001C7F89801D6
:104AE000C7F8A001C7E95601C7E96201C7E96A0131
:104AF00040F20120A7F83801042087F83A014FF46A
:104B00000070A7F81E01C7F83C0149F6F440C0F652
:104B1000000008303860BDE8F0870000B0B582B012
:104B200040F24040C2F2000090ED020B40F6E87403
:104B3000C2F2000443F6391551EC100B258004F045
:104B4000A5FA40F27C71C2F20001C96900EE100AB8
:104B5000C4E9010140F20050C2F200000580BDEE40
:104B6000C00A10EE102A130E8370130CC370130AC0
:104B700000EE101A03714271BDEEC00A10EE101A59
:104B80000A0E82710A0CC2710A0A027240F6507251
:104B9000C2F2000213684172591C116040F6F862BB
:104BA000C2F20002926A40F240638A1AC2F2000323
:104BB0001A6045F21A224281FF2242730A0EA37C38
:104BC00082730A0CC2730A0AE160037302744174AF
:104BD00002F05AFD01688A680221904749F698411F
:104BE000C0F60001D1E90012CDE9001201680A6A9D
:104BF0006946904702B0B0BDB0B58CB040F21450D9
:104C0000C2F20000007840F22854C007C2F200044B
:104C1000BFF35F8F3ED040F21850C2F20000007820
:104C200040F22C55C007C2F20005BFF35F8F47D09A
:104C300049F6D051C0F6000120680831069101689C
:104C400006ACCA6921460A9490470A98844203D068
:104C500028B10168496901E001680969884749F696
:104C6000F451C0F6000128680831009101686C46D3
:104C7000CA692146049490470498844205D010B133
:104C80000168496988470CB0B0BD01680969884767
:104C90000CB0B0BD40F21450C2F2000002F0F2FFBE
:104CA0000028B8D002F0A0F801688A680021904777
:104CB000206040F21450C2F2000003F011F8AAE79D
:104CC00040F21850C2F2000002F0DCFF0028AFD022
:104CD00002F08AF801688A6801219047286040F252
:104CE0001850C2F2000002F0FBFFA1E770B52DEDF5
:104CF000028B86B040F24044C2F2000494F8640093
:104D0000D0B9E06E029008208DF80C006FF0407072
:104D100001904FF0FF3000900020ADF8140002F039
:104D200063F8016801258A680121904701680A69D2
:104D30006946904784F8645000F08EFD40F2583682
:104D4000C2F2000696ED021B40F2986440F27C75B8
:104D5000C2F20004C2F2000551EC110B84ED010A0D
:104D600085ED080A04F092F99FED250A9FED251ABA
:104D700000EE900A206030EE800AF4EE410A44F61C
:104D80001474F1EE10FAC8BFF0EE400A95ED010A76
:104D9000C2F200042046C5ED070A00F0B7FF96ED09
:104DA0001A0B94ED088A51EC100B04F06FF944F6DD
:104DB0005474C2F2000400EE900A2046B0EE480A95
:104DC00000F0A4FF40F6D4706968EA69C2F20000FE
:104DD000C0E9001244F61C40C2F20000C0E9001213
:104DE00040F61862C2F20002206A40F27471126A40
:104DF000C2F20001C1E9000206B0BDEC028B70BD39
:104E00000000B4C3000034432DE9F04381B02DED20
:104E1000028B86B040F24048C2F2000898F8640065
:104E2000D8B9D8F86C00029008208DF80C006FF00B
:104E3000407001904FF0FF3000900020ADF814005A
:104E400001F0D2FF016801248A68012190470168BE
:104E50000A696946904788F8644040F25835C2F2C2
:104E6000000595ED020B51EC100B04F00FF99FEDCE
:104E70004F1A08EE100A40F298699FED4B0AC2F2F1
:104E80000009B4EE418A40F27C77C9F8000038EEA0
:104E9000000AF1EE10FAC8BFB0EE408AC2F2000775
:104EA00018EE100A87ED078A04F0F4FD40F6F86664
:104EB000C2F2000696ED080B53EC102B04F000FD37
:104EC00004F0E4F844F61474C2F2000400EE100A90
:104ED00078602046F0EE480A00F018FF95ED080BC8
:104EE00094ED088A51EC100B04F0D0F844F6547499
:104EF000C2F2000400EE900A2046B0EE480A00F02C
:104F000005FF00F0A9FC10EE100AB0EE408A89ED12
:104F1000010A87ED080A04F0BDFD96ED020B9FED36
:104F2000201B05460E4653EC112B51EC100B04F0E0
:104F3000C9FB2A46334604F0DBF804F0A7F840F634
:104F4000D855C2F2000500EE100AC7E90200284653
:104F5000F0EE480A00F0DAFE98ED060B95ED088AAF
:104F600051EC100B04F092F840F61865C2F20005FF
:104F700000EE900A2846B0EE480A00F0C7FE206A0C
:104F800040F274712A6AC2F20001C1E9000206B05F
:104F9000BDEC028B01B0BDE8F08300BF00BF00BFD5
:104FA000000000A046DF913F0000B4C3000034437E
:104FB00070B52DED028B86B040F24044C2F2000481
:104FC00094F86400D0B9E06E029008208DF80C00CF
:104FD0006FF0407001904FF0FF3000900020ADF86E
:104FE000140001F001FF016801258A680121904742
:104FF00001680A696946904784F8645040F20001EC
:10500000C2F20001C88BB6EE002A10F010026CA2AA
:1050100018BF043292ED000A6BA218BF043292ED61
:10502000001A10F0200220EE023A21EE022A1CBFE4
:10503000B0EE430AB0EE421AB1F9162040F27C7489
:1050400002EE102AB1F91810B8EEC22AC2F200041A
:1050500020EE020A94ED012A94ED023A32EE000AA3
:1050600002EE101A84ED010AB8EEC22A21EE021AED
:10507000BDEE002A30EE022A410658BFB0EE402AAB
:10508000B5EE000A32EE000A010658BFB0EE420A41
:105090009FED4F2A33EE411A9FED4E3A10F0C00FAC
:1050A00031EE022A84ED021A18BF84ED010AC1050F
:1050B00058BFB0EE412A32EE031A810558BFB0EE58
:1050C000421A9FED452A10F4407FB4EE420A18BF01
:1050D00084ED021AF1EE10FAC8BFB0EE420AB3EE48
:1050E0000E2AB4EE420AF1EE10FAC8BFB0EE402A22
:1050F0009FED3A0A84ED012A9FED392AB4EE401A59
:10510000F1EE10FAC8BFB0EE401AB4EE421AF1EE5A
:1051100010FAC8BFB0EE412A84ED022A00F09CFBD1
:1051200040F25836C2F2000696ED021B40F2986536
:10513000C2F2000551EC110B85ED010A84ED080A5D
:1051400003F0A4FF9FED270A9FED271A00EE900AB7
:1051500030EE800AF4EE410A2860F1EE10FAC8BF82
:10516000F0EE400A94ED010AC4ED070A44F6147407
:10517000C2F20004204600F0C9FD96ED1A0B94ED32
:10518000088A51EC100B03F081FF44F65474C2F20C
:10519000000400EE900A2046B0EE480A00F0B6FD8A
:1051A00040F61862C2F20002206A40F27471126A7C
:1051B000C2F20001C1E9000206B0BDEC028B70BD75
:1051C000A69B443B7BF2B03B17B7513861BEBC385D
:1051D0006F12833B6F1283BB0000AA42CDCC1CC070
:1051E000333353C00000B4C300003443F0B581B082
:1051F0002DED028B40F20000C2F20000C28B017F55
:10520000407F02F400531B18184602F4804718BF71
:105210000120C91940F27C7618BF0121C2F20006B4
:1052200053B1D20634A258BF043292ED000A86ED83
:10523000090AB1EE400A03E09FED2E0A00227262D5
:105240009FED2C8A40F2A81786ED0A0A9FED2C0AE2
:105250000029B0EE481AC2F2000718BFB0EE401A9B
:10526000002818BFB0EE418A97ED080B86ED068A3C
:1052700051EC100B03F00AFF40F24464C2F2000448
:1052800000EE900A2046B0EE480A00F03FFD97ED90
:105290001A0B96ED098A51EC100B03F0F7FE40F65D
:1052A000547580F00040C2F2000500EE900A2846D6
:1052B000B0EE480A00F02AFD97ED2C0B96ED0A8A15
:1052C00051EC100B03F0E2FE80F0004000EE900A7B
:1052D00005F14000B0EE480A00F018FD206A40F6E3
:1052E000BC51C2F200012A6A2B6E0DC1BDEC028BCB
:1052F00001B0F0BD0000000000C0C14500E0AB45BA
:10530000008009C470B586B040F2A864C2F20004FF
:1053100013460A460146204600F0F6FB94F8A0002A
:1053200003286FD8DFE800F0027075DD40F24044DA
:10533000C2F2000494F86400C8B1E06E0025029047
:1053400008208DF80C006FF0007001904FF0FF30D6
:105350000090ADF8145001F047FD01688A68012102
:10536000904701680A696946904784F8645044F69A
:105370001470C2F2000000244463C0E90344C0E991
:105380000544C0E9074440F25830C2F2000090EDF5
:10539000020B44F65470C2F200004463C0E90344B7
:1053A000C0E90544C0E9074451EC100B03F06EFE60
:1053B0009FED572A00EE100A40F298659FED531AB0
:1053C00040F27C76C2F20005B4EE420AC2F2000658
:1053D000286030EE011AF1EE10FAC8BFB0EE410AB3
:1053E00086ED070A86ED010A00F036FA40F2747085
:1053F000C2F2000085ED010A86ED080A86ED020A78
:10540000C0E9004406B070BD06B0BDE87040FFF7CB
:10541000FBBC40F20000C2F2000090ED0A0A9FEDD2
:10542000331A9FED332A40F2986143F2333220EE73
:10543000011AC2F20001C3F633729FED2E3AB4EEA8
:10544000420AB0EE412ACA60F1EE10FAB8BFB0EEDF
:10545000432A9FED293A90ED0B4A40F27C70B4EE5E
:10546000430AC2F20000F1EE10FAC8BFB0EE421AD1
:1054700090ED010A9FED213A90ED022A30EE010AEB
:1054800024EE031A9FED1E3A32EE011AB4EE430ADF
:10549000B3EE0E2AF1EE10FAC8BFB0EE430AB4EE36
:1054A000420AF1EE10FAC8BFB0EE402A9FED150A8D
:1054B00080ED012A9FED142AB4EE401AF1EE10FAA5
:1054C000C8BFB0EE401AB4EE421AF1EE10FAC8BFEF
:1054D000B0EE412A80ED022A06B0BDE87040FFF729
:1054E00005BC06B0BDE87040FFF762BD3333333F03
:1054F0008FC2F53C000000008FC2F5BC0AD7233CE8
:105500000000AA42CDCC1CC0333353C00000B4C34A
:1055100000003443F0B581B02DED028B40F6F0442D
:10552000C2F2000413460A460146204600F06EFB14
:1055300094F8A000042800F28380DFE800F00366FE
:105540004E81CC0040F2A816C2F2000640F27C70F8
:1055500096ED080BC2F20000002181614162816278
:1055600051EC100B03F092FD40F244649FEDB88AB9
:10557000C2F2000400EE900A2046B0EE480A00F0A5
:10558000C5FB96ED1A0B51EC100B03F07FFD40F6B6
:10559000547580F00040C2F2000500EE900A2846E3
:1055A000B0EE480A00F0B2FB96ED2C0B51EC100B5C
:1055B00003F06CFD80F0004000EE900A05F1400021
:1055C000B0EE480A00F0A2FB206A40F6BC51C2F2DD
:1055D00000012A6A2B6E0DC135E140F2000040F255
:1055E0007C76C2F20000C2F2000690ED090A96ED48
:1055F000061A30EE018AB5EE408AF1EE10FA86ED19
:10560000068A6FDD9FED920A73E040F2000040F2DF
:105610007C76C2F20000C2F2000690ED090A96ED17
:10562000061A30EE011AB5EE401AF1EE10FA86EDC8
:10563000061A40F3B1809FED860A86ED060AB4E0B3
:1056400040F2A816C2F2000640F27C7096ED080BFC
:10565000C2F20000002181614162816251EC100BB5
:1056600003F014FD40F244649FED798AC2F2000415
:1056700000EE900A2046B0EE480A00F047FB96ED97
:105680001A0B51EC100B03F001FD40F6547580F03D
:105690000040C2F2000500EE900A2846B0EE480A2B
:1056A00000F034FB96ED2C0B51EC100B03F0EEFCEC
:1056B00080F0004000EE900A05F14000B0EE480A8C
:1056C00000F024FB206A40F6BC51C2F200012A6AB5
:1056D0002B6E0DC1B7E0BDEC028B01B0BDE8F04010
:1056E000FFF784BD9FED5B0AB4EE408AF1EE10FA3D
:1056F00003DAB0EE408A86ED060A40F2A817C2F23D
:1057000000074EF200004EF2000197ED080BC4F2C4
:10571000AB50CCF2AB517062B16251EC100B03F0A4
:10572000B5FC40F24464C2F2000400EE900A204648
:10573000B0EE480A00F0EAFA97ED1A0B96ED098AE6
:1057400051EC100B03F0A2FC40F6547580F00040C1
:10575000C2F2000500EE900A2846B0EE480A00F0BA
:10576000D5FA97ED2C0B96ED0A8A51EC100B03F04D
:105770008DFC80F0004000EE900A05F14000B0EE94
:10578000480A00F0C3FA206A40F6BC51C2F2000198
:105790002A6A2B6E0DC156E09FED2E0AB4EE401A18
:1057A000F1EE10FAB8BF86ED060A40F2A817C2F271
:1057B00000074EF200004EF2000197ED080BC4F214
:1057C000AB50CCF2AB517062B16251EC100B03F0F4
:1057D0005DFC40F24464C2F200049FED1D0A00EE3D
:1057E000900A204600F092FA97ED1A0B96ED098A7E
:1057F00051EC100B03F04AFC40F6547580F0004069
:10580000C2F2000500EE900A2846B0EE480A00F009
:105810007DFA97ED2C0B96ED0A8A51EC100B03F0F4
:1058200035FC80F0004000EE900A05F14000B0EE3B
:10583000480A00F06BFA206A40F6BC51C2F200013F
:105840002A6A2B6E0DC1BDEC028B01B0F0BD00BF0A
:1058500000000000008009C440F24800C2F20000CD
:1058600090ED130A9FED9A1A40F2C00030EE011A33
:105870009FED980AC2F2000090ED002A21EE001A76
:105880009FED953A31EE421A9FED942A21EE031ACC
:10589000B4EE421AF1EE10FA80F2ED809FED912AFB
:1058A000B4EE421AF1EE10FA1EDA9FED8F3A00BF05
:1058B00031EE031AB4EE421AF1EE10FA14DA31EEB8
:1058C000031AB4EE421AF1EE10FA0DDA31EE031AB1
:1058D000B4EE421AF1EE10FA06DA31EE031AB4EE23
:1058E000421AF1EE10FAE3DB9FED7D2AB5EE401A85
:1058F00031EE022AF1EE10FAB8BFB0EE412A22EEE4
:10590000000A9FED7A2A40F23050B0EEC01AC2F27F
:105910000000B4EE421A0178F1EE10FA9FED743AED
:10592000B8BFB0EE430A002900F0C88040F23450FE
:10593000C2F2000090ED003A9FED6E1A30EE430A7D
:10594000B4EE410AF1EE10FA1EDD9FED6B2A00BFA6
:1059500030EE020AB4EE410AF1EE10FA14DD30EE38
:10596000020AB4EE410AF1EE10FA0DDD30EE020A41
:10597000B4EE410AF1EE10FA06DD30EE020AB4EEA2
:10598000410AF1EE10FAE3DC9FED5C2AB4EE420A24
:10599000F1EE10FA1EDA9FED5A4A00BF30EE040A0B
:1059A000B4EE420AF1EE10FA14DA30EE040AB4EE64
:1059B000420AF1EE10FA0DDA30EE040AB4EE420AB1
:1059C000F1EE10FA06DA30EE040AB4EE420AF1EE15
:1059D00010FAE3DB9FED4B4A20EE040A33EE000A97
:1059E000B4EE410AF1EE10FA1EDD9FED433A00BF1E
:1059F00030EE030AB4EE410AF1EE10FA14DD30EE97
:105A0000030AB4EE410AF1EE10FA0DDD30EE030A9E
:105A1000B4EE410AF1EE10FA06DD30EE030AB4EE00
:105A2000410AF1EE10FAE3DCB4EE420AF1EE10FAAC
:105A30001EDA9FED331A00BF30EE010AB4EE420ABF
:105A4000F1EE10FA14DA30EE010AB4EE420AF1EE89
:105A500010FA0DDA30EE010AB4EE420AF1EE10FA55
:105A600006DA30EE010AB4EE420AF1EE10FAE3DB98
:105A700080ED000A70479FED1A3A00BF31EE031A1D
:105A8000B4EE421AF1EE10FAFFF608AF31EE031A47
:105A9000B4EE421AF1EE10FAFFF600AF31EE031A3F
:105AA000B4EE421AF1EE10FAFFF6F8AE31EE031A38
:105AB000B4EE421AF1EE10FAE0DAEFE640F23451B9
:105AC000C2F2000181ED000A01210170704700BFA0
:105AD0000000B44235FA8E3CE12E654200003443AA
