:020000040800F2
:100000002872002019030008F9530008B94E0008AF
:10001000F5530008E5220008155B00080000000009
:100020000000000000000000000000006155000812
:100030005524000800000000015400088D550008F8
:1000400033030008330300083303000833030008B8
:1000500033030008330300083303000833030008A8
:100060003303000833030008330300083303000898
:100070000D24000833030008192400083303000886
:100080003303000833030008330300083303000878
:10009000E9220008F52200083303000833030008B2
:1000A0003303000833030008330300083303000858
:1000B0003303000833030008330300083303000848
:1000C0003303000833030008330300083303000838
:1000D00033030008F15A000833030008FD5A0008F2
:1000E0003303000833030008330300083303000818
:1000F0003303000833030008330300083303000808
:1001000033030008330300083303000833030008F7
:1001100033030008330300086D56000879560008C1
:1001200033030008252400083124000833030008A5
:1001300033030008330300083303000833030008C7
:10014000012300080D2300083303000833030008CF
:10015000330300083D24000849240008095B000817
:100160003303000833030008330300083303000897
:1001700033030008330300083303000800000000C5
:10018000330300083303000800F002F800F0B5F86C
:1001900014A696E8000CB244B344DA4501D100F04D
:1001A000ACF8BAE80F000FA696E83000A5EB0405FE
:1001B00004EB0607AAEB0704A7F101074FEA1515A0
:1001C0004FEA3414A4F10104AC4201D300F095F8D5
:1001D00013F0010F18BFFB1A43F0010300F001F800
:1001E000DBE71847B8030100D8030100103A24BF29
:1001F00078C878C1FAD8520724BF30C830C144BF8C
:1002000004680C6070470000704700000023002461
:1002100000250026103A28BF78C1FBD8520728BF16
:1002200030C148BF0B6070476E2900F019847029F7
:1002300000F04F8566290FF0E28165290FF0DF811C
:1002400067290FF0DC8161290FF0DB8103681B0A4D
:1002500028BF41F08001692900F0C683642900F0BD
:10026000C383752900F0C0836F2900F0DD847829ED
:1002700000F01B85E92900F07784E42900F07484FC
:10028000F52900F07184EF2900F0DA84F82900F0F4
:100290001A850368DB0928BF41F08001632901F05A
:1002A0003B83732901F04083E32901F04B83F32959
:1002B00001F05083002070471FB50FF014F99DE83E
:1002C000030000F0F9FA01F0A3FC04000020002173
:1002D0000EF0F0FA401C6060002000210EF0D4FA0D
:1002E000E06000F0C5FD00F0E1F91FBD10B5002091
:1002F00000F05AFE00F025FE10BD00F082FE11460F
:10030000FFF7DAFF0BF066FE01F012FC03B4FFF713
:10031000EDFF03BC00F0A6FA0948804709480047F2
:10032000FEE7FEE7FEE7FEE7FEE7FEE7FEE7FEE7A5
:10033000FEE7FEE704480549054A064B7047000002
:100340005956000889010008286C002028720020F6
:10035000286E0020286E002053EA020C00F069800D
:100360002DE9F04B4FF00006002B1FBFB3FA83F5C9
:1003700003FA05F424FA05F65E4012BF1643B2FAFA
:1003800082F502FA05F4C5F120051EBF22FA05FC2C
:1003900044EA0C04203556EA044C4FEA144418BFD2
:1003A000641C4FF000084FF00009904271EB030C01
:1003B00039D3002919BFB1FA81F701FA07F6B0FA6B
:1003C00080F700FA07F6C7F120071EBF20FA07FCE6
:1003D00046EA0C062037B6FBF4FCA7EB0507103FF6
:1003E00007F01F0BCBF120062CFA06F60CFA0BFBDC
:1003F00044BFB3460026202FA4BF5E464FF0000B3B
:100400005BEA060C08BF4FF0010B19EB0B0948EB38
:100410000608ABFB027C06FB02CC0BFB03CCC01B2B
:1004200071EB0C01C1E70B46024641464846BDE868
:10043000F08B13B5084318BF4FF0FF300146AFF300
:100440000080BDE81C4070470B460146184600F08E
:10045000B4B910B5431C02E010F8011B71B181075B
:10046000FAD14FF0013202C88C1A8C4314EAC2113F
:10047000F9D0C01A0A0603D0C01E10BDC01A10BDA4
:100480000A0401D0801E10BD0902FCD0401E10BD20
:10049000032A40F2308010F0030C00F0158011F8B0
:1004A000013BBCF1020F624498BF11F801CB00F888
:1004B000013B38BF11F8013BA2F1040298BF00F8DC
:1004C00001CB38BF00F8013B11F0030300F0678057
:1004D000083AC0F0088051F8043B083A51F804CBC0
:1004E000A0E80810F5E7121D5CBF51F8043B40F886
:1004F000043BAFF30080D20724BF11F8013B11F891
:1005000001CB48BF11F8012B24BF00F8013B00F8D4
:1005100001CB48BF00F8012B7047431A28BF9A420D
:100520007FF6B6AF10441144032A40F2268010F043
:10053000030F1EBF11F8013D521E00F8013D10F0DF
:10054000030F7FF4F6AF11F0030300F06081083A67
:10055000C0F00B8051F8043D083A51F804CD40F842
:10056000043D40F804CDFFF7F3BF121D5CBF51F806
:10057000043D40F8043DAFF30080D20724BF11F8DA
:10058000013D11F801CD48BF11F8012C24BF00F83E
:10059000013D00F801CD48BF00F8012C704710B5AF
:1005A000203AC0F00B80B1E81850A0E81850B1E82C
:1005B0001850A0E81850203ABFF4F5AF5FEA027C6B
:1005C00024BFB1E81850A0E8185044BF18C918C09B
:1005D000BDE810405FEA827C24BF51F8043B40F83C
:1005E000043B08BF7047D20728BF31F8023B48BF21
:1005F00011F8012B28BF20F8023B48BF00F8012B5F
:10060000704702F0FF0343EA032242EA024200F08D
:1006100024B84FF000020429C0F0128010F0030C3F
:1006200000F01B80CCF1040CBCF1020F18BF00F8E5
:10063000012BA8BF20F8022BA1EB0C0100F00DB894
:100640005FEAC17C24BF00F8012B00F8012B48BFF2
:1006500000F8012B70474FF0000200B51346944696
:100660009646203922BFA0E80C50A0E80C50B1F10A
:100670002001BFF4F7AF090728BFA0E80C5048BF1E
:100680000CC05DF804EB890028BF40F8042B08BFBC
:10069000704748BF20F8022B11F0804F18BF00F8B8
:1006A000012B7047704770477047000008487CB5C1
:1006B0007844009007487844009C0546019004E087
:1006C0002046016808448047241DAC42F8D17CBD17
:1006D000340001004A00010070B5064600F0C8F879
:1006E000056806F10B0020F00704B4429CBF00200F
:1006F00070BD2B466A68BAB11068A04210D304F1ED
:10070000080188423CBF5068586007D351681019EF
:1007100041601168091B016058601460101D70BDB4
:1007200013465268002AE7D12146284600F0B0F867
:100730000028DED170BD70B50446051F00F098F8A2
:100740000068002C14BF446870BD002C18BFAC4278
:100750003CBF20466468F8D301680A18AA4218BF53
:10076000456003D12A680546114401602868411993
:10077000A1421CBF6C6070BD61686960216808445B
:10078000286070BD10B500F07BF8006810BD10B592
:10079000044600F075F8046010BD0B46014618468B
:1007A00000F072B910B5002000F01FFCFFF79EFDAD
:1007B000BDE81040012000F055B82DE9F041074692
:1007C00015460E461020FFF787FF04000AD0676029
:1007D000C4E9026500F050F801682160046000205F
:1007E000BDE8F0810120FBE7431A28BF9A427FF65B
:1007F000D6AE1044114410F0030F1EBF11F8013D96
:10080000521E00F8013D10F0030F7FF4F6AF103ACE
:10081000C0F00A8010B531E9185020E91850103A9C
:10082000BFF4F9AFBDE81040530724BF31E9081009
:1008300020E9081044BF51F8043D40F8043D12F08F
:10084000030F08BF7047D20728BF31F8023D48BFE9
:1008500011F8012C28BF20F8023D48BF00F8012CF8
:100860007047000001491820ABBEFEE726000200D9
:10087000004870477C01002000487047AC01002010
:1008800000487047740100207047704770477047F8
:1008900038B504460A4600206946AFF300800028B8
:1008A00008BF38BD02460099204600F0CFFB01206A
:1008B00038BD012001F069B9F8B5AFF300800546F5
:1008C00000200C460C2000BF0646A819A0420DD9F6
:1008D000324669460020AFF30080070008BF01F0F0
:1008E00054F90098A04218BF0546C419FFF7C0FF8D
:1008F00005600746F01D20F007004619284600F065
:100900000AF8B44208BFF8BDA21B31463868BDE8FA
:10091000F84000F09BBB00210160416070470C2053
:10092000704770B5044685690068C10601D5302658
:1009300000E02026C00707D070BDD4E90121304671
:100940009047206A401C20626D1EF6D570BD70B5C0
:10095000044685690078C00707D170BDD4E901213C
:1009600020209047206A401C20626D1EF6D570BD85
:1009700009684A0501D540B27047C905FCD500B2E7
:10098000704709684A0501D5C0B27047C905FCD552
:1009900080B2704770B50C460546012A05D028780C
:1009A000800600D5EA69002302E0012305E05B1C14
:1009B000934202D2E05C0028F9D1A869E618C01A77
:1009C000A861286A184428622846FFF7AAFF04E0B5
:1009D000D5E9012114F8010B9047B442F8D3284619
:1009E000FFF7B5FF70BD00002DE9F0410646002479
:1009F00010687529314616A510D0FFF7B9FF0028F9
:100A000002DA404213A507E031688A0701D512A532
:100A100002E0490704D511A5012401E0FFF7B1FF69
:100A200000210A2206F1240709E0B0FBF2FCB0FB2A
:100A3000F2F302FB1C00303078541846491C0028A1
:100A4000F3D123462A463046BDE8F04100F05DBBB5
:100A5000000000002D0000002B000000200000001E
:100A600011680268006A530501D508700AE0D305D1
:100A700001D5088006E0130603D5C217C1E90002BC
:100A800000E0086001207047074B70B50D467B44BD
:100A900000F025FF0446284600F060FF10B14FF03B
:100AA000FF3070BD204670BDD9DD00002DE9FF5F2D
:100AB00015468A460446DFF8AC80F8440027D8E99A
:100AC00000103E46CDE9001010E03AF816106A46D4
:100AD00002A801F009F8411C07D02178890603D546
:100AE000E269391891420DD80744761C20788006B7
:100AF00002D5E069B84205DDAE42E6DB3AF8160001
:100B00000028E2D1A069C01BA0612046FFF709FFC1
:100B1000D8E90010CDE90010002017E03AF81810CD
:100B20006A4602A800F0E0FFB0F1FF3F81460BD01B
:100B300000250DF1080B05E0D4E901211BF80500A3
:100B400090476D1C4D45F7D308F10100B042804637
:100B5000E4DB206A384420622046FFF7F8FEBDE857
:100B6000FF9F00004AEB00002DE9F0418046D21DB6
:100B700022F007020025D2E90002F52915A614D0BB
:100B8000011E72F1000106DA0023D0EB030063EBD3
:100B9000020211A608E0D8F800108B0701D50FA6B5
:100BA00002E0490701D50EA601251146002408F1EF
:100BB000240704E000F064FA30323A55641C50EA2D
:100BC0000102F7D12B46324621464046BDE8F041AE
:100BD00000F09BBA000000002D0000002B00000078
:100BE0002000000030B4002100F1240408E002F0ED
:100BF0000705D208303542EA4372DB086554491CC8
:100C000052EA0305F3D10468002310A2250708D592
:100C100004F020040C4304D0C46901230CA2641E18
:100C2000C46130BC00F071BA10B5044621461068AA
:100C3000FFF7A7FE02462046BDE810400023D1E79B
:100C4000D21D22F00701D1E90023CBE7000000000C
:100C500030000000F0B40D460188090502D5214C92
:100C60007C4402E01F4C7C440E34002100F1240639
:100C700008E002F00F071209E75D42EA03721B0960
:100C80007754491C52EA0307F3D102780023120774
:100C900004D5702D06D009B1022311342246F0BCD0
:100CA00000F033BA01231034F8E770B504460D465E
:100CB00021461068FFF765FE024629462046BDE83A
:100CC00070400023C6E7D21D22F00703D3E90023BA
:100CD000C0E70368126843F0200303600823C36180
:100CE0000023B7E7ACE900002DE9F05F8946044630
:100CF0004FF0000ADFF874B1FB44C0F820A0204692
:100D0000E1688847002874D0252806D0D4E901215D
:100D10009047206A401C2062F1E700265F4620468B
:100D2000E16888472028054607DB312D05D2781970
:100D300010F8200C08B10643F1E7B00701D526F002
:100D40000406C4F81CA00027C4F818A02A2D09D056
:100D500028460DF083FD38B304EB8708303DC8F812
:100D6000185019E059F8041B204604EB87029161E2
:100D7000E1688847012F054618D1E069002820DA8C
:100D800026F020061DE0D8F8180000EB800005EBE7
:100D900040003038C8F818002046E168884705460A
:100DA0000DF05CFD0028EED1012F0AD02E2D08D1C8
:100DB0002046E16888477F1C0546022F46F0200642
:100DC000C4DBA069002803DA404246F00106A061B6
:100DD000F00701D026F010066C2D0BD0682D09D03D
:100DE0004C2D39D06A2D35D0742D35D07A2D33D095
:100DF00016E038E0E1682F4620468847B8420546AD
:100E000009D16C2F26D04FF48060E168064320465C
:100E10008847054604E06C2F1AD04FF480700643D3
:100E20000DB3A5F14100192802D8203546F400661B
:100E30004A462946204626604E46FFF7F5F980B11E
:100E400001280BD0F61D26F0070000F1080956E72F
:100E50004020E4E78020D8E70020D6E706F1040927
:100E60004DE7284652E7206ABDE8F09F3CE90000C4
:100E700010B542485421FFF7EEFB41485421FFF7DB
:100E8000EAFB40485421FFF7E6FB3F493B483C4A18
:100E90003F4B08603D490A603A491960531C03659D
:100EA000481C1065012008653B48344A39A1784444
:100EB00000F07CFD20B9384878440A3800F05EFE26
:100EC00037482F4A35A1784400F070FD20B93448E6
:100ED00078440A3800F052FE32482A4A2FA178445A
:100EE00000F064FD20B92F4878440A3800F046FE2F
:100EF00040232248DC000021224600F033FD20B1CF
:100F000025487844543800F039FE1D4822464023D5
:100F1000002100F027FD20B121487844543800F02A
:100F20002DFE184822461023002100F01BFD00284A
:100F300006D01C487844BDE81040563800F01EBE6C
:100F400010BD104870B5006D20F001040B4800F092
:100F5000A5FD0B4800F0A2FD0A4800F09FFD09E046
:100F6000206D20F00105204600F098FD2046FFF797
:100F7000E2FB2C46002CF3D170BD0000780000206D
:100F8000CC000020200100200000002004000020F0
:100F9000080000207200000097E7000077000000C2
:100FA00083E700006FE700002DE9F0410646FFF7F8
:100FB00063FC8046454613E016B1E068B0420ED1AE
:100FC00020682860D4E90101D8F8007088472046DD
:100FD000FFF7B1FBD8F80000B842EBD100E025469E
:100FE0002C68002CE8D1BDE8F08110B500F0AEFD12
:100FF000BDE8104000F0A5BD004870477401002016
:1010000070477546FFF7F8FFAE4605006946534640
:1010100020F00700854618B020B5FFF78BF9BDE832
:1010200020404FF000064FF000074FF000084FF04F
:10103000000BAC46ACE8C009ACE8C009ACE8C0099C
:10104000ACE8C00921F007018D46704703464068AF
:101050008C46002818BF88423CBF03464068F8D33E
:1010600018681844884207D00CF1030020F00700EC
:10107000001D411A521A0146081D0A60FFF75BBBAA
:1010800030B5B0F10A0271F100034FEA900E4EEA5A
:10109000817EB0EB0E0061EB91014FEA101E4EEA2B
:1010A000017E10EB0E0041EB11114FEA102E4EEABB
:1010B000016E10EB0E0041EB11214FEA104E4EEA8B
:1010C000014E10EB0E0041EB1141401841F10001BF
:1010D0004FEAD00040EA41704FEAD1014FEA810463
:1010E00044EA907410EB800544EB01046D1944EB65
:1010F0000404521BA3414FF0000348BF0A3200D53D
:1011000030BD401C41F1000130BD2DE9F0470D46D6
:1011100099469246044600F124080168880604D5E1
:10112000E06921F01001216000E00120A84201DD0A
:10113000471B00E00027A1697A1902EB0900081A91
:10114000A0612078C00602D42046FFF7EAFB002603
:1011500008E0D4E901211AF806009047206A401CF3
:10116000761C20624E45F4DB2078C0060AD5204666
:10117000FFF7D7FB06E0D4E9012130209047206A31
:10118000401C2062381EA7F10107F4DC07E0D4E917
:10119000012118F805009047206A401C2062281E93
:1011A000A5F10105F3DC2046FFF7D1FB207800060E
:1011B00002D50220BDE8F0870120FBE72DE9FF4FB3
:1011C0000C461E464FF0FF378BB0D2E90001DDF828
:1011D00060800A908A46C1F30A5505B93D46002150
:1011E00008464FF00000BAF1000F00F4400005DAA5
:1011F00000EB80004FF4400101EA50004FEA9059A3
:10120000B9F1010F00DDB9460A9850EA4A000ED044
:1012100044F61050A5F2FF3545432F14B8F1000FE6
:101220001ED07542291E1EDDC9F100021CE0B8F176
:10123000010F4FF0000001D0302103E0F24305E040
:101240002154401CB042FBDB3046002200212154D7
:101250000B99C1F80880C1E900200FB0BDE8F08FFC
:10126000BD1B6D1CDEE74A4600DA694206A800F0A5
:1012700013FD06AB93E8070003AB83E80700504675
:101280000A990CF019FD8DE80700A0F500501F38F1
:1012900000900398002D0ADD42F21F014A460844DF
:1012A000002303A9039068460CF082FF09E0A0F533
:1012B00000504A461F38002303A9039068460CF0EB
:1012C0008CFF8DE807000004000C03D04FF0FF30C6
:1012D000410800E01046B8F1000F03D00022009250
:1012E00015461EE0751E05D4FFF7CAFE3032625562
:1012F0006D1EF9D5B3460122084302D000227F1C9F
:1013000004E02078302801D100227F1E002A0997AE
:1013100084D01DE0112D07DAFFF7B2FE303262559E
:101320006D1C50EA0102F5D1084302D00098C8B103
:101330000EE00021681E05E0235C625C63542254C9
:10134000401E491C8142F7DBAB46A81B401E09909A
:10135000002004F80B000B98099AC0F80880C0E937
:10136000002B7AE711264FF0000857E72DE9F04FE0
:1013700088460446D21D22F0070191B0D1E9000150
:10138000CDE90A010DF060F802460B98C00F01D0BC
:101390002D2007E02068810701D52B2002E02021C5
:1013A00001EAC000032A099001D0072A05DB0346A1
:1013B0004146204600F030FC0BE12078800601D544
:1013C000E06900E00620B8F1650F814606D0B8F16B
:1013D000660F18D0B8F1670F70D131E00020B9F175
:1013E000110F009001DB112301E009F101030AAAAA
:1013F00001A90CA8FFF7E2FEDDE90C70002609F157
:101400000105834647E001204B4600904FF000471E
:101410000AAA01A90CA8FFF7D1FEDDE90DB00C99CD
:101420005D46002610B909F101000D18B9EB050061
:1014300003D4C0F1FF3609F10105A5EB09002BE04B
:10144000B9F1010F01DA4FF001090020B9F1110FD4
:101450000090484601DD112300E003460AAA01A9D5
:101460000CA8FFF7ABFEDDE90C704D460026834665
:10147000207800070AD4AB4500DA5D4601A8012DAB
:1014800004DD411911F8011C302907D04F4502DA5B
:1014900017F1040F04DA012082460FE06D1EEEE71B
:1014A000002F02DCED1B3E4403E0781CA84200DD67
:1014B0007D1CB81B00F1010A4FF00047207800079F
:1014C00003D4AA4501DB4FF0FF3A0021B7F1004FEA
:1014D0000DF143088DF8431024D002202B23002F58
:1014E00001DA7F422D230A21021EA0F1010000DC57
:1014F0005FB197FBF1FC97FBF1F201FB1C7C1746F7
:101500000CF1300C08F801CDEEE7A8F101000370F2
:101510002188090501D5452100E06521A0F10108D8
:1015200000F8011C09980FA9A1EB0807FF1D00B1E5
:101530000120411901EBEA70A1693844081A401EE4
:10154000A0612078C00602D42046FFF7EAF9099886
:1015500028B1D4E901219047206A401C20622078FC
:10156000C00622D52046FFF7DCF91EE0002E04DB82
:10157000B34502DD01A8805D00E03020D4E90121FF
:101580009047206A401C2062761CAAF101005FEAA5
:10159000000A0AD100F03CFBC0680168405CD4E955
:1015A00001219047206A401C2062281EA5F10105F8
:1015B000DCDC07E0D4E9012118F8010B9047206A30
:1015C000401C2062381EA7F10107F3DC2046FFF71C
:1015D000BEF9032011B041E62DE9F04F04460D4657
:1015E000D21D22F0070089B0D0E90097484639465D
:1015F0000CF02AFF0246F80F01D02D2307E02068E7
:10160000810701D52B2302E0202101EAC0038DF8D8
:1016100020300BB1012000E00020032A824601D0D7
:10162000072A04DB2946204600F0F6FA3FE120783D
:10163000800601D40D2500E0E569C7F30A560D2D9B
:1016400049DA00214FEA175B08464FF00000002FEF
:1016500000F4400007DA00EB80004FF4400100EB9B
:10166000D07001EA60008115012901DD4FF0FF31E2
:1016700000224FEA850CBCF1180F06D31346ACF1DB
:1016800018004FF08052C24003E04FF4801323FA59
:101690000CF30CF10C0CBCF1200F04D3ACF1200CBA
:1016A00009FA0CF001E007FA0CF000294FF00048AD
:1016B00001DD18B90FE00ED140450CD319EB02093A
:1016C0005F4121B9404502D19F4329EA0209BBEBA2
:1016D000175F00D0761C2088000502D57B4878442F
:1016E00002E07A487844193808AA302302F80A3010
:1016F000037C0AF10101002E0AF1020A53546A46E2
:1017000002DC4FF0300101E04FF031014FF00108F1
:101710008DF8001002D0A6F2FF3603E059EA470127
:1017200000D06B4E002D02DC2178090704D54FF064
:1017300002082E218DF80110C44600210BE0C7F3EA
:1017400003433F01C35C491C6D1E02F808300529A4
:1017500008F1010801DA002DF1DC00210CE000EBBA
:101760001973491C1B786D1E082902F808304FEACE
:10177000091908F1010801DA002DF0DC21688B0657
:1017800002D516E0A8F10108E04505DD02EB0803EB
:1017900013F8013C302BF5D0B8F1000F09DD02EB56
:1017A000080313F8013C2E2B03D1090701D4A8F13B
:1017B0000108002D05DD3E2102F808106D1E08F11C
:1017C0000108407C002E02F8080008F1010804DA44
:1017D0002D20764202F8080002E02B2002F80800D3
:1017E0000A214FF47A70864208F101080BDB96FB60
:1017F000F0F3303302F8083096FBF0F308F10108FB
:1018000000FB136601E0642E0CDB642096FBF0F312
:10181000303302F8083096FBF0F308F1010800FBC2
:10182000136601E00A2E06DB96FBF1F0303002F879
:10183000080008F1010896FBF1F001FB1060303060
:1018400002F80800A16908F1010808EB050202EBA3
:101850000A00081AA0612078C00602D42046FFF7CB
:1018600060F8216A08AE01EB0A00206204E0D4E9C6
:10187000012116F8010B9047BAF1010AF7D220783E
:10188000C00602D52046FFF74CF86E4609E016F870
:10189000010B3E280FD0D4E901219047206A401C5B
:1018A0002062B8F10108F2D22046FFF750F809B0E3
:1018B0000320BDE8F08F206A2844206203E0D4E9C9
:1018C0000121302090476D1EEBD3F8E786DF000042
:1018D00002FCFFFF01694A1C02610878704700B5ED
:1018E0008FB0CDE901310021059105497944CDE959
:1018F000031011466846FFF7F7F90FB000BD00006E
:10190000E5FFFFFF10B5436913B1AFF3008001E0BD
:10191000FFF740F8012010BD127800F124010A7091
:1019200000224A700122EDE711684FF0FF32E9E72B
:1019300010B5436913B1AFF3008001E0FFF7B6F8CB
:10194000012010BD128800F1240182840022C2848B
:101950000122EDE711684FF0FF32E9E7007B00F06C
:101960008000704770B5C468A50713D0650211D414
:10197000B2F5807F09D0B2F5007F06D0B2F5806F56
:1019800008D1012300F1240106E05D1E6FF07F46BF
:10199000B54201D3012070BD0161C361416024F4EF
:1019A00070611143C160002070BD00002DE9F0415D
:1019B0000C461646070047D0104600F06FF8207816
:1019C000611C61280AD0722802D077283CD102E03D
:1019D0000125002405E00225042402E0082448F241
:1019E000020511F8010B2B2806D0622809D011F846
:1019F000010C74280AD00BE045F0030544F0020402
:101A0000EFE745F0040544F00104EAE744F0100470
:101A10003846214600F0C0F8411C15D00021316144
:101A200071604FF40071F560F1617061200704D5B9
:101A300030460222002100F093FA306D40F00100A0
:101A400030653046BDE8F0810020FBE72DE9F0412C
:101A50000D460646104C206DC10704D0410804D045
:101A600020F00104F7E722460EE05420FEF734FE92
:101A700007000ED0206D47F0010108435421206576
:101A80003846FEF7E8FD3A4629463046BDE8F041C3
:101A90008CE70020D6E70000780000202DE9F04711
:101AA00004464FF0FF380026C568D4E90497A8071C
:101AB00018D0204600F010FB384600F077F80028D8
:101AC00000DA4646280502D54846FEF734FE4C218A
:101AD0002046FEF7C0FD206D20F001002065304655
:101AE000BDE8F0874046FBE72DE9F04116460C467D
:101AF000054600F085F8036893F80101012807D036
:101B0000FF2C12D8185D80B101202C70BDE8F08147
:101B1000D3F807013246214603F20713C7182846B7
:101B2000BC46BDE8F041002360474FF0FF30EDE7D1
:101B300010B50446AFF300802046BDE81040FEF724
:101B4000E5BB002801D0FEF78DBE704710B500211F
:101B500002A000F005FB012010BD000053494741E1
:101B60004252543A2041626E6F726D616C2074650E
:101B7000726D696E6174696F6E00000010B500F0DF
:101B800009FBBDE81040FFF7DCBF10B500F01CFBFF
:101B9000BDE81040FFF7D5BF0EB5CDE90001FEF757
:101BA00058FC029069460120ABBE0EBD08B56946DF
:101BB00000900220ABBE08BD1FB58DE80700694646
:101BC0000520ABBE04B010BD1FB58DE80F006946FF
:101BD0000620ABBEF6E708B5694600900920ABBE0B
:101BE00008BD1CB5CDE9000169460A20ABBE1CBD8D
:101BF000704708B5694600900C20ABBE08BD0000D8
:101C000010B500F005F8001D10BD00BFA9CC000004
:101C100000487047940100202DE9F0411F4604461A
:101C200003260168072A01F4006004DB08B116A549
:101C300005E016A503E008B115A500E015A521F003
:101C400010002060A069C01EA0610FB1401EA061FD
:101C50002046FEF766FE4FB1D4E901213846904791
:101C6000206A401C2062C01C206206E0206AFAE75D
:101C7000D4E9012115F8010B9047761EF8D22046D1
:101C8000FEF765FEBDE8F0814E414E006E616E00CC
:101C9000494E4600696E66002DE9F04781461646BA
:101CA0008AB0354878440DC88DE80D003248784434
:101CB000801C03AC0DC884E80D0041F69B3008443D
:101CC000372190FBF1F290FBF1F5A5F1800501FBC6
:101CD00012041B3C02D56442012000E00020DFF822
:101CE00098A080460027FA44AAF1BE0A0EE0E00759
:101CF0000AD03246684607EB470101230AEB81010F
:101D00000CF06BFA8DE8070064107F1C002CEED1FC
:101D1000194F7F44AE3F19E0E80715D007EB0410D8
:101D20000DF1180A90E80E008AE80E00C068F04233
:101D300001D1981908903246012306A903A80CF096
:101D40004CFA03AB83E807006D10641C002DE3D14F
:101D50004FF0010332466946B8F1000F03A802D0E4
:101D60000CF026FA01E00CF038FAC9E90001C9F8D4
:101D700008200AB0BDE8F08750DA00002DE9F05FD6
:101D8000054617460C46C86820F4201040F4800031
:101D9000C860800602D5084600F0C1F9E06841F24B
:101DA00082014FF0FF3A0140022903D0204600F0A3
:101DB00053F9B9E000F42041B1F5004F0FD1C00351
:101DC00006D56168E06A884200D80846606006E08F
:101DD0002069E06260606069FFF70BFFA061A068A6
:101DE0000022EEB200280DDAE1688B050AD4C04368
:101DF000A06041F490302260E0606068411C616046
:101E00000670AAE0E0689146226040F40050E0606D
:101E1000206978BB6069FFF7DEFE04F124054FF00E
:101E20000108A8B1A08910F4407F08D0E069FEF74E
:101E300053FC206118B1E06840F4006017E0C4F87A
:101E40001C802561E06820F4407040F480600EE062
:101E5000E069FEF741FC00282061F0D0E06840F422
:101E6000006010F4407FE06002D140F48070E060D8
:101E700020696060E06825696FF0010BC1051ED51F
:101E80006168E06A884200D80846411B04D02246B7
:101E9000284600F0EBF8E8BB1FB1E562C4E9015940
:101EA00059E0681CE0626060E069401EA060E06884
:101EB00040F48030E06030462E70BDE8F09F17B1EE
:101EC00000F480320AE06068411C61600670E068DE
:101ED0000A2E40F48030E06006D00022E16A60689B
:101EE000814203D90B4602E00122F7E70346B4F82A
:101EF0000CC05B1B5FEA4C5C04D4D4F81CC09C454E
:101F000000DD02B3814200D80146002BA1EB00089E
:101F1000E56200E008E0C4E9015907DD2246194600
:101F2000284600F0A3F808B15046C6E7B8F1000F04
:101F300009D0A169E5626560A1EB0800A061E068D5
:101F400040F01000E06047B16168A069E562491B9C
:101F500008446560A0615846AFE73046ADE7000031
:101F60002DE9F041044616460D464769007B80077F
:101F70002ED03846FFF72FFE50BB3EB3012E02D0C5
:101F8000022E25D104E0204600F04DF905441DE065
:101F90003846FFF72EFEE168002841F01001E160AD
:101FA00005DA204600F058F80120BDE8F081C903A9
:101FB0000BD56268E16A914200D81146A2691144CA
:101FC0002269891A814200DD08460544002D01DAA4
:101FD0000220EAE7E16A6068E268814206D2910382
:101FE000E06203D522F4003141F01002A669002717
:101FF000AE4213DCE16A814201D90B4600E00346A0
:1020000003EB060C2369ACEB030CAC4506DD814207
:1020100001D98C4600E084469C4505D1A760276025
:1020200042F02000A5620DE0AD1BE669AE1B8142C7
:10203000A66000D90846C01A281A206058196060A6
:1020400022F0200003490840E060002084F8487036
:10205000ABE70000BFCFD7FFC16821F4001141F00A
:102060008001C16000218160016070472DE9F74F58
:1020700015460C464FF0FF3B3848D768D2F814A0FD
:10208000074209D05046A969FFF7ABFD002819DBCC
:102090003248C0430740EF604FF000496FF00048FE
:1020A0004C4501D3464600E0264600993B46504643
:1020B0003246FFF781FDA96920F00042B21A1144AF
:1020C000A96128B12846FFF7C7FF5846BDE8FE8F33
:1020D000A41BE5D10020F9E770B504460569C06A84
:1020E0006168884200D80846E16821F42011E16067
:1020F000C90312D5A84208D02246411B2846FFF743
:10210000B5FF10B14FF0FF3070BD0020E562C4E9AB
:102110000150E06820F48030E060002070BD10B510
:102120000446C06820F02000E060A16AA0698842EF
:102130000DD02046FFF7D0FFE06820F4405040F07B
:102140001000E060A06AA0612069E062606044F273
:102150004001E0688843E06010BD0000100002000C
:1021600070B505460C460A2000E06D1C00F054F8DE
:1021700035B128780028F8D102E0641C00F04CF852
:1021800014B120780028F8D1BDE870400A2000F092
:1021900043B8000010B5014602A0FFF7E1FF01209F
:1021A00010BD000053494752545245443A205265ED
:1021B0006469726563743A2063616E2774206F707E
:1021C000656E3A200000000010B5012805D00021FE
:1021D00003A0FFF7C5FF012010BD09A1F8E700002B
:1021E00053494752544D454D3A204F7574206F6600
:1021F0002068656170206D656D6F72790000000068
:102200003A2048656170206D656D6F727920636F4B
:10221000727275707465640008B569468DF80000C7
:102220000320ABBE08BD10B50146C268900703D0BD
:10223000900607D5886A0AE0FEF722FB01210160BB
:10224000881E10BD8B69486818440B69C01A91F844
:1022500048301BB191F84910401A10BD1103FCD54C
:102260000028FADD401E10BD30B44FF0013C50F89C
:10227000042B51F8043BCCFA52F4D51A20D1FCB906
:1022800050F8042B51F8043BCCFA52F4D51A17D16C
:10229000B4B950F8042B51F8043BCCFA52F4D51AD7
:1022A0000ED16CB950F8042B51F8043BCCFA52F41F
:1022B000D51A05D1002CDAD030BC4FF000007047A1
:1022C00029BAB1FA81F111F01801D1F1200084404E
:1022D000F2D1CA40CB4012F0FF0213F0FF0330BC32
:1022E000D01A7047FEE7000041F22830C2F2000029
:1022F00000F046BA41F22830C2F2000000F040BAC5
:1023000041F25030C2F2000000F03ABA41F25030CF
:10231000C2F2000000F034BA82B04FF4FA7009F053
:1023200083FE42F25C55C2F20005D5E90001081AAD
:102330001F282CD80C2009F031FB04464FF644200E
:10234000C0F6000008300026C4E900062046A6605A
:1023500004F002FBD5E901010194884204D2019600
:1023600040F8044B686006E042F25C50C2F20000A4
:1023700001A909F085FA01980021019138B101689D
:102380004968884703E000BF022009F04DFED5E907
:10239000007600E00437B742F6D03C68002CF9D054
:1023A0002068C168204688472068816820468847A1
:1023B000F0E7000040F20C0541F2581741F24816D0
:1023C00041F2D864C2F2000541F22128C2F20007AE
:1023D000C2F20006C2F20004D6F80600A5F82D806D
:1023E000C5F82F00D5F82D007A89294641F80E0F3F
:1023F000A1F82520D1F8230008224860204602F0E9
:10240000FDFC0A2009F010FEE6E7000041F238402A
:10241000C2F2000000F022BD41F29840C2F200007A
:1024200000F01CBD41F2F840C2F2000000F016BD01
:1024300041F27830C2F2000000F010BD41F2585075
:10244000C2F2000000F00ABD41F2D830C2F2000032
:1024500000F004BD7047000040F26820C2F20000A6
:1024600007F05ABF72B600BFFEE7000040F26824D2
:10247000C2F200044FF4FA70251D00BF09F0D4FD2C
:10248000A6680120AE42F9D0B068016809688847A3
:102490007668AE42F8D10120F0E7000090F82020E5
:1024A000013A012A04D8006800F11402002004E077
:1024B00000F1240201204FF48021136819431160B8
:1024C0007047000010B590F820E0D0F800C0AEF1E1
:1024D000010EBEF1010FDCF808E010D81EF0E05F3D
:1024E00013D0CEF3016E012000FA0EF018608B6855
:1024F0008BB14868CC6844EAC00003430FE000F1A8
:10250000240101204FF4802223E000F12401012066
:102510004FF400121DE00868CB6843EA40530CEB0F
:102520000E10C0F880310B69C0F88431097D012993
:1025300005D100F5C2710B6843F480730B605168DC
:10254000C0F88C11126800F5C071C0F88821002015
:1025500001220B681A430A6010BD000090F8202089
:10256000013A012A30D8B0B546F20060C4F200004A
:10257000026842F001020260026822F47C520260AA
:10258000D1F814E0CC694A6A0368012C43EA0222BC
:1025900002600EF01F024FF0010303FA02F2C3695A
:1025A0006FEA020C23EA0203C36113D02CBBC36899
:1025B00003EA0C03C360CB688C8844EA034300EB56
:1025C000CE0423640B4611E0416A41F4802141624C
:1025D00001207047C3681343C3600B688C8844EACA
:1025E000034300EBCE04236401F10C038C681B88C9
:1025F00043EA044300EBCE04636443688D6943EA15
:102600000204D1F810E0096A002D08BF03EA0C04A7
:1026100044604369BEF1000F43EA020408BF03EAC5
:102620000C040129446102D1C1691143C1610168EF
:1026300021F0010101600020B0BD000070470000E2
:1026400010B590F82040013C012C75D80468002991
:102650000CBFE4682469A40774D0046804EB011C6F
:10266000DCF8B0410CF5D87E14F004049460DCF87A
:10267000B04119BFE4085460640D1460DEF80040F6
:102680000CF5DA7E04F00204D460DCF8B4412407CF
:102690005ABFDEF8004004F00F0408241461DEF88D
:1026A00000400029C4F307249461DEF800404FEA9B
:1026B00014445461DCF8B8211A70026802EB01126C
:1026C000D2F8B8214FEA12225A70026802EB0112C6
:1026D000D2F8B8214FEA12429A70026802EB011256
:1026E000D2F8B8214FEA1262DA70026802EB0112E6
:1026F000D2F8BC211A71026802EB0112D2F8BC2197
:102700004FEA12225A71026802EB0112D2F8BC2180
:102710004FEA12429A71026802EB0112D2F8BC2110
:102720004FEA1262DA7100680CBF00F10C0100F18F
:102730001001002020220AE000F1240101204FF4C2
:10274000802204E000F1240101204FF400120B6804
:102750001A430A6010BD000090F8201001390129C9
:1027600084BF002070470068816882688068C1F378
:102770008061C2F3C0621144C0F300700844704726
:102780002DE9F04F81B0044600684669D0F8049006
:102790008768D0F80CB0D0F810A0D0F81880F107F6
:1027A00003D1002530071CD423E0F90710D0012104
:1027B000BA07816009D4780700F1AA80380700F1D0
:1027C000B080204600F0EAFA02E0204600F0E8FA85
:1027D0000025F80500F18480F80300F1AA80300795
:1027E00007D51BF0100004D0206845F400751021B7
:1027F000C160700708D51BF0080005D020680821CB
:10280000C160204600F000FAB00706D52068C06815
:10281000800702D0204600F0F9F9700607D51AF0BB
:10282000100004D0206845F4806510210161B006D5
:1028300008D51AF0080005D020680821016120465B
:1028400000F078FAF00606D520680069800702D00B
:10285000204600F071FAB00308D519F0100005D039
:10286000206810214160204600F068FAF00308D586
:1028700019F0080005D0206808214160204600F0CA
:1028800099FA300440F18F805FEA497040F1888006
:1028900006F4807008EA102028435FEA8871014638
:1028A00048BF41F00201B20558BF01465FEA4870D7
:1028B0000D4648BF45F00405700558BF0D4630056C
:1028C0006ED518F070006BD010380009052862D85A
:1028D000DFE800F0035356595C5F45F008055AE005
:1028E00020684FF48071BA0581600AD4780512D44B
:1028F000380519D4204600F055FAF8037FF56FAF7C
:1029000017E0204600F050FAF8037FF568AF10E0BA
:102910004FF400655DE705F50055F8037FF55FAFFF
:1029200007E04FF4805554E705F58045F8037FF53F
:1029300056AF20684FF48031BA0381600AD478031F
:102940000FD4380313D4204600F030FA30073FF597
:1029500048AF4EE7204600F02BFA30073FF541AF75
:1029600047E705F5004530073FF53BAF41E705F583
:10297000803530073FF535AF3BE745F010050AE0FD
:1029800045F0200507E045F0400504E045F08005EE
:1029900001E045F480752068816921F07001816152
:1029A0002068042141604DB1606A40EA050120467B
:1029B000616201B0BDE8F04FFFF740BE01B0BDE875
:1029C000F08F0000002804BF01207047B0B5044616
:1029D00090F8200010B9204600F06EF820680168D9
:1029E00041F00101016000F0BBFC05462068416830
:1029F000C90705D100F0B4FC401B0B28F6D310E04A
:102A0000016821F00201016000F0AAFC054600BF48
:102A10002068416889070DD500F0A2FC401B0B28F7
:102A2000F6D3606A052140F400306062012084F82A
:102A30002010B0BD217E0268012922F0800208BF6B
:102A400080320260617E0268012922F0400208BFE4
:102A500040320260A17E0268012922F0200208BFF4
:102A600020320260E17E0268012922F0100218BFC4
:102A700010320260217F0268012922F0080208BF9B
:102A800008320260617F0268012922F0040208BF57
:102A900004320260D4E901C2D4E9033561691A4302
:102AA0002A431143ACF101021143C161002001210D
:102AB000606284F82010B0BDB0B586B0006846F6FC
:102AC0000002C4F2000200219042CDE90411CDE9D8
:102AD0000211019144D046F20041C4F20001884243
:102AE00040F08F8040F28821C2F200010A6843F66C
:102AF0004000C4F20200531C0B6052B90021009147
:102B0000016841F000710160016801F000710091FD
:102B100000990021009150F8102C42F0080240F872
:102B2000102C50F8100C022200F0080000900098C1
:102B30000320019004900920059040F20040C4F267
:102B40000200CDE9022100F5006001A900F03CFB84
:102B5000142000210022142500F0BCFC152445E0BF
:102B600043F64000C4F202000091016841F0806128
:102B70000160016801F080610091009940F28821B4
:102B8000C2F200010A68531C0B6052B90021009187
:102B9000016841F000710160016801F0007100916D
:102BA00000990021009150F8102C42F0020240F8E8
:102BB000102C50F8100C00F00200009000986020DB
:102BC00001900220CDE90201032004900920059024
:102BD00040F20040C4F2020001A900F0F5FA4020E2
:102BE00005210022402500F075FC4124284600F014
:102BF00061FC20460521002200F06CFC204600F01C
:102C000059FC06B0B0BD0000704700002DE9F0414E
:102C100086B040F28C6540F2A868C2F20005C2F2AC
:102C2000000800212A4643460646FFF709FD41F207
:102C30002830C2F20000864221D105F10C0C9CE83C
:102C4000911095E80E008DE8911040F25030C2F2DC
:102C50000000CDF8108008F0AFFCD5E9030795E837
:102C60000E00D5E9054CCDE9000740F28830C2F2EC
:102C70000000CDE9024CCDF8108008F09DFC41F237
:102C80005030C2F20000864202D006B0BDE8F081AA
:102C9000D5E9030795E80E00D5E90564CDE90007FD
:102CA00040F6D470C2F20000CDE90264CDF8108085
:102CB00007F01CF9286840F233218842E5D1D8E9B1
:102CC000000141F2B004C2F20004C4E900016188CD
:102CD000C2BA00EE102AA288CBBA01EE103AD3BADB
:102CE0009FED132A03EE103AB8EEC00AB8EEC11AEF
:102CF000B8EEC33A80EE020A81EE021A83EE022A8F
:102D000000BA000C208008BA000C608010BA000CD9
:102D1000A080E08884ED020A84ED031A84ED042A81
:102D2000A08200F01DFB606206B0BDE8F08100BF2C
:102D30000000C84270470000704700007047000064
:102D4000B0B5044690F8200001281DD1022084F877
:102D500020002068016821F00101016000F000FB03
:102D6000054600BF20684068C00713D000F0F8FA9D
:102D7000401B0B28F6D3606A40F4003060620520E7
:102D800084F820000120B0BD606A40F40020606239
:102D90000120B0BD00206062B0BD0000704700009F
:102DA0007047000070470000704700007047000047
:102DB000704700007047000070B5866D044600F053
:102DC000CFFA94F83510022925D105462068216CE8
:102DD000026822F016020260426922F0800242611B
:102DE00009B9A16C19B1016821F0080101600168FD
:102DF00021F00101016000BF20680068C0070ED00B
:102E000000F0AEFA401B0628F6D3202060650320B0
:102E100084F835000CE080206065012008E0E06D5A
:102E20003F2101FA00F0B060012084F83500002055
:102E3000002184F8341070BD90F83510022909D1B2
:102E4000052180F835100068016821F0010101605A
:102E5000002070478021416501207047F0B581B0A6
:102E600004460020009040F25400C2F200000268C4
:102E7000D4E9166048F2B51337680821C1F64E331D
:102E800081403942A2FB03250CD0226813685B07FE
:102E900008D5136823F004031360B160616D41F03D
:102EA0000101616501218140394208D022685269DF
:102EB000120604D5B160616D41F002016165042123
:102EC0008140394208D022681268920704D5B16067
:102ED000616D41F00401616510218140394215D0D6
:102EE00020680268120711D5B160026801685203B8
:102EF00006D4C90506D4016821F00801016001E08B
:102F000008033ED4216C09B120468847E16D20209A
:102F100000FA01F23A4240D020680368DB063CD553
:102F2000B26094F835300268052B1AD122F01602EF
:102F30000260426922F080024261226C0AB9A26CEE
:102F40001AB1026822F0080202603F208840B06097
:102F5000012084F83500216D002084F83400D9BBAD
:102F60003FE00168520310D4C90512D4016821F072
:102F700010010160012084F83500002084F834003D
:102F800007E0A16C0029BFD1C0E7080301D4616C40
:102F900000E0E16B09B120468847606D08B3606DC1
:102FA000C00717D0052084F835002068A90A0268F8
:102FB00022F00102026000BF009A01328A420092B0
:102FC00002D80268D207F7D1012084F8350000202A
:102FD00084F83400E16C21B1204601B0BDE8F04036
:102FE000084701B0F0BD00002DE9F041044600F0B3
:102FF000B7F9C4B10546022084F8350000202168E5
:1030000084F83400086820F0010008602068016836
:10301000C9070BD000F0A4F9401B0528F6D90321FD
:10302000202203207AE00120BDE8F081016848F207
:103030003F02CFF21002D4E9013501EA020ED4E9D1
:10304000032143EA0E032B43D4E9056C1A43D4E968
:1030500007781143314341EA0702616A42EA0802F4
:10306000042942EA0C0303D1D4E90B273A43134362
:1030700003604269042922F0070241EA02012DD1CE
:10308000D4E90A5341EA050143B3BCF5005F08D017
:10309000BCF1000F12D1022D16D0012D07D09DB129
:1030A00019E0032D17D8DFE805F00B0F0B02A3F191
:1030B000C072B2FA82F252094AB90FE0032D02D26D
:1030C000012222B90AE006D1C3F3006232B1012124
:1030D0004022012022E00022002AF8D100F0F8026C
:1030E0004AF6AB23103ACAF6AA23A2FB03374FF6DF
:1030F000D83341613909C0F60003595C40F2FF330F
:1031000098435F2A4FF03F0288BF0430C4E916019C
:1031100002FA01F18160002201210020626584F839
:103120003510BDE8F081000090F834C0BCF1010F0B
:1031300004BF0220704770B54FF0010C80F834C016
:10314000D0F858E090F835C0BCF1010F37D14FF0FE
:10315000020C80F835C04FF0000CC0F854C0D0F815
:1031600000C08468056CC06DDCF80060402C26F45B
:103170008026CCF80060CCF804300B4604BF134620
:103180000A463F2101FA00F0CCF80830CCF80C20B8
:10319000CEF80800DCF8000040F01600CCF8000083
:1031A0002DB1DCF8000040F00800CCF80000DCF89D
:1031B000000040F00100CCF80000002070BD0021AC
:1031C00080F83410022070BD2DE9F04F82B000F17C
:1031D0003E4707F1FF77860546EA972741F6004606
:1031E000C4F202060822B04208BF0722072F38BFE8
:1031F0003A46002400274FF00009009209E000BF82
:1032000009F101090237B9F1100F04F1040400F0CB
:10321000A4800D68012202FA09FC15EA0C08EFD01F
:10322000D1F804B00BF0030AAAF10105012D12D860
:103230000322856802FA07FECA6825EA0E05BA402D
:103240002A4382604268CBF3001522EA0C0205FA99
:1032500009F52A434260BAF1030F1CD0C268032368
:103260008E6803FA07F5AA43BE403243BAF1020F53
:10327000C26010D16FF0030202EA59020244D2F890
:1032800020C004F01C050F230E69AB402CEA030399
:10329000AE4033431362026803234E68BB409A4337
:1032A00006F00303BB401A4316F4403F0260A7D068
:1032B000002243F644030192C4F202031A6843F663
:1032C000004E42F480421A601A68C4F2010E02F401
:1032D00080420192019A29F003024FF6084C724491
:1032E000CFF6FF7C52F80C3004F00C060F25B540E9
:1032F000AB43009D05FA06F6334342F80C30DEF886
:1033000008204B6842EA080643F60C4CDD0258BF21
:1033100022EA0806CEF80860C4F2010CDCF80020AE
:103320009D0242EA080658BF22EA0806CCF800606F
:10333000DEF804209D0342EA080658BF22EA080688
:10334000CEF80460DEF80020DB0342EA080658BF2E
:1033500022EA0806CEF8006052E702B0BDE8F08F1E
:1033600046F24440C2F200000068704740F2680034
:1033700046F24441C2F20000C2F2000100780A683D
:10338000104408607047000080B543F60040C4F266
:103390000200016841F400710160016841F480613C
:1033A0000160016841F480710160032000F0BEF803
:1033B0000F2000F005F800F05BF8002080BD000051
:1033C00070B586B0002543F640010195C4F20201B4
:1033D0000A68044642F010020A60096801A801F078
:1033E000100101910199694600F060F9049E002ED8
:1033F00018BF012600F07AF94DF68361B040C4F29F
:103400001B31A0FB01014FF0FF3000EB914141F275
:10341000486041F20002C2F20000C4F2000240F231
:10342000E733C0E90021C0E902530561856100F07E
:10343000C5FB0546C0B941F24860C2F2000000F089
:1034400075FC054680B9362000F034F80F2C0AD8F8
:1034500036202146002200F03DF840F26C00C2F216
:103460000000046000E00125284606B070BD0000A1
:1034700082B0002043F640010190C4F202014A6884
:1034800042F480424A604A6802F480420192019A02
:1034900000900868002240F08050086008680F2102
:1034A00000F08050009000986FF0010002B000F032
:1034B00011B80000002848BF704700F01F0101222A
:1034C00002FA01F14EF200124009CEF2000242F877
:1034D0002010704710B54EF60C5CCEF2000CDCF8F4
:1034E0000030C3F3022E8EF00704042C28BF0424FE
:1034F000BEF103034FF0FF3E0EFA04F438BF002381
:10350000A14399400EFA03F39A43114300F160423C
:1035100000F00F03090102F56442043B63440028F4
:1035200048BF03F10C02117010BD00004EF60C51A3
:10353000CEF200010A684FF6FF031A4060F30A2238
:1035400042F0806040F0FD7008607047002804BFC2
:10355000012070472DE9F04143F60808C4F2020843
:103560000446D8F8F8030D4600F00700884207D259
:1035700088F8F853D8F8F80300F00700A84276D18D
:103580002068810717D5410705D5D8F8001041F408
:10359000E051C8F80010010705D5D8F8001041F433
:1035A0006041C8F80010D8F80010A26821F0F001BE
:1035B0001143C8F80010C0073FD1D8F8F80300F055
:1035C0000700A84207D988F8F853D8F8F80300F0A4
:1035D0000700A8424BD12068410707D5D8F8001052
:1035E000E26821F4E0511143C8F80010000708D543
:1035F000D8F80000216920F4604040EAC100C8F812
:10360000000000F09BF8D8F800104FF22C72C1F3C4
:103610000311C0F60002515C40F2540220FA01F19D
:1036200040F26C00C2F200000068C2F200021160B9
:10363000FFF7C6FE0020BDE8F0816068811E022908
:1036400007D258F8081C89015CBF0120BDE8F08151
:1036500010E0012807D158F8081C89035CBF01203D
:10366000BDE8F08106E058F8081C890702D4012063
:10367000BDE8F081D8F8001021F003010843C8F834
:103680000000FFF76DFE064641F28837D8F80000CB
:10369000616800F00C00B0EB810F8ED0FFF760FE88
:1036A000801BB842F2D90320BDE8F0810F220260EE
:1036B00043F60802C4F20202136803F003034360F6
:1036C000136803F0F0038360136803F4E053C360EE
:1036D000D2F800C04FF4E05303EADC030361D2F8F0
:1036E000F80300F0070008607047000040F2540043
:1036F00043F60801C2F20000C4F202010068096842
:103700004FF23C72C1F38221C0F60002515CC84006
:103710007047000040F2540043F60801C2F2000076
:10372000C4F20201006809684FF23C72C1F34231F1
:10373000C0F60002515CC8407047000010B543F667
:103740000404C4F20204606800F00C0008280AD0E7
:10375000042819BF42F20040C0F2F40041F60030E4
:10376000C0F2B70010BD206821682368490241F605
:103770000031C0F2B70100F03F02C3F388105CBF14
:1037800042F20041C0F2F401A1FB00010023FCF76A
:10379000E3FD21680222C1F3014102EB4101B0FBCC
:1037A000F1F010BD002804BF012070472DE9F04161
:1037B00082B00446007843F60006C007C4F2020651
:1037C00047D0B06800F00C00042808D130688003AE
:1037D0003FD56068E8BB012002B0BDE8F081B06869
:1037E00000F00C00082802D170684002EED4656831
:1037F000B5F5A02F0AD0B5F5803F0BD0306820F486
:1038000080303060306820F4802006E0306840F47A
:1038100080203060306840F480303060FFF7A0FDD9
:10382000002D054612D000BF3068800311D4FFF789
:1038300097FD401B6428F7D926E100BFFFF790FDF4
:10384000401B64284FF0030000F2E28030688003E0
:10385000F4D4207880071BD5B06810F00C0F09D085
:10386000B06800F00C00082840F0878070684002C3
:1038700000F183803068800703D5E068012840F0BC
:103880009E803068216920F0F80040EAC100306075
:103890002078000735D42078400748D4A56965B35F
:1038A000B06800F00C00082840F09E80012D00F068
:1038B00086807068E16900F480028A4240F07F806F
:1038C000216A00F03F028A4279D147F6C071626AEC
:1038D0000140B1EB821F72D1A16A4FF6FF73C90399
:1038E000994300F44032A1F580318A4267D1E16A00
:1038F00000F07060B0EB016F61D1002002B0BDE854
:10390000F0816069002840F20000C4F247205AD0DC
:103910000121C0F8801EFFF723FD0546706F800768
:10392000B9D4FFF71DFD401B0228F7D9ACE0306C7D
:103930005FEAC0080AD400200190306C40F080504B
:103940003064306C00F080500190019847F200071D
:10395000C4F200073868C00524D4386840F4807089
:103960003860FFF7FDFC05463868C0051AD4FFF73C
:10397000F7FC401B0228F7D986E0E068002857D002
:103980000020C4F2472001210160FFF7E9FC054651
:10399000306880073FF575AFFFF7E2FC401B022857
:1039A000F6D971E0A568052D56D0012D58D0306F9D
:1039B00020F001003067306F20F0040053E0012058
:1039C00002B0BDE8F0810021C0F8801EFFF7C8FCFE
:1039D000054600BF706F80077FF55DAFFFF7C0FC45
:1039E000401B0228F6D94FE00027C4F247270020E9
:1039F0003866FFF7B5FC022D05460DD13068800111
:103A000059D5FFF7ADFC401B02284FF00300F5D954
:103A100002B0BDE8F08100BF306880017FF56DAF76
:103A2000FFF79EFC401B02284FF00300F4D9EFE79C
:103A30000020C4F2472000210160FFF791FC0546F9
:103A4000306880077FF524AFFFF78AFC401B02280F
:103A50004FF00300F4D9DBE7306F40F0040030672B
:103A6000306F40F001003067FFF77AFC002D05460B
:103A700041F2883713D000BF306F800712D4FFF7B0
:103A80006FFC401BB842F7D9032002B0BDE8F081BB
:103A9000FFF766FC401BB8424FF00300B8D8306F08
:103AA0008007F5D4B8F1000F3FF5F8AE306C20F088
:103AB00080503064F2E604F11C052FCD084340EA43
:103AC0008210D9034FF6FF729143A1F5803140EA8D
:103AD00005600843706001203866FFF741FC04462A
:103AE000306880013FF509AFFFF73AFC001B022860
:103AF0004FF00300F4D98BE77047000070470000D7
:103B000090F83C20012A4FF0020255D010B5012355
:103B100080F83C3080F83D200268D2F804E0D2F80A
:103B200008C00C682EF07003234341F2FF74C4F206
:103B30000004A24253600DDC40F2FF73C4F20003A4
:103B40009A4215DCB2F1804F29D040F20043C4F212
:103B5000000322E040F2FF33C4F201039A4212DC78
:103B600041F60003C4F200039A4218D0002312E089
:103B700040F60003C4F200039A4210D040F600431E
:103B8000C4F2000309E044F20003C4F201039A42C4
:103B900005D040F20043C4F201039A4204D14968BF
:103BA0002CF08003194391600121002280F83D1020
:103BB00080F83C20BDE8104010467047002804BF44
:103BC0000120704710B5044690F83D0028B9002048
:103BD00084F83C00204600F01FF8022084F83D00E5
:103BE0002068211D01F04EFD012084F8460084F874
:103BF0003E0084F83F0084F8400084F8410084F8D7
:103C0000420084F8430084F8440084F8450084F8B6
:103C10003D00002010BD000080B582B0006841F278
:103C20000041C4F20001884216D040F60041C4F2BF
:103C3000000188420ED10020019043F64000C4F2FA
:103C40000200016841F008010160006800F008000E
:103C50000190019802B080BD0020009043F6400022
:103C6000C4F202000168002241F0200101600068F6
:103C7000012100F02000009000983720FFF72AFC77
:103C8000372002B0BDE88040FFF714BC90F83D102B
:103C900001291CBF01207047022180F83D100068F7
:103CA00041F2FF71C4F2000188420DDC40F2FF7165
:103CB000C4F20001884215DCB0F1804F29D040F2F7
:103CC0000041C4F2000122E040F2FF31C4F20101E0
:103CD000884212DC41F60001C4F20001884218D08B
:103CE000002112E040F60001C4F20001884210D029
:103CF00040F60041C4F2000109E044F20001C4F2C0
:103D00000101884205D040F20041C4F2010188421D
:103D100006D1816801F00701062904BF0020704721
:103D2000016841F0010101600020704790F83D10EA
:103D300001291CBF01207047022180F83D10006856
:103D400041F2FF72C168C4F20002904241F00101E9
:103D5000C1600DDC40F2FF71C4F20001884215DC45
:103D6000B0F1804F29D040F20041C4F2000122E0BE
:103D700040F2FF31C4F20101884212DC41F6000139
:103D8000C4F20001884218D0002112E040F6000180
:103D9000C4F20001884210D040F60041C4F2000194
:103DA00009E044F20001C4F20101884205D040F26A
:103DB0000041C4F20101884206D1816801F0070187
:103DC000062904BF00207047016841F0010101602D
:103DD0000020704790F83C20012A4FF0020200F0CA
:103DE000C68080B5012380F83C3080F83D20D0F8B3
:103DF00000C04FF67772DCF8083023EA0202CCF8F4
:103E000008200B684F2B28DC1F2B44DD202B45D0CE
:103E1000302B43D0402B40F0AC80D1F804E0C9688F
:103E2000DCF82030DCF8202022F00102CCF8202041
:103E3000DCF8182022F0F00242EA011123F00A0215
:103E400042EA0E02CCF81810CCF82020DCF808105A
:103E500041F0470121F030017EE06F2B26DDB3F504
:103E6000005F47D0B3F5805F78D0702B40F0818041
:103E7000D1E901E3C968DCF8082043EA0E0322F423
:103E80007F4243EA01211143CCF80810DCF8081006
:103E900041F0770160E00BB1102B6AD1DCF808101B
:103EA00021F07001194341F0070155E0502B34D047
:103EB000602B5ED1D1F804E0C968DCF82030DCF872
:103EC000202022F01002CCF82020DCF8182022F468
:103ED000704242EA013123F0A00242EA0E12CCF80D
:103EE0001810CCF82020DCF8081041F0670121F010
:103EF000100131E0D1E901E3C968DCF8082043EAA8
:103F00000E0322F47F4243EA01211143CCF808104A
:103F1000DCF8081041F480411EE0D1F804E0C968E3
:103F2000DCF82030DCF8202022F00102CCF8202040
:103F3000DCF8182022F0F00242EA011123F00A0214
:103F400042EA0E02CCF81810CCF82020DCF8081059
:103F500041F0570121F02001CCF808100022012186
:103F600080F83D10002180F83C10BDE880401046EC
:103F700070470122F3E700007047000070B5044667
:103F80000068C5680669B10716D515F0020113D09F
:103F90006FF002010161012121778069800703D060
:103FA0002046FFF7E9FF05E0204600F0DDF8204657
:103FB00000F030FA00202077700718D515F00400C3
:103FC00015D020686FF0040101610221217780691A
:103FD00010F4407F03D02046FFF7CEFF05E02046D7
:103FE00000F0C2F8204600F015FA002020773007D4
:103FF00017D515F0080014D020686FF00801016192
:1040000004212177C069800703D02046FFF7B4FF61
:1040100005E0204600F0A8F8204600F0FBF900205B
:104020002077F00618D515F0100015D020686FF035
:104030001001016108212177C06910F4407F03D08D
:104040002046FFF799FF05E0204600F08DF8204656
:1040500000F0E0F900202077F00718BF15F001000C
:1040600002D1300609D412E020686FF0010101612D
:10407000204600F063FA300609D515F0800006D01E
:1040800020686FF0800101612046FFF735FD700662
:1040900009D515F0400006D020686FF0400101619D
:1040A000204600F05DFAB00658BF70BD15F0200044
:1040B00008D021686FF0200220460A61BDE87040F8
:1040C000FFF71CBD70BD000080B586B0006840F6EB
:1040D0000042C4F2000200219042CDE90411CDE972
:1040E000021101911DD040F60001C4F20001884286
:1040F00037D10020009043F63000C4F2020001687E
:10410000032241F0080101600068012100F008006D
:104110000090009840F600404FF48043C4F2020043
:1041200016E043F630000091C4F2020002684FF43A
:10413000E05342F0800202600068002200F080003C
:104140000090009840F60040C4F2020000F5805054
:1041500001930223CDE9023101A9CDE90423FFF740
:1041600033F806B080BD00007047000090F83C3086
:10417000012B04BF022070474FEAB2020123032A39
:1041800080F83C3000F2F8802DE9F043DFE802F0DF
:10419000023D7CBC036840F200461C6A1A6A24F0A7
:1041A000020422F001021A621A46D3F804C052F83F
:1041B00018EF8F6843F48065C4F20106B54244EA03
:1041C000070405D1CF6824F00C0427F004073C4312
:1041D0000F68B54206D1D1E905582CF440762E433C
:1041E00046EA080C2EF073063743C3F804C09F61FB
:1041F0004F6809695F631C629F6947F008079F6108
:104200009F6927F004079F61B0E0036840F200480F
:104210001C6A1A6A24F0200422F010021A621A465C
:10422000D3F804C052F818EF8F6843F48065C4F2E5
:104230000108454544EA071407D1CF686FF04006EE
:1042400024F0C00406EA07163443D1F8009045452F
:1042500006D1D1E905562CF440672E4347EA860C77
:104260002EF4E64747EA0927C3F804C09F614F6868
:1042700009699F631C629F6947F400679F619F699A
:1042800027F480679F6170E0036840F200481C6A71
:104290001A6A24F4007422F480721A621A46D3F85F
:1042A00004C052F81CEF8F6843F48065C4F2010823
:1042B000454544EA072408D1CF6840F2FF463F0253
:1042C00024F4406427EA06063443D1F800904545BB
:1042D00006D1D1E905562CF440572E4347EA061C77
:1042E0002EF0730747EA0907C3F804C0DF614F687F
:1042F0000969DF631C62DF6947F00807DF61DF6976
:1043000027F00407DF6131E0036840F20045D3F88D
:1043100020C01A6A43F4806722F480521A621A4657
:104320005C6852F81CEFD1F800808E68C4F2010579
:10433000AF4204D14D6924F4804444EA85142CF43E
:10434000005747EA06372EF4E64646EA08265C6040
:10435000DE614E6809691E641F62DF6947F4006709
:10436000DF61DF6927F48067DF61090213681943A1
:1043700000231160BDE8F043002180F83C1018468E
:1043800070470000002804BF0120704710B50446A4
:1043900090F83D0028B9002084F83C00204600F049
:1043A0001FF8022084F83D002068211D01F06AF901
:1043B000012084F8460084F83E0084F83F0084F829
:1043C000400084F8410084F8420084F8430084F8F7
:1043D000440084F8450084F83D00002010BD000032
:1043E000006840F60001C4F20001884218BF70471F
:1043F00081B00020009043F64000C4F20200016842
:1044000041F004010160006800F004000090009891
:1044100001B070477047000041B1082909D0042954
:1044200014BF00F1410200F13F0204E000F13E023E
:1044300001E000F140021278012A1CBF0120704700
:10444000022241B1082909D0042914BF80F8412073
:1044500080F83F2004E080F83E2001E080F8402012
:10446000006801F01F010122036A02FA01F123EA48
:1044700001020262026A0A4341F2FF71C4F20001C2
:10448000884202620BDC40F2FF71C4F200018842F4
:1044900013DCB0F1804F45D040F2004115E040F20E
:1044A000FF32C4F20102904214DC41F60003C4F270
:1044B0000003984236D0002314E040F60001C4F215
:1044C000000188422ED040F60041C4F2000188422B
:1044D00028D02CE044F20003C4F20103984221D01A
:1044E00040F20043C4F20103984220D1436C884259
:1044F00043F400434364C6DD904207DC41F600010B
:10450000C4F2000188420DD0002107E044F200010E
:10451000C4F20101884205D040F20041C4F2010119
:10452000884204D1816801F00701062903D001689F
:1045300041F001010160002070470000006841F275
:104540000041C4F20001884208D041F20001C4F2E7
:104550000001884218BF7047FEF708BFFDF77CBF17
:104560007047000070B582B0044690F842002028E1
:1045700009D113460A4600294FF0010018BF002B4D
:1045800004D102B070BD022002B070BD20630026CD
:1045900022206663A262A385666484F84200E06B11
:1045A00045F6690C45F6E9052168C0F6000CC0F631
:1045B0000005C0E90FC545F2C575C0F60005043118
:1045C000C0E91356FEF7B0FD01962068016801911D
:1045D000406801900198206950B100BF206850E800
:1045E000030F216840F4807041E80302002AF5D1EE
:1045F000206850E8050F216840F0010041E80502FD
:10460000002AF5D1206850E8050F216840F04000ED
:1046100041E80502002AF5D1206B012815D10020C0
:10462000009020680168009140680090009800BFE9
:10463000206850E8030F216840F0100041E80302B1
:10464000002AF5D1002002B070BD012002B070BD7B
:104650000A46014641F23800C2F2000005F004BEED
:1046600070470000B0B582B0044600680168C368B6
:10467000426901F02F05202D03F0200506D12DB150
:10468000204602B0BDE8B04001F05EB95FEA017CAF
:104690001EBF02F0010E03F4907212EB0E0240D125
:1046A000226BCD0618D5012A16D113F0100213D0B3
:1046B00000210191016801914168019101994069CE
:1046C000400636D4A08DE18DE28D002A18BF8842C5
:1046D00040F00E8102B0B0BD0A0672D513F0800220
:1046E0006FD094F841102129F4D1A168B1F5805F11
:1046F00003D12169002900F03081216A4A1C22621D
:1047000009784160E18C01390A04E184E2D1C16891
:1047100021F08001C160C16841F04001C16002B078
:10472000B0BDC80718BF13F480705ED1480762D4CB
:1047300068E0E06B016849688AB2002ACAD0A38D9C
:104740009A42C7D2E185C069B0F5807F31D000BF01
:10475000206850E8030F216820F4807041E80302CC
:10476000002AF5D1206850E8050F216820F00100EB
:1047700041E80502002AF5D1206850E8050F2168BC
:1047800020F0400041E80502002AF5D1202084F8FD
:1047900042000020206300BF206850E8030F21681A
:1047A00020F0100041E80302002AF5D1E06BFEF78B
:1047B00003FB02206063A08DE18D401A81B2204688
:1047C000C0E049067FF586AF13F040013FF482AFA9
:1047D000C16821F04001C1602021204684F84110C9
:1047E00002B0BDE8B04000F063BB606C40F0010077
:1047F0006064480706D5BEF1000F03D0606C40F03E
:1048000002006064880706D5BEF1000F03D0606C1B
:1048100040F004006064BCF1000F06D55EEA0500BC
:1048200003D0606C40F008006064606C00283FF4C6
:1048300051AF880603D515B1204601F085F82068F0
:104840004069616C00F0400001F00801401848D058
:10485000206850E8030F216820F4907041E80302BB
:10486000002AF5D1206850E8050F216820F00100EA
:1048700041E80502002AF5D1206B01280AD100BFCA
:10488000206850E8030F216820F0100041E803027F
:10489000002AF5D1202084F84200002020632068FF
:1048A0004069400653D500BF206850E8050F2168D5
:1048B00020F0400041E80502002AF5D1E06B002815
:1048C00045D045F2B971C0F600010165FEF7B4FAB2
:1048D00000283FF4FFAEE06B016D02B0BDE8B040D0
:1048E00008472046FFF7BCFE0020606402B0B0BD60
:1048F000401A00BF216851E8031F226821F490711B
:1049000042E80313002BF5D1216851E8051F226806
:1049100021F0010142E80513002BF5D1202184F894
:1049200042100021216300BF216851E8031F226863
:1049300021F0100142E80313002BF5D1022281B2CD
:104940002046626302B0BDE8B040FFF781BE20465A
:1049500002B0BDE8B040FFF783BE216A31F8022BF8
:104960006FF35F2242602162CCE60000002804BFA2
:104970000120704710B5044690F8410028B9002086
:1049800084F84000204600F021F8242084F84100FB
:104990002068C16821F40051C160204601F034F85C
:1049A0002068016921F490410161416921F02A01E7
:1049B0004161C16841F40051C16000202021606460
:1049C00084F8411084F84210606310BD2DE9F04F67
:1049D00087B00446006844F60001C4F200010026D6
:1049E0008842CDE90566CDE90366029600F0938022
:1049F00041F20041C4F20101884200F0F68041F228
:104A00000001C4F20101884240F05E81002743F6B4
:104A100030000197C4F202004169002541F0100105
:104A200041614169C4F2020501F01001019101994F
:104A30000197016802AE41F002010160016846F28F
:104A4000280801F0020101910199019701684FF0D6
:104A5000020941F00101016000684FF0030A00F013
:104A6000010001900198802002904FF0070B05F59E
:104A700080603146C4F20208CDE90397CDF814A056
:104A8000CDF818B0FEF7A0FB4FF40070CDE9020995
:104A900004A880E8800C28463146FEF795FB41F2D9
:104AA000D83508F59260C2F200054FF0006640214B
:104AB000C5E9000605F108004FF4806980E882022C
:104AC0002846C5E90577C5E907776F62FEF78CFAD6
:104AD000002818BFFDF7C6FCA563AC6341F278352A
:104AE00008F58360C2F2000585E8C1002846C5E9E3
:104AF0000379C5E90577C5E907776F62FEF774FAB0
:104B0000002818BFFDF7AEFCE563AC632520052146
:104B100000222524D3E043F630000196C4F20200BF
:104B2000016946F2280841F4802101610169C4F25B
:104B3000020801F48021019101990196016841F078
:104B400004010160006802A900F0040001900198CE
:104B50004FF4406002900220CDE903060320059047
:104B6000072006900020C4F2020000F50060FEF766
:104B70002BFB41F23845C2F200054FF000674FF4BD
:104B800080692846C5E90087C5E90266C5E904963B
:104B9000C5E90666C5E90866FEF726FA002818BFCB
:104BA000FDF760FCE563AC6341F2984508F1300025
:104BB000C2F200054021C5E9000705F10800002206
:104BC00080E806022846C5E90522C5E907226A628F
:104BD000FEF70AFA002818BFFDF744FCA563AC6392
:104BE000272004210022272469E043F630000196A3
:104BF000C4F20200416946F2280841F020014161F7
:104C00004169C4F2020801F0200101910199019665
:104C1000016841F040010160006802A900F0400015
:104C2000019001984FF4844002900220CDE90306E0
:104C300003200590082006900020C4F2020000F531
:104C4000C050FEF7C1FA41F2585508F58F60C2F224
:104C500000054FF020674021C5E9000705F1080075
:104C60004FF4806980E842022846C5E90566C5E937
:104C700007666E62FEF7B8F9002818BFFDF7F2FB71
:104C8000A563AC6341F2F84508F58060C2F2000507
:104C9000C5E900072846C5E90266C5E90496C5E9E5
:104CA0000666C5E90866FEF79FF9002818BFFDF7FC
:104CB000D9FBE563AC634720042100224724FEF7BB
:104CC00009FC2046FEF7F6FB07B0BDE8F08F0000B8
:104CD00070B582B0044690F84200202809D11346EE
:104CE0000A4600294FF0010018BF002B04D102B082
:104CF00070BD022002B070BD002622202663A26291
:104D0000A385666484F84200E06B45F6690C45F6BD
:104D1000E9052168C0F6000CC0F60005C0E90FC522
:104D200045F2C575C0F600050431C0E91356FEF71B
:104D3000FBF9019620680168019140680190019893
:104D4000206948B1206850E8030F216840F4807062
:104D500041E80302002AF5D1206850E8050F2168D8
:104D600040F0010041E80502002AF5D1206850E832
:104D7000050F216840F0400041E80502002AF5D106
:104D8000002002B070BD000090F84230202B07D107
:104D900000294FF0010318BF002A04D118467047BC
:104DA0000223184670470023036381622221828513
:104DB000C285436480F84210016921B10168CA6864
:104DC00042F48072CA600068416941F001014161AA
:104DD000C16841F02001C1601846704710B5044613
:104DE00040F20C00C2F20000214601F053F92046C7
:104DF000BDE8104002F0A6BF70470000B0B5044601
:104E000090F8410020281CBF0220B0BD4FF00100E7
:104E100089B3002A134608BFB0BD4FF0000C212013
:104E20002162A384E384C4F844C084F84100A06BE9
:104E300045F6011E45F641152268C0F6000EC0F683
:104E40000005C0E90FE545F2C575C0F6000504325E
:104E5000C0E9135CFEF768F920686FF0400101605B
:104E6000206850E8050F216840F0800041E8050205
:104E7000002AF5D10020B0BD034690F8410020285B
:104E800006D100294FF0010018BF002A02D1704757
:104E9000022070471962002021219A84DA84586424
:104EA00083F841101968CA6842F08002CA607047EE
:104EB0007047000070470000FEE7000080B5042046
:104EC00006F06CFD4FF6A421C0F600010831016028
:104ED00005F0F8FA40F28C20C2F2000001210170C6
:104EE00080BD000080B541F2283046F20041C2F298
:104EF0000000C4F200010622002380E80E0000F149
:104F00000C014FF4403C4FF4801E81E8085083614F
:104F10008383FDF757FD002808BF80BDBDE88040B2
:104F2000FDF7A0BA80B541F2503046F60001C2F25A
:104F30000000C4F200010622002380E80E0000F108
:104F40000C014FF4403C4FF4801E81E8085083610F
:104F50008383FDF737FD002808BF80BDBDE8804092
:104F6000FDF780BA80B582B0002043F63001019091
:104F7000C4F202010A6842F480020A600A6802F47C
:104F800080020192019A00900868002240F400100B
:104F900008600868052100F40010009000980C20BB
:104FA000FEF798FA0C20FEF785FA0E200521002264
:104FB000FEF790FA0E20FEF77DFA39200521002237
:104FC000FEF788FA3920FEF775FA3A20052100220B
:104FD000FEF780FA3A20FEF76DFA452005210022FF
:104FE000FEF778FA4520FEF765FA462005210022F3
:104FF000FEF770FA462002B0BDE88040FEF75ABACC
:1050000080B545F285504FF6E032C0F60000C0F69C
:105010000002002107F04AF841F23811C2F2000103
:10502000086042F219304FF69032C0F60000C0F628
:105030000002002107F03AF841F23011C2F20001FB
:10504000086042F2B5304FF6B432C0F60000C0F648
:105050000002002107F02AF841F23411C2F20001E7
:10506000086045F22D504FF62842C0F60000C0F609
:105070000002002107F01AF842F2A041C2F200013A
:10508000086045F265404FF64C42C0F60000C0F69D
:105090000002002107F00AF842F2A441C2F2000126
:1050A000086042F26D404FF60442C0F60000C0F6C0
:1050B0000002002106F0FAFF41F24411C2F20001A1
:1050C000086080BD81B0002143F630000091C4F239
:1050D0000200026842F002020260026802F002026C
:1050E0000092009A0091026842F040020260026859
:1050F00002F040020092009A0091026842F0010220
:105100000260026802F001020092009A00910268B7
:1051100042F008020260026802F008020092009A5F
:105120000091026842F004020260026802F0040288
:105130000092009A0091016841F0800101600068CE
:1051400000F080000090009801B0704710B58AB060
:1051500041F2B85040F600010024C2F20000C4F24F
:1051600000014FF6FF730994CDE90744CDE90544EA
:10517000CDE90344CDE90144A72280E81600C0E947
:1051800003348461FFF7FEF8002818BFFDF76AF9C1
:1051900041F2B850C2F2000008A9CDE90844FEF778
:1051A000AFFC002818BFFDF75DF9602001900020DA
:1051B000CDE90200059041F2B850C2F2000001A909
:1051C0000822FEF7D3FF002818BFFDF74BF941F284
:1051D000B850C2F20000FEF777FF0AB010BD000021
:1051E00010B58EB041F2006040F600420021C2F2DC
:1051F0000000C4F200024FF6FF730D91CDE90B11D0
:10520000CDE90911CDE90711CDE90511CDE903116A
:10521000CDE90111C0E90021C0E9021301618161FA
:10522000FEF7CCFC002818BFFDF71CF94FF48050A6
:105230000A9041F20060C2F200000AA9FEF7CAFD1E
:10524000002818BFFDF70EF941F20060C2F200001D
:10525000FFF798F8002818BFFDF704F941F2006045
:105260000024C2F2000008A9CDE90844FEF748FC7A
:10527000002818BFFDF7F6F86020019042F2107088
:10528000CDE9020441F20060C2F2000001A900224F
:105290000594FEF76BFF002818BFFDF7E3F841F215
:1052A0000060C2F2000001A90422FEF75FFF00289F
:1052B00018BFFDF7D7F841F20060C2F2000001A963
:1052C0000822FEF753FF002818BFFDF7CBF841F284
:1052D0000060C2F20000FEF7F7FE0EB010BD000045
:1052E00010B582B041F2906041F20041C2F200007C
:1052F000C4F200010024532240F2E73380E8160094
:105300008021CDE90044C3608161FEF757FC00288D
:1053100018BFFDF7A7F841F29060C2F2000069469D
:10532000CDE90044FEF7ECFB002818BFFDF79AF822
:1053300002B010BD80B541F2D86041F20001C2F266
:105340000000C4F2010100234FF00C0C4FF4E132D5
:1053500080E80E00C0E90333C0E905C3C361FFF76D
:1053600005FB002808BF80BDBDE88040FDF77AB886
:1053700010B541F2207044F6000C48F2A062C2F26F
:105380000000C4F2000CC0F201024FF4805300216F
:105390004FF4806E0C24C0E900C2C0E90231C0E9BC
:1053A00004E4C0E90611FFF7E1FA002808BF10BDC8
:1053B000BDE81040FDF756B880B541F2687041F283
:1053C0000041C2F20000C4F2010100234FF00C0CB6
:1053D0004FF4E13280E80E00C0E90333C0E905C3B1
:1053E000C361FFF7C3FA002808BF80BDBDE8804055
:1053F000FDF738B8FEE70000FEE7000000000000FF
:10540000EFF30980BFF36F8F154B1A681EF0100F72
:1054100008BF20ED108A20E9F04F10602DE9090047
:105420004FF0500080F31188BFF34F8FBFF36F8FA1
:1054300007F096FD4FF0000080F31188BDE80900E9
:1054400019680868B0E8F04F1EF0100F08BFB0EC04
:10545000108A80F30988BFF36F8F704700BF00BFC9
:105460002820002082B04FF4FA7006F0DDFD40F2F3
:10547000C030C2F200009FED298A9FED299A9FED6E
:1054800029AA9FED29BA41F2481941F2B00A41F226
:10549000503700F59475C2F20009C2F2000A4FF0CD
:1054A000010BC2F2000700BF41F6604140F25032EA
:1054B0002846C2F20001C2F20002B0EE480AF0EE45
:1054C000490A02F025FB40F2C03041F6202140F2AB
:1054D0008832C2F20000C2F20001C2F20002B0EE55
:1054E0004A0AF0EE4B0A02F013FBB9F80A005446E0
:1054F000013800BA000C24F8160FD4F80A8004F022
:10550000A5FF016842468E6939462346CDF800B0B2
:10551000B047012006F088FDC6E700BFE0FFBF39B5
:10552000F1A23E3B666606393577D63D40F6D0702F
:10553000C2F2000003F0B8FA40F6D17440F65015FC
:10554000C2F20004C2F20005204604F0BDF928466C
:1055500003F0CAF9012006F067FDF5E7000000003E
:10556000074B19680868B0E8F04F80F30988BFF36B
:105570006F8F4FF0000080F31188704700BF00BFAD
:1055800028200020012006F04FFDFBE780B54EF2F9
:105590001000CEF20000006808F056F9012808BF9C
:1055A00080BDBDE8804007F0C3BD000070B592B07B
:1055B00006AC20463021FBF74EF8002543F64000AC
:1055C0000595CDE90355CDE901550095C4F20200DA
:1055D0000168022641F080510160006800F08050AF
:1055E0000090009847F200000095C4F200000168A6
:1055F00041F480410160006800F480400090009810
:10560000012006904FF4803007904FF480000D90F9
:1056100006200E90A820CDE90F0604201190204608
:105620000C96FEF7BFF810B172B600BFFEE70F2070
:10563000CDE901064FF4A05004904FF4805005903E
:1056400001A805210395FDF781FF10B172B600BFD7
:10565000FEE712B070BD00004EF68850CEF200009A
:10566000016841F4700101607047000041F2486038
:10567000C2F20000FEF782BC41F29060C2F200006C
:10568000FEF77CBC10B540F6FF3E0368C4F2000E86
:1056900040F2004C7045C4F2010C0FDCB0F1804FB9
:1056A00019D040F20042C4F20002904213D040F6FA
:1056B0000002C4F2000290420DD010E040F6004219
:1056C000C4F20002904206D0604504D00022C4F229
:1056D0000102904203D14A6823F07003134341F65C
:1056E000FF72C4F2000290420DDC70451FDCB0F185
:1056F000804F41D040F20042C4F2000290423BD0C1
:1057000040F6000221E043F6FF72C4F2010290422B
:1057100020DC42F20002C4F2000290422CD00022AF
:10572000C4F20102904227D0604525D028E040F61F
:105730000042C4F2000290421ED041F60002C4F2C0
:105740000002904218D041F60042C4F2000290429A
:1057500012D015E044F20002C4F2010290420BD0D4
:1057600044F60002C4F20102904205D044F2004225
:10577000C4F20102904203D1CA6823F44073134378
:1057800023F080024B69D1F800E08C681A43026074
:10579000C46240F48062C0F828E0624504BF096931
:1057A0000163012141610169C90708BF10BD016999
:1057B00021F00101016110BD806B0021C185C18410
:1057C000FEF74EBF806B0168496990F84120212A9D
:1057D00011D111F080010ED00021C184016851E87F
:1057E000031F026821F0C00142E80313002BF5D12A
:1057F000202180F841100168496990F84220222A4E
:105800002BD111F0400128D00021C185016851E859
:10581000031F026821F4907142E80313002BF5D1B5
:10582000016851E8051F026821F0010142E80513F3
:10583000002BF5D1016B01290AD100BF016851E8A5
:10584000031F026821F0100142E80313002BF5D179
:10585000202180F8421000210163416C41F01001C9
:105860004164FEF7FDBE00000168806B0968C90550
:1058700030D40021C18500BF016851E8031F0268D0
:1058800021F4807142E80313002BF5D1016851E83F
:10589000051F026821F0010142E80513002BF5D134
:1058A000016851E8051F026821F0400142E8051334
:1058B000002BF5D1202180F84210016B012909D17C
:1058C000016851E8031F026821F0100142E8031348
:1058D000002BF5D100214163016B012918BFFFF7AF
:1058E0007DBA818DFEF7B4BE806B01214163016BEF
:1058F000012918BFFFF780BA818D4908FEF7A8BEBD
:105900000168806B0968C90548BFFFF7D1BA00215B
:10591000C18400BF016851E8051F026821F08001C1
:1059200042E80513002BF5D1016851E8031F026816
:1059300041F0400142E80313002BF5D1704700000D
:10594000806BFFF7B7BA000090F84210222918BF09
:1059500070478268B2F5805F01D1016991B1816AB7
:10596000B2F5805F07D00AB9026922B102685268B5
:1059700002F07F0201E0026852680A70816A013118
:10598000816207E00168826A49686FF35F2122F84B
:10599000021B8262C18D01390A04C18500D07047A3
:1059A0000168CA6822F02002CA60CA6822F48072C4
:1059B000CA604A6922F001024A61202180F842103F
:1059C00000214163026B012A18BFFFF707BA81B0BB
:1059D000016300BF016851E8031F026821F0100154
:1059E00042E80313002BF5D101680A68D20606D5F8
:1059F000002200920A680092496800910099818D06
:105A000001B0FEF725BE000010B504460068D4E9D9
:105A100002C22369016921F44051114301616269A5
:105A200043EA0C01E3691143C268194349F20C636C
:105A30009A431143C1604169A26921F4407141F266
:105A40000043114340F48062C4F201039A42416171
:105A500002D1FDF75FFE01E0FDF748FEE1696368F2
:105A60001922B1F5004FA0FB020120D15A00DB0F33
:105A7000FAF772FC48F21F51C5F2EB11A0FB0123AB
:105A80005A094FF69C73C0F6FF7303F1805302FB73
:105A90000300322303EBC000A0FB01014FF4F870B8
:105AA00000EA111000EB0210C1F342111CE09A0051
:105AB0009B0FFAF751FC48F21F51C5F2EB11A0FB06
:105AC00001235A094FF69C73C0F6FF7302FB0300D3
:105AD000322303EB0010A0FB0101F02000EA51107B
